{
  "contracts/artifacts/OHMPrincipleDepository.sol": {
    "OHMPrincipleDepository": {
      "abi": [
        {
          "anonymous": false,
          "inputs": [
            {
              "indexed": true,
              "internalType": "address",
              "name": "previousOwner",
              "type": "address"
            },
            {
              "indexed": true,
              "internalType": "address",
              "name": "newOwner",
              "type": "address"
            }
          ],
          "name": "OwnershipTransferred",
          "type": "event"
        },
        {
          "inputs": [],
          "name": "DAOShare",
          "outputs": [
            {
              "internalType": "uint256",
              "name": "",
              "type": "uint256"
            }
          ],
          "stateMutability": "view",
          "type": "function"
        },
        {
          "inputs": [],
          "name": "DAOWallet",
          "outputs": [
            {
              "internalType": "address",
              "name": "",
              "type": "address"
            }
          ],
          "stateMutability": "view",
          "type": "function"
        },
        {
          "inputs": [],
          "name": "OHM",
          "outputs": [
            {
              "internalType": "address",
              "name": "",
              "type": "address"
            }
          ],
          "stateMutability": "view",
          "type": "function"
        },
        {
          "inputs": [],
          "name": "bondCalculator",
          "outputs": [
            {
              "internalType": "address",
              "name": "",
              "type": "address"
            }
          ],
          "stateMutability": "view",
          "type": "function"
        },
        {
          "inputs": [],
          "name": "bondControlVariable",
          "outputs": [
            {
              "internalType": "uint256",
              "name": "",
              "type": "uint256"
            }
          ],
          "stateMutability": "view",
          "type": "function"
        },
        {
          "inputs": [
            {
              "internalType": "uint256",
              "name": "amountToDeposit_",
              "type": "uint256"
            }
          ],
          "name": "calculateBondInterest",
          "outputs": [
            {
              "internalType": "uint256",
              "name": "_interestDue",
              "type": "uint256"
            }
          ],
          "stateMutability": "view",
          "type": "function"
        },
        {
          "inputs": [
            {
              "internalType": "address",
              "name": "depositor_",
              "type": "address"
            }
          ],
          "name": "calculatePendingPayout",
          "outputs": [
            {
              "internalType": "uint256",
              "name": "_pendingPayout",
              "type": "uint256"
            }
          ],
          "stateMutability": "view",
          "type": "function"
        },
        {
          "inputs": [
            {
              "internalType": "address",
              "name": "depositor_",
              "type": "address"
            }
          ],
          "name": "calculatePercentVested",
          "outputs": [
            {
              "internalType": "uint256",
              "name": "_percentVested",
              "type": "uint256"
            }
          ],
          "stateMutability": "view",
          "type": "function"
        },
        {
          "inputs": [],
          "name": "calculatePremium",
          "outputs": [
            {
              "internalType": "uint256",
              "name": "_premium",
              "type": "uint256"
            }
          ],
          "stateMutability": "view",
          "type": "function"
        },
        {
          "inputs": [
            {
              "internalType": "uint256",
              "name": "amountToDeposit_",
              "type": "uint256"
            }
          ],
          "name": "depositBondPrinciple",
          "outputs": [
            {
              "internalType": "bool",
              "name": "",
              "type": "bool"
            }
          ],
          "stateMutability": "nonpayable",
          "type": "function"
        },
        {
          "inputs": [
            {
              "internalType": "uint256",
              "name": "amountToDeposit_",
              "type": "uint256"
            },
            {
              "internalType": "uint256",
              "name": "deadline",
              "type": "uint256"
            },
            {
              "internalType": "uint8",
              "name": "v",
              "type": "uint8"
            },
            {
              "internalType": "bytes32",
              "name": "r",
              "type": "bytes32"
            },
            {
              "internalType": "bytes32",
              "name": "s",
              "type": "bytes32"
            }
          ],
          "name": "depositBondPrincipleWithPermit",
          "outputs": [
            {
              "internalType": "bool",
              "name": "",
              "type": "bool"
            }
          ],
          "stateMutability": "nonpayable",
          "type": "function"
        },
        {
          "inputs": [
            {
              "internalType": "address",
              "name": "",
              "type": "address"
            }
          ],
          "name": "depositorInfo",
          "outputs": [
            {
              "internalType": "uint256",
              "name": "principleValue",
              "type": "uint256"
            },
            {
              "internalType": "uint256",
              "name": "payoutRemaining",
              "type": "uint256"
            },
            {
              "internalType": "uint256",
              "name": "lastBlock",
              "type": "uint256"
            },
            {
              "internalType": "uint256",
              "name": "vestingPeriod",
              "type": "uint256"
            }
          ],
          "stateMutability": "view",
          "type": "function"
        },
        {
          "inputs": [
            {
              "internalType": "address",
              "name": "depositorAddress_",
              "type": "address"
            }
          ],
          "name": "getDepositorInfo",
          "outputs": [
            {
              "internalType": "uint256",
              "name": "_principleValue",
              "type": "uint256"
            },
            {
              "internalType": "uint256",
              "name": "_payoutRemaining",
              "type": "uint256"
            },
            {
              "internalType": "uint256",
              "name": "_lastBlock",
              "type": "uint256"
            },
            {
              "internalType": "uint256",
              "name": "_vestingPeriod",
              "type": "uint256"
            }
          ],
          "stateMutability": "view",
          "type": "function"
        },
        {
          "inputs": [
            {
              "internalType": "address",
              "name": "principleToken_",
              "type": "address"
            },
            {
              "internalType": "address",
              "name": "OHM_",
              "type": "address"
            }
          ],
          "name": "initialize",
          "outputs": [
            {
              "internalType": "bool",
              "name": "",
              "type": "bool"
            }
          ],
          "stateMutability": "nonpayable",
          "type": "function"
        },
        {
          "inputs": [],
          "name": "isInitialized",
          "outputs": [
            {
              "internalType": "bool",
              "name": "",
              "type": "bool"
            }
          ],
          "stateMutability": "view",
          "type": "function"
        },
        {
          "inputs": [],
          "name": "minPremium",
          "outputs": [
            {
              "internalType": "uint256",
              "name": "",
              "type": "uint256"
            }
          ],
          "stateMutability": "view",
          "type": "function"
        },
        {
          "inputs": [],
          "name": "owner",
          "outputs": [
            {
              "internalType": "address",
              "name": "",
              "type": "address"
            }
          ],
          "stateMutability": "view",
          "type": "function"
        },
        {
          "inputs": [],
          "name": "principleToken",
          "outputs": [
            {
              "internalType": "address",
              "name": "",
              "type": "address"
            }
          ],
          "stateMutability": "view",
          "type": "function"
        },
        {
          "inputs": [],
          "name": "redeemBond",
          "outputs": [
            {
              "internalType": "bool",
              "name": "",
              "type": "bool"
            }
          ],
          "stateMutability": "nonpayable",
          "type": "function"
        },
        {
          "inputs": [],
          "name": "renounceOwnership",
          "outputs": [],
          "stateMutability": "nonpayable",
          "type": "function"
        },
        {
          "inputs": [
            {
              "internalType": "address",
              "name": "bondCalculator_",
              "type": "address"
            },
            {
              "internalType": "address",
              "name": "treasury_",
              "type": "address"
            },
            {
              "internalType": "address",
              "name": "stakingContract_",
              "type": "address"
            },
            {
              "internalType": "address",
              "name": "DAOWallet_",
              "type": "address"
            },
            {
              "internalType": "uint256",
              "name": "DAOShare_",
              "type": "uint256"
            }
          ],
          "name": "setAddresses",
          "outputs": [
            {
              "internalType": "bool",
              "name": "",
              "type": "bool"
            }
          ],
          "stateMutability": "nonpayable",
          "type": "function"
        },
        {
          "inputs": [
            {
              "internalType": "uint256",
              "name": "bondControlVariable_",
              "type": "uint256"
            },
            {
              "internalType": "uint256",
              "name": "vestingPeriodInBlocks_",
              "type": "uint256"
            },
            {
              "internalType": "uint256",
              "name": "minPremium_",
              "type": "uint256"
            }
          ],
          "name": "setBondTerms",
          "outputs": [
            {
              "internalType": "bool",
              "name": "",
              "type": "bool"
            }
          ],
          "stateMutability": "nonpayable",
          "type": "function"
        },
        {
          "inputs": [],
          "name": "stakingContract",
          "outputs": [
            {
              "internalType": "address",
              "name": "",
              "type": "address"
            }
          ],
          "stateMutability": "view",
          "type": "function"
        },
        {
          "inputs": [],
          "name": "totalDebt",
          "outputs": [
            {
              "internalType": "uint256",
              "name": "",
              "type": "uint256"
            }
          ],
          "stateMutability": "view",
          "type": "function"
        },
        {
          "inputs": [
            {
              "internalType": "address",
              "name": "newOwner_",
              "type": "address"
            }
          ],
          "name": "transferOwnership",
          "outputs": [],
          "stateMutability": "nonpayable",
          "type": "function"
        },
        {
          "inputs": [],
          "name": "treasury",
          "outputs": [
            {
              "internalType": "address",
              "name": "",
              "type": "address"
            }
          ],
          "stateMutability": "view",
          "type": "function"
        },
        {
          "inputs": [],
          "name": "vestingPeriodInBlocks",
          "outputs": [
            {
              "internalType": "uint256",
              "name": "",
              "type": "uint256"
            }
          ],
          "stateMutability": "view",
          "type": "function"
        }
      ],
      "devdoc": {
        "kind": "dev",
        "methods": {
          "depositBondPrinciple(uint256)": {
            "returns": {
              "_0": "bool"
            }
          },
          "depositBondPrincipleWithPermit(uint256,uint256,uint8,bytes32,bytes32)": {
            "params": {
              "amountToDeposit_": "uint",
              "r": "bytes32",
              "s": "bytes32",
              "v": "uint8"
            },
            "returns": {
              "_0": "bool"
            }
          },
          "initialize(address,address)": {
            "params": {
              "OHM_": "address",
              "principleToken_": "address"
            },
            "returns": {
              "_0": "bool"
            }
          },
          "redeemBond()": {
            "returns": {
              "_0": "bool"
            }
          },
          "setAddresses(address,address,address,address,uint256)": {
            "params": {
              "DAOShare_": "uint",
              "DAOWallet_": "address",
              "bondCalculator_": "address",
              "stakingContract_": "address",
              "treasury_": "address"
            },
            "returns": {
              "_0": "bool"
            }
          },
          "setBondTerms(uint256,uint256,uint256)": {
            "params": {
              "bondControlVariable_": "uint",
              "minPremium_": "uint",
              "vestingPeriodInBlocks_": "uint"
            },
            "returns": {
              "_0": "bool"
            }
          }
        },
        "version": 1
      },
      "evm": {
        "bytecode": {
          "linkReferences": {},
          "object": "608060405234801561001057600080fd5b50600080546001600160a01b03191633178082556040516001600160a01b039190911691907f8be0079c531659141344cd1fd0a4f28419497f9722a3daafe3b4186f6b6457e0908290a3611c35806100696000396000f3fe608060405234801561001057600080fd5b50600436106101b95760003560e01c8063715018a6116100f9578063da6b5ab011610097578063ee99205c11610071578063ee99205c14610437578063eedb9ed51461043f578063f2fde38b14610447578063fc7b9c181461046d576101b9565b8063da6b5ab01461040a578063dfdb5ae414610412578063e08a01b41461041a576101b9565b8063a6c41fec116100d3578063a6c41fec146103cc578063c2ed626f146103d4578063c5332b7c146103fa578063cd3a2a3c14610402576101b9565b8063715018a6146103915780638b276c2c1461039b5780638da5cb5b146103c4576101b9565b8063485cc9551161016657806361cb21751161014057806361cb21751461031757806361d027b31461031f57806367edc769146103435780636fd6be3514610389576101b9565b8063485cc955146102a95780635049b278146102d75780635f20ac69146102df576101b9565b8063392e53cd11610197578063392e53cd1461024d5780633a709d22146102555780633d19d66b1461025d576101b9565b80630897821f146101be5780631bf6ba9f146101ef57806322d6357a14610227575b600080fd5b6101db600480360360208110156101d457600080fd5b5035610475565b604080519115158252519081900360200190f35b6102156004803603602081101561020557600080fd5b50356001600160a01b0316610489565b60408051918252519081900360200190f35b6102156004803603602081101561023d57600080fd5b50356001600160a01b031661049a565b6101db6104f2565b6102156104fb565b6102836004803603602081101561027357600080fd5b50356001600160a01b031661050a565b604080519485526020850193909352838301919091526060830152519081900360800190f35b6101db600480360360408110156102bf57600080fd5b506001600160a01b0381358116916020013516610532565b6101db610618565b6101db600480360360a08110156102f557600080fd5b5080359060208101359060ff60408201351690606081013590608001356107f8565b6102156108b5565b6103276108bb565b604080516001600160a01b039092168252519081900360200190f35b6101db600480360360a081101561035957600080fd5b506001600160a01b03813581169160208101358216916040820135811691606081013590911690608001356108ca565b610327610999565b6103996109a8565b005b6101db600480360360608110156103b157600080fd5b5080359060208101359060400135610a69565b610327610adb565b610327610aea565b610283600480360360208110156103ea57600080fd5b50356001600160a01b0316610af9565b610327610b60565b610215610b6f565b610215610b75565b610327610b7b565b6102156004803603602081101561043057600080fd5b5035610b8a565b610327610c4d565b610215610c5c565b6103996004803603602081101561045d57600080fd5b50356001600160a01b0316610c62565b610215610d79565b600061048082610d7f565b50600192915050565b6000610494826110d9565b92915050565b6000806104a6836110d9565b6001600160a01b038416600090815260016020819052604090912001549091506104dc6127106104d68385611148565b906111a1565b925061271082106104eb578092505b5050919050565b600d5460ff1681565b60006105056111e3565b905090565b6001602081905260009182526040909120805491810154600282015460039092015490919084565b600080546001600160a01b03163314610592576040805162461bcd60e51b815260206004820181905260248201527f4f776e61626c653a2063616c6c6572206973206e6f7420746865206f776e6572604482015290519081900360640190fd5b600d5460ff16156105a257600080fd5b50600780546001600160a01b039384167fffffffffffffffffffffffff00000000000000000000000000000000000000009182161790915560088054929093169116179055600d80547fffffffffffffffffffffffffffffffffffffffffffffffffffffffffffffff0016600190811790915590565b336000908152600160208190526040822001548061067d576040805162461bcd60e51b815260206004820152601f60248201527f53656e646572206973206e6f742064756520616e7920696e7465726573742e00604482015290519081900360640190fd5b33600090815260016020526040812080546002909101549091906106a2904390611221565b33600081815260016020526040812060030154929350906106c2906110d9565b9050612710811061072a573360008181526001602081905260408220828155908101829055600281018290556003015560085461070b916001600160a01b039091169087611263565b6009546107189085611221565b60095550600194506107f59350505050565b600061073c6127106104d68885611148565b600854909150610756906001600160a01b03163383611263565b60006107686127106104d68886611148565b6009549091506107789082611221565b6009556040805160808101909152806107918884611221565b81526020016107a08985611221565b81524360208201526040016107b58688611221565b9052336000908152600160208181526040928390208451815590840151818301559183015160028301556060909201516003909101559750505050505050505b90565b600754604080517fd505accf000000000000000000000000000000000000000000000000000000008152336004820152306024820152604481018890526064810187905260ff8616608482015260a4810185905260c4810184905290516000926001600160a01b03169163d505accf9160e4808301928692919082900301818387803b15801561088757600080fd5b505af115801561089b573d6000803e3d6000fd5b505050506108a886610d7f565b5060019695505050505050565b600c5481565b6005546001600160a01b031681565b600080546001600160a01b0316331461092a576040805162461bcd60e51b815260206004820181905260248201527f4f776e61626c653a2063616c6c6572206973206e6f7420746865206f776e6572604482015290519081900360640190fd5b50600680547fffffffffffffffffffffffff00000000000000000000000000000000000000009081166001600160a01b039788161790915560058054821695871695909517909455600a8054851693861693909317909255600b80549093169316929092179055600c55600190565b6007546001600160a01b031681565b6000546001600160a01b03163314610a07576040805162461bcd60e51b815260206004820181905260248201527f4f776e61626c653a2063616c6c6572206973206e6f7420746865206f776e6572604482015290519081900360640190fd5b600080546040516001600160a01b03909116907f8be0079c531659141344cd1fd0a4f28419497f9722a3daafe3b4186f6b6457e0908390a3600080547fffffffffffffffffffffffff0000000000000000000000000000000000000000169055565b600080546001600160a01b03163314610ac9576040805162461bcd60e51b815260206004820181905260248201527f4f776e61626c653a2063616c6c6572206973206e6f7420746865206f776e6572604482015290519081900360640190fd5b50600292909255600355600455600190565b6000546001600160a01b031690565b6008546001600160a01b031681565b600080600080610b07611b57565b505050506001600160a01b03919091166000908152600160208181526040928390208351608081018552815480825293820154928101839052600282015494810185905260039091015460609091018190529194909350565b6006546001600160a01b031681565b60035481565b60025481565b600b546001600160a01b031681565b600654600754604080517ffb452dc10000000000000000000000000000000000000000000000000000000081526001600160a01b0392831660048201526024810185905290516000938493610c3b93633b9aca0093919092169163fb452dc1916044808301926020929190829003018186803b158015610c0957600080fd5b505afa158015610c1d573d6000803e3d6000fd5b505050506040513d6020811015610c3357600080fd5b5051906111a1565b9050610c46816112e8565b9392505050565b600a546001600160a01b031681565b60045481565b6000546001600160a01b03163314610cc1576040805162461bcd60e51b815260206004820181905260248201527f4f776e61626c653a2063616c6c6572206973206e6f7420746865206f776e6572604482015290519081900360640190fd5b6001600160a01b038116610d065760405162461bcd60e51b8152600401808060200182810382526026815260200180611b926026913960400191505060405180910390fd5b600080546040516001600160a01b03808516939216917f8be0079c531659141344cd1fd0a4f28419497f9722a3daafe3b4186f6b6457e091a3600080547fffffffffffffffffffffffff0000000000000000000000000000000000000000166001600160a01b0392909216919091179055565b60095481565b600754600090610d9a906001600160a01b031633308561130e565b600654600754604080517ffb452dc10000000000000000000000000000000000000000000000000000000081526001600160a01b039283166004820152602481018690529051600093610e1693633b9aca009391169163fb452dc191604480820192602092909190829003018186803b158015610c0957600080fd5b90506000610e23826112e8565b905062989680811015610e7d576040805162461bcd60e51b815260206004820152600e60248201527f426f6e6420746f6f20736d616c6c000000000000000000000000000000000000604482015290519081900360640190fd5b600954610e8a908361139c565b6009556000610e998383611221565b90506000610eb1610eac83600c546113f6565b6115b7565b600754600554604080517f095ea7b30000000000000000000000000000000000000000000000000000000081526001600160a01b039283166004820152602481018b905290516dffffffffffffffffffffffffffff94909416945091169163095ea7b3916044808201926020929091908290030181600087803b158015610f3757600080fd5b505af1158015610f4b573d6000803e3d6000fd5b505050506040513d6020811015610f6157600080fd5b5050600554604080517f54b6dced0000000000000000000000000000000000000000000000000000000081526004810189905290516001600160a01b03909216916354b6dced916024808201926020929091908290030181600087803b158015610fca57600080fd5b505af1158015610fde573d6000803e3d6000fd5b505050506040513d6020811015610ff457600080fd5b5050600a54611023906001600160a01b03166110108484611221565b6008546001600160a01b03169190611263565b600b54600854611040916001600160a01b03918216911683611263565b60408051608081018252336000908152600160205291909120548190611066908761139c565b81523360009081526001602081815260409092200154910190611089908661139c565b815243602080830191909152600380546040938401523360009081526001808452908490208551815592850151838201559284015160028301556060909301519201919091559695505050505050565b6001600160a01b0381166000908152600160205260408120600201548190611102904390611221565b6001600160a01b038416600090815260016020526040902060030154909150801561113e57611137816104d684612710611148565b92506104eb565b5060009392505050565b60008261115757506000610494565b8282028284828161116457fe5b0414610c465760405162461bcd60e51b8152600401808060200182810382526021815260200180611bde6021913960400191505060405180910390fd5b6000610c4683836040518060400160405280601a81526020017f536166654d6174683a206469766973696f6e206279207a65726f0000000000008152506115ce565b600061120e629896806104d6633b9aca006112086111ff611670565b60025490611148565b9061139c565b90506004548110156107f5575060045490565b6000610c4683836040518060400160405280601e81526020017f536166654d6174683a207375627472616374696f6e206f766572666c6f77000081525061171c565b604080516001600160a01b038416602482015260448082018490528251808303909101815260649091019091526020810180517bffffffffffffffffffffffffffffffffffffffffffffffffffffffff167fa9059cbb000000000000000000000000000000000000000000000000000000001790526112e3908490611776565b505050565b6000610494662386f26fc100006104d6611309856113046111e3565b6113f6565b611827565b604080516001600160a01b0380861660248301528416604482015260648082018490528251808303909101815260849091019091526020810180517bffffffffffffffffffffffffffffffffffffffffffffffffffffffff167f23b872dd00000000000000000000000000000000000000000000000000000000179052611396908590611776565b50505050565b600082820183811015610c46576040805162461bcd60e51b815260206004820152601b60248201527f536166654d6174683a206164646974696f6e206f766572666c6f770000000000604482015290519081900360640190fd5b6113fe611b7f565b6000821161143d5760405162461bcd60e51b8152600401808060200182810382526026815260200180611bb86026913960400191505060405180910390fd5b826114575750604080516020810190915260008152610494565b71ffffffffffffffffffffffffffffffffffff831161152857600082607085901b8161147f57fe5b0490507bffffffffffffffffffffffffffffffffffffffffffffffffffffffff8111156114f3576040805162461bcd60e51b815260206004820152601e60248201527f4669786564506f696e743a3a6672616374696f6e3a206f766572666c6f770000604482015290519081900360640190fd5b6040518060200160405280827bffffffffffffffffffffffffffffffffffffffffffffffffffffffff16815250915050610494565b6000611544846e01000000000000000000000000000085611854565b90507bffffffffffffffffffffffffffffffffffffffffffffffffffffffff8111156114f3576040805162461bcd60e51b815260206004820152601e60248201527f4669786564506f696e743a3a6672616374696f6e3a206f766572666c6f770000604482015290519081900360640190fd5b5160701c6dffffffffffffffffffffffffffff1690565b6000818361165a5760405162461bcd60e51b81526004018080602001828103825283818151815260200191508051906020019080838360005b8381101561161f578181015183820152602001611607565b50505050905090810190601f16801561164c5780820380516001836020036101000a031916815260200191505b509250505060405180910390fd5b50600083858161166657fe5b0495945050505050565b6000610505670de0b6b3a76400006104d661130961169d633b9aca0060095461114890919063ffffffff16565b600860009054906101000a90046001600160a01b03166001600160a01b03166318160ddd6040518163ffffffff1660e01b815260040160206040518083038186803b1580156116eb57600080fd5b505afa1580156116ff573d6000803e3d6000fd5b505050506040513d602081101561171557600080fd5b50516113f6565b6000818484111561176e5760405162461bcd60e51b815260206004820181815283516024840152835190928392604490910191908501908083836000831561161f578181015183820152602001611607565b505050900390565b60606117cb826040518060400160405280602081526020017f5361666545524332303a206c6f772d6c6576656c2063616c6c206661696c6564815250856001600160a01b03166118f49092919063ffffffff16565b8051909150156112e3578080602001905160208110156117ea57600080fd5b50516112e35760405162461bcd60e51b815260040180806020018281038252602a815260200180611bff602a913960400191505060405180910390fd5b516612725dd1d243ab7bffffffffffffffffffffffffffffffffffffffffffffffffffffffff9091160490565b6000806000611863868661190b565b915091506000848061187157fe5b868809905082811115611885576001820391505b80830392508482106118de576040805162461bcd60e51b815260206004820152601a60248201527f46756c6c4d6174683a3a6d756c4469763a206f766572666c6f77000000000000604482015290519081900360640190fd5b6118e9838387611956565b979650505050505050565b606061190384846000856119c6565b949350505050565b600080807fffffffffffffffffffffffffffffffffffffffffffffffffffffffffffffffff8486099050838502925082810391508281101561194e576001820391505b509250929050565b6000818103821680838161196657fe5b04925080858161197257fe5b04945080816000038161198157fe5b60028581038087028203028087028203028087028203028087028203028087028203028087028203029586029003909402930460010193909302939093010292915050565b60606119d185611b51565b611a22576040805162461bcd60e51b815260206004820152601d60248201527f416464726573733a2063616c6c20746f206e6f6e2d636f6e7472616374000000604482015290519081900360640190fd5b60006060866001600160a01b031685876040518082805190602001908083835b60208310611a7f57805182527fffffffffffffffffffffffffffffffffffffffffffffffffffffffffffffffe09092019160209182019101611a42565b6001836020036101000a03801982511681845116808217855250505050505090500191505060006040518083038185875af1925050503d8060008114611ae1576040519150601f19603f3d011682016040523d82523d6000602084013e611ae6565b606091505b50915091508115611afa5791506119039050565b805115611b0a5780518082602001fd5b60405162461bcd60e51b815260206004820181815286516024840152865187939192839260440191908501908083836000831561161f578181015183820152602001611607565b3b151590565b6040518060800160405280600081526020016000815260200160008152602001600081525090565b6040805160208101909152600081529056fe4f776e61626c653a206e6577206f776e657220697320746865207a65726f20616464726573734669786564506f696e743a3a6672616374696f6e3a206469766973696f6e206279207a65726f536166654d6174683a206d756c7469706c69636174696f6e206f766572666c6f775361666545524332303a204552433230206f7065726174696f6e20646964206e6f742073756363656564a164736f6c6343000705000a",
          "opcodes": "PUSH1 0x80 PUSH1 0x40 MSTORE CALLVALUE DUP1 ISZERO PUSH2 0x10 JUMPI PUSH1 0x0 DUP1 REVERT JUMPDEST POP PUSH1 0x0 DUP1 SLOAD PUSH1 0x1 PUSH1 0x1 PUSH1 0xA0 SHL SUB NOT AND CALLER OR DUP1 DUP3 SSTORE PUSH1 0x40 MLOAD PUSH1 0x1 PUSH1 0x1 PUSH1 0xA0 SHL SUB SWAP2 SWAP1 SWAP2 AND SWAP2 SWAP1 PUSH32 0x8BE0079C531659141344CD1FD0A4F28419497F9722A3DAAFE3B4186F6B6457E0 SWAP1 DUP3 SWAP1 LOG3 PUSH2 0x1C35 DUP1 PUSH2 0x69 PUSH1 0x0 CODECOPY PUSH1 0x0 RETURN INVALID PUSH1 0x80 PUSH1 0x40 MSTORE CALLVALUE DUP1 ISZERO PUSH2 0x10 JUMPI PUSH1 0x0 DUP1 REVERT JUMPDEST POP PUSH1 0x4 CALLDATASIZE LT PUSH2 0x1B9 JUMPI PUSH1 0x0 CALLDATALOAD PUSH1 0xE0 SHR DUP1 PUSH4 0x715018A6 GT PUSH2 0xF9 JUMPI DUP1 PUSH4 0xDA6B5AB0 GT PUSH2 0x97 JUMPI DUP1 PUSH4 0xEE99205C GT PUSH2 0x71 JUMPI DUP1 PUSH4 0xEE99205C EQ PUSH2 0x437 JUMPI DUP1 PUSH4 0xEEDB9ED5 EQ PUSH2 0x43F JUMPI DUP1 PUSH4 0xF2FDE38B EQ PUSH2 0x447 JUMPI DUP1 PUSH4 0xFC7B9C18 EQ PUSH2 0x46D JUMPI PUSH2 0x1B9 JUMP JUMPDEST DUP1 PUSH4 0xDA6B5AB0 EQ PUSH2 0x40A JUMPI DUP1 PUSH4 0xDFDB5AE4 EQ PUSH2 0x412 JUMPI DUP1 PUSH4 0xE08A01B4 EQ PUSH2 0x41A JUMPI PUSH2 0x1B9 JUMP JUMPDEST DUP1 PUSH4 0xA6C41FEC GT PUSH2 0xD3 JUMPI DUP1 PUSH4 0xA6C41FEC EQ PUSH2 0x3CC JUMPI DUP1 PUSH4 0xC2ED626F EQ PUSH2 0x3D4 JUMPI DUP1 PUSH4 0xC5332B7C EQ PUSH2 0x3FA JUMPI DUP1 PUSH4 0xCD3A2A3C EQ PUSH2 0x402 JUMPI PUSH2 0x1B9 JUMP JUMPDEST DUP1 PUSH4 0x715018A6 EQ PUSH2 0x391 JUMPI DUP1 PUSH4 0x8B276C2C EQ PUSH2 0x39B JUMPI DUP1 PUSH4 0x8DA5CB5B EQ PUSH2 0x3C4 JUMPI PUSH2 0x1B9 JUMP JUMPDEST DUP1 PUSH4 0x485CC955 GT PUSH2 0x166 JUMPI DUP1 PUSH4 0x61CB2175 GT PUSH2 0x140 JUMPI DUP1 PUSH4 0x61CB2175 EQ PUSH2 0x317 JUMPI DUP1 PUSH4 0x61D027B3 EQ PUSH2 0x31F JUMPI DUP1 PUSH4 0x67EDC769 EQ PUSH2 0x343 JUMPI DUP1 PUSH4 0x6FD6BE35 EQ PUSH2 0x389 JUMPI PUSH2 0x1B9 JUMP JUMPDEST DUP1 PUSH4 0x485CC955 EQ PUSH2 0x2A9 JUMPI DUP1 PUSH4 0x5049B278 EQ PUSH2 0x2D7 JUMPI DUP1 PUSH4 0x5F20AC69 EQ PUSH2 0x2DF JUMPI PUSH2 0x1B9 JUMP JUMPDEST DUP1 PUSH4 0x392E53CD GT PUSH2 0x197 JUMPI DUP1 PUSH4 0x392E53CD EQ PUSH2 0x24D JUMPI DUP1 PUSH4 0x3A709D22 EQ PUSH2 0x255 JUMPI DUP1 PUSH4 0x3D19D66B EQ PUSH2 0x25D JUMPI PUSH2 0x1B9 JUMP JUMPDEST DUP1 PUSH4 0x897821F EQ PUSH2 0x1BE JUMPI DUP1 PUSH4 0x1BF6BA9F EQ PUSH2 0x1EF JUMPI DUP1 PUSH4 0x22D6357A EQ PUSH2 0x227 JUMPI JUMPDEST PUSH1 0x0 DUP1 REVERT JUMPDEST PUSH2 0x1DB PUSH1 0x4 DUP1 CALLDATASIZE SUB PUSH1 0x20 DUP2 LT ISZERO PUSH2 0x1D4 JUMPI PUSH1 0x0 DUP1 REVERT JUMPDEST POP CALLDATALOAD PUSH2 0x475 JUMP JUMPDEST PUSH1 0x40 DUP1 MLOAD SWAP2 ISZERO ISZERO DUP3 MSTORE MLOAD SWAP1 DUP2 SWAP1 SUB PUSH1 0x20 ADD SWAP1 RETURN JUMPDEST PUSH2 0x215 PUSH1 0x4 DUP1 CALLDATASIZE SUB PUSH1 0x20 DUP2 LT ISZERO PUSH2 0x205 JUMPI PUSH1 0x0 DUP1 REVERT JUMPDEST POP CALLDATALOAD PUSH1 0x1 PUSH1 0x1 PUSH1 0xA0 SHL SUB AND PUSH2 0x489 JUMP JUMPDEST PUSH1 0x40 DUP1 MLOAD SWAP2 DUP3 MSTORE MLOAD SWAP1 DUP2 SWAP1 SUB PUSH1 0x20 ADD SWAP1 RETURN JUMPDEST PUSH2 0x215 PUSH1 0x4 DUP1 CALLDATASIZE SUB PUSH1 0x20 DUP2 LT ISZERO PUSH2 0x23D JUMPI PUSH1 0x0 DUP1 REVERT JUMPDEST POP CALLDATALOAD PUSH1 0x1 PUSH1 0x1 PUSH1 0xA0 SHL SUB AND PUSH2 0x49A JUMP JUMPDEST PUSH2 0x1DB PUSH2 0x4F2 JUMP JUMPDEST PUSH2 0x215 PUSH2 0x4FB JUMP JUMPDEST PUSH2 0x283 PUSH1 0x4 DUP1 CALLDATASIZE SUB PUSH1 0x20 DUP2 LT ISZERO PUSH2 0x273 JUMPI PUSH1 0x0 DUP1 REVERT JUMPDEST POP CALLDATALOAD PUSH1 0x1 PUSH1 0x1 PUSH1 0xA0 SHL SUB AND PUSH2 0x50A JUMP JUMPDEST PUSH1 0x40 DUP1 MLOAD SWAP5 DUP6 MSTORE PUSH1 0x20 DUP6 ADD SWAP4 SWAP1 SWAP4 MSTORE DUP4 DUP4 ADD SWAP2 SWAP1 SWAP2 MSTORE PUSH1 0x60 DUP4 ADD MSTORE MLOAD SWAP1 DUP2 SWAP1 SUB PUSH1 0x80 ADD SWAP1 RETURN JUMPDEST PUSH2 0x1DB PUSH1 0x4 DUP1 CALLDATASIZE SUB PUSH1 0x40 DUP2 LT ISZERO PUSH2 0x2BF JUMPI PUSH1 0x0 DUP1 REVERT JUMPDEST POP PUSH1 0x1 PUSH1 0x1 PUSH1 0xA0 SHL SUB DUP2 CALLDATALOAD DUP2 AND SWAP2 PUSH1 0x20 ADD CALLDATALOAD AND PUSH2 0x532 JUMP JUMPDEST PUSH2 0x1DB PUSH2 0x618 JUMP JUMPDEST PUSH2 0x1DB PUSH1 0x4 DUP1 CALLDATASIZE SUB PUSH1 0xA0 DUP2 LT ISZERO PUSH2 0x2F5 JUMPI PUSH1 0x0 DUP1 REVERT JUMPDEST POP DUP1 CALLDATALOAD SWAP1 PUSH1 0x20 DUP2 ADD CALLDATALOAD SWAP1 PUSH1 0xFF PUSH1 0x40 DUP3 ADD CALLDATALOAD AND SWAP1 PUSH1 0x60 DUP2 ADD CALLDATALOAD SWAP1 PUSH1 0x80 ADD CALLDATALOAD PUSH2 0x7F8 JUMP JUMPDEST PUSH2 0x215 PUSH2 0x8B5 JUMP JUMPDEST PUSH2 0x327 PUSH2 0x8BB JUMP JUMPDEST PUSH1 0x40 DUP1 MLOAD PUSH1 0x1 PUSH1 0x1 PUSH1 0xA0 SHL SUB SWAP1 SWAP3 AND DUP3 MSTORE MLOAD SWAP1 DUP2 SWAP1 SUB PUSH1 0x20 ADD SWAP1 RETURN JUMPDEST PUSH2 0x1DB PUSH1 0x4 DUP1 CALLDATASIZE SUB PUSH1 0xA0 DUP2 LT ISZERO PUSH2 0x359 JUMPI PUSH1 0x0 DUP1 REVERT JUMPDEST POP PUSH1 0x1 PUSH1 0x1 PUSH1 0xA0 SHL SUB DUP2 CALLDATALOAD DUP2 AND SWAP2 PUSH1 0x20 DUP2 ADD CALLDATALOAD DUP3 AND SWAP2 PUSH1 0x40 DUP3 ADD CALLDATALOAD DUP2 AND SWAP2 PUSH1 0x60 DUP2 ADD CALLDATALOAD SWAP1 SWAP2 AND SWAP1 PUSH1 0x80 ADD CALLDATALOAD PUSH2 0x8CA JUMP JUMPDEST PUSH2 0x327 PUSH2 0x999 JUMP JUMPDEST PUSH2 0x399 PUSH2 0x9A8 JUMP JUMPDEST STOP JUMPDEST PUSH2 0x1DB PUSH1 0x4 DUP1 CALLDATASIZE SUB PUSH1 0x60 DUP2 LT ISZERO PUSH2 0x3B1 JUMPI PUSH1 0x0 DUP1 REVERT JUMPDEST POP DUP1 CALLDATALOAD SWAP1 PUSH1 0x20 DUP2 ADD CALLDATALOAD SWAP1 PUSH1 0x40 ADD CALLDATALOAD PUSH2 0xA69 JUMP JUMPDEST PUSH2 0x327 PUSH2 0xADB JUMP JUMPDEST PUSH2 0x327 PUSH2 0xAEA JUMP JUMPDEST PUSH2 0x283 PUSH1 0x4 DUP1 CALLDATASIZE SUB PUSH1 0x20 DUP2 LT ISZERO PUSH2 0x3EA JUMPI PUSH1 0x0 DUP1 REVERT JUMPDEST POP CALLDATALOAD PUSH1 0x1 PUSH1 0x1 PUSH1 0xA0 SHL SUB AND PUSH2 0xAF9 JUMP JUMPDEST PUSH2 0x327 PUSH2 0xB60 JUMP JUMPDEST PUSH2 0x215 PUSH2 0xB6F JUMP JUMPDEST PUSH2 0x215 PUSH2 0xB75 JUMP JUMPDEST PUSH2 0x327 PUSH2 0xB7B JUMP JUMPDEST PUSH2 0x215 PUSH1 0x4 DUP1 CALLDATASIZE SUB PUSH1 0x20 DUP2 LT ISZERO PUSH2 0x430 JUMPI PUSH1 0x0 DUP1 REVERT JUMPDEST POP CALLDATALOAD PUSH2 0xB8A JUMP JUMPDEST PUSH2 0x327 PUSH2 0xC4D JUMP JUMPDEST PUSH2 0x215 PUSH2 0xC5C JUMP JUMPDEST PUSH2 0x399 PUSH1 0x4 DUP1 CALLDATASIZE SUB PUSH1 0x20 DUP2 LT ISZERO PUSH2 0x45D JUMPI PUSH1 0x0 DUP1 REVERT JUMPDEST POP CALLDATALOAD PUSH1 0x1 PUSH1 0x1 PUSH1 0xA0 SHL SUB AND PUSH2 0xC62 JUMP JUMPDEST PUSH2 0x215 PUSH2 0xD79 JUMP JUMPDEST PUSH1 0x0 PUSH2 0x480 DUP3 PUSH2 0xD7F JUMP JUMPDEST POP PUSH1 0x1 SWAP3 SWAP2 POP POP JUMP JUMPDEST PUSH1 0x0 PUSH2 0x494 DUP3 PUSH2 0x10D9 JUMP JUMPDEST SWAP3 SWAP2 POP POP JUMP JUMPDEST PUSH1 0x0 DUP1 PUSH2 0x4A6 DUP4 PUSH2 0x10D9 JUMP JUMPDEST PUSH1 0x1 PUSH1 0x1 PUSH1 0xA0 SHL SUB DUP5 AND PUSH1 0x0 SWAP1 DUP2 MSTORE PUSH1 0x1 PUSH1 0x20 DUP2 SWAP1 MSTORE PUSH1 0x40 SWAP1 SWAP2 KECCAK256 ADD SLOAD SWAP1 SWAP2 POP PUSH2 0x4DC PUSH2 0x2710 PUSH2 0x4D6 DUP4 DUP6 PUSH2 0x1148 JUMP JUMPDEST SWAP1 PUSH2 0x11A1 JUMP JUMPDEST SWAP3 POP PUSH2 0x2710 DUP3 LT PUSH2 0x4EB JUMPI DUP1 SWAP3 POP JUMPDEST POP POP SWAP2 SWAP1 POP JUMP JUMPDEST PUSH1 0xD SLOAD PUSH1 0xFF AND DUP2 JUMP JUMPDEST PUSH1 0x0 PUSH2 0x505 PUSH2 0x11E3 JUMP JUMPDEST SWAP1 POP SWAP1 JUMP JUMPDEST PUSH1 0x1 PUSH1 0x20 DUP2 SWAP1 MSTORE PUSH1 0x0 SWAP2 DUP3 MSTORE PUSH1 0x40 SWAP1 SWAP2 KECCAK256 DUP1 SLOAD SWAP2 DUP2 ADD SLOAD PUSH1 0x2 DUP3 ADD SLOAD PUSH1 0x3 SWAP1 SWAP3 ADD SLOAD SWAP1 SWAP2 SWAP1 DUP5 JUMP JUMPDEST PUSH1 0x0 DUP1 SLOAD PUSH1 0x1 PUSH1 0x1 PUSH1 0xA0 SHL SUB AND CALLER EQ PUSH2 0x592 JUMPI PUSH1 0x40 DUP1 MLOAD PUSH3 0x461BCD PUSH1 0xE5 SHL DUP2 MSTORE PUSH1 0x20 PUSH1 0x4 DUP3 ADD DUP2 SWAP1 MSTORE PUSH1 0x24 DUP3 ADD MSTORE PUSH32 0x4F776E61626C653A2063616C6C6572206973206E6F7420746865206F776E6572 PUSH1 0x44 DUP3 ADD MSTORE SWAP1 MLOAD SWAP1 DUP2 SWAP1 SUB PUSH1 0x64 ADD SWAP1 REVERT JUMPDEST PUSH1 0xD SLOAD PUSH1 0xFF AND ISZERO PUSH2 0x5A2 JUMPI PUSH1 0x0 DUP1 REVERT JUMPDEST POP PUSH1 0x7 DUP1 SLOAD PUSH1 0x1 PUSH1 0x1 PUSH1 0xA0 SHL SUB SWAP4 DUP5 AND PUSH32 0xFFFFFFFFFFFFFFFFFFFFFFFF0000000000000000000000000000000000000000 SWAP2 DUP3 AND OR SWAP1 SWAP2 SSTORE PUSH1 0x8 DUP1 SLOAD SWAP3 SWAP1 SWAP4 AND SWAP2 AND OR SWAP1 SSTORE PUSH1 0xD DUP1 SLOAD PUSH32 0xFFFFFFFFFFFFFFFFFFFFFFFFFFFFFFFFFFFFFFFFFFFFFFFFFFFFFFFFFFFFFF00 AND PUSH1 0x1 SWAP1 DUP2 OR SWAP1 SWAP2 SSTORE SWAP1 JUMP JUMPDEST CALLER PUSH1 0x0 SWAP1 DUP2 MSTORE PUSH1 0x1 PUSH1 0x20 DUP2 SWAP1 MSTORE PUSH1 0x40 DUP3 KECCAK256 ADD SLOAD DUP1 PUSH2 0x67D JUMPI PUSH1 0x40 DUP1 MLOAD PUSH3 0x461BCD PUSH1 0xE5 SHL DUP2 MSTORE PUSH1 0x20 PUSH1 0x4 DUP3 ADD MSTORE PUSH1 0x1F PUSH1 0x24 DUP3 ADD MSTORE PUSH32 0x53656E646572206973206E6F742064756520616E7920696E7465726573742E00 PUSH1 0x44 DUP3 ADD MSTORE SWAP1 MLOAD SWAP1 DUP2 SWAP1 SUB PUSH1 0x64 ADD SWAP1 REVERT JUMPDEST CALLER PUSH1 0x0 SWAP1 DUP2 MSTORE PUSH1 0x1 PUSH1 0x20 MSTORE PUSH1 0x40 DUP2 KECCAK256 DUP1 SLOAD PUSH1 0x2 SWAP1 SWAP2 ADD SLOAD SWAP1 SWAP2 SWAP1 PUSH2 0x6A2 SWAP1 NUMBER SWAP1 PUSH2 0x1221 JUMP JUMPDEST CALLER PUSH1 0x0 DUP2 DUP2 MSTORE PUSH1 0x1 PUSH1 0x20 MSTORE PUSH1 0x40 DUP2 KECCAK256 PUSH1 0x3 ADD SLOAD SWAP3 SWAP4 POP SWAP1 PUSH2 0x6C2 SWAP1 PUSH2 0x10D9 JUMP JUMPDEST SWAP1 POP PUSH2 0x2710 DUP2 LT PUSH2 0x72A JUMPI CALLER PUSH1 0x0 DUP2 DUP2 MSTORE PUSH1 0x1 PUSH1 0x20 DUP2 SWAP1 MSTORE PUSH1 0x40 DUP3 KECCAK256 DUP3 DUP2 SSTORE SWAP1 DUP2 ADD DUP3 SWAP1 SSTORE PUSH1 0x2 DUP2 ADD DUP3 SWAP1 SSTORE PUSH1 0x3 ADD SSTORE PUSH1 0x8 SLOAD PUSH2 0x70B SWAP2 PUSH1 0x1 PUSH1 0x1 PUSH1 0xA0 SHL SUB SWAP1 SWAP2 AND SWAP1 DUP8 PUSH2 0x1263 JUMP JUMPDEST PUSH1 0x9 SLOAD PUSH2 0x718 SWAP1 DUP6 PUSH2 0x1221 JUMP JUMPDEST PUSH1 0x9 SSTORE POP PUSH1 0x1 SWAP5 POP PUSH2 0x7F5 SWAP4 POP POP POP POP JUMP JUMPDEST PUSH1 0x0 PUSH2 0x73C PUSH2 0x2710 PUSH2 0x4D6 DUP9 DUP6 PUSH2 0x1148 JUMP JUMPDEST PUSH1 0x8 SLOAD SWAP1 SWAP2 POP PUSH2 0x756 SWAP1 PUSH1 0x1 PUSH1 0x1 PUSH1 0xA0 SHL SUB AND CALLER DUP4 PUSH2 0x1263 JUMP JUMPDEST PUSH1 0x0 PUSH2 0x768 PUSH2 0x2710 PUSH2 0x4D6 DUP9 DUP7 PUSH2 0x1148 JUMP JUMPDEST PUSH1 0x9 SLOAD SWAP1 SWAP2 POP PUSH2 0x778 SWAP1 DUP3 PUSH2 0x1221 JUMP JUMPDEST PUSH1 0x9 SSTORE PUSH1 0x40 DUP1 MLOAD PUSH1 0x80 DUP2 ADD SWAP1 SWAP2 MSTORE DUP1 PUSH2 0x791 DUP9 DUP5 PUSH2 0x1221 JUMP JUMPDEST DUP2 MSTORE PUSH1 0x20 ADD PUSH2 0x7A0 DUP10 DUP6 PUSH2 0x1221 JUMP JUMPDEST DUP2 MSTORE NUMBER PUSH1 0x20 DUP3 ADD MSTORE PUSH1 0x40 ADD PUSH2 0x7B5 DUP7 DUP9 PUSH2 0x1221 JUMP JUMPDEST SWAP1 MSTORE CALLER PUSH1 0x0 SWAP1 DUP2 MSTORE PUSH1 0x1 PUSH1 0x20 DUP2 DUP2 MSTORE PUSH1 0x40 SWAP3 DUP4 SWAP1 KECCAK256 DUP5 MLOAD DUP2 SSTORE SWAP1 DUP5 ADD MLOAD DUP2 DUP4 ADD SSTORE SWAP2 DUP4 ADD MLOAD PUSH1 0x2 DUP4 ADD SSTORE PUSH1 0x60 SWAP1 SWAP3 ADD MLOAD PUSH1 0x3 SWAP1 SWAP2 ADD SSTORE SWAP8 POP POP POP POP POP POP POP POP JUMPDEST SWAP1 JUMP JUMPDEST PUSH1 0x7 SLOAD PUSH1 0x40 DUP1 MLOAD PUSH32 0xD505ACCF00000000000000000000000000000000000000000000000000000000 DUP2 MSTORE CALLER PUSH1 0x4 DUP3 ADD MSTORE ADDRESS PUSH1 0x24 DUP3 ADD MSTORE PUSH1 0x44 DUP2 ADD DUP9 SWAP1 MSTORE PUSH1 0x64 DUP2 ADD DUP8 SWAP1 MSTORE PUSH1 0xFF DUP7 AND PUSH1 0x84 DUP3 ADD MSTORE PUSH1 0xA4 DUP2 ADD DUP6 SWAP1 MSTORE PUSH1 0xC4 DUP2 ADD DUP5 SWAP1 MSTORE SWAP1 MLOAD PUSH1 0x0 SWAP3 PUSH1 0x1 PUSH1 0x1 PUSH1 0xA0 SHL SUB AND SWAP2 PUSH4 0xD505ACCF SWAP2 PUSH1 0xE4 DUP1 DUP4 ADD SWAP3 DUP7 SWAP3 SWAP2 SWAP1 DUP3 SWAP1 SUB ADD DUP2 DUP4 DUP8 DUP1 EXTCODESIZE ISZERO DUP1 ISZERO PUSH2 0x887 JUMPI PUSH1 0x0 DUP1 REVERT JUMPDEST POP GAS CALL ISZERO DUP1 ISZERO PUSH2 0x89B JUMPI RETURNDATASIZE PUSH1 0x0 DUP1 RETURNDATACOPY RETURNDATASIZE PUSH1 0x0 REVERT JUMPDEST POP POP POP POP PUSH2 0x8A8 DUP7 PUSH2 0xD7F JUMP JUMPDEST POP PUSH1 0x1 SWAP7 SWAP6 POP POP POP POP POP POP JUMP JUMPDEST PUSH1 0xC SLOAD DUP2 JUMP JUMPDEST PUSH1 0x5 SLOAD PUSH1 0x1 PUSH1 0x1 PUSH1 0xA0 SHL SUB AND DUP2 JUMP JUMPDEST PUSH1 0x0 DUP1 SLOAD PUSH1 0x1 PUSH1 0x1 PUSH1 0xA0 SHL SUB AND CALLER EQ PUSH2 0x92A JUMPI PUSH1 0x40 DUP1 MLOAD PUSH3 0x461BCD PUSH1 0xE5 SHL DUP2 MSTORE PUSH1 0x20 PUSH1 0x4 DUP3 ADD DUP2 SWAP1 MSTORE PUSH1 0x24 DUP3 ADD MSTORE PUSH32 0x4F776E61626C653A2063616C6C6572206973206E6F7420746865206F776E6572 PUSH1 0x44 DUP3 ADD MSTORE SWAP1 MLOAD SWAP1 DUP2 SWAP1 SUB PUSH1 0x64 ADD SWAP1 REVERT JUMPDEST POP PUSH1 0x6 DUP1 SLOAD PUSH32 0xFFFFFFFFFFFFFFFFFFFFFFFF0000000000000000000000000000000000000000 SWAP1 DUP2 AND PUSH1 0x1 PUSH1 0x1 PUSH1 0xA0 SHL SUB SWAP8 DUP9 AND OR SWAP1 SWAP2 SSTORE PUSH1 0x5 DUP1 SLOAD DUP3 AND SWAP6 DUP8 AND SWAP6 SWAP1 SWAP6 OR SWAP1 SWAP5 SSTORE PUSH1 0xA DUP1 SLOAD DUP6 AND SWAP4 DUP7 AND SWAP4 SWAP1 SWAP4 OR SWAP1 SWAP3 SSTORE PUSH1 0xB DUP1 SLOAD SWAP1 SWAP4 AND SWAP4 AND SWAP3 SWAP1 SWAP3 OR SWAP1 SSTORE PUSH1 0xC SSTORE PUSH1 0x1 SWAP1 JUMP JUMPDEST PUSH1 0x7 SLOAD PUSH1 0x1 PUSH1 0x1 PUSH1 0xA0 SHL SUB AND DUP2 JUMP JUMPDEST PUSH1 0x0 SLOAD PUSH1 0x1 PUSH1 0x1 PUSH1 0xA0 SHL SUB AND CALLER EQ PUSH2 0xA07 JUMPI PUSH1 0x40 DUP1 MLOAD PUSH3 0x461BCD PUSH1 0xE5 SHL DUP2 MSTORE PUSH1 0x20 PUSH1 0x4 DUP3 ADD DUP2 SWAP1 MSTORE PUSH1 0x24 DUP3 ADD MSTORE PUSH32 0x4F776E61626C653A2063616C6C6572206973206E6F7420746865206F776E6572 PUSH1 0x44 DUP3 ADD MSTORE SWAP1 MLOAD SWAP1 DUP2 SWAP1 SUB PUSH1 0x64 ADD SWAP1 REVERT JUMPDEST PUSH1 0x0 DUP1 SLOAD PUSH1 0x40 MLOAD PUSH1 0x1 PUSH1 0x1 PUSH1 0xA0 SHL SUB SWAP1 SWAP2 AND SWAP1 PUSH32 0x8BE0079C531659141344CD1FD0A4F28419497F9722A3DAAFE3B4186F6B6457E0 SWAP1 DUP4 SWAP1 LOG3 PUSH1 0x0 DUP1 SLOAD PUSH32 0xFFFFFFFFFFFFFFFFFFFFFFFF0000000000000000000000000000000000000000 AND SWAP1 SSTORE JUMP JUMPDEST PUSH1 0x0 DUP1 SLOAD PUSH1 0x1 PUSH1 0x1 PUSH1 0xA0 SHL SUB AND CALLER EQ PUSH2 0xAC9 JUMPI PUSH1 0x40 DUP1 MLOAD PUSH3 0x461BCD PUSH1 0xE5 SHL DUP2 MSTORE PUSH1 0x20 PUSH1 0x4 DUP3 ADD DUP2 SWAP1 MSTORE PUSH1 0x24 DUP3 ADD MSTORE PUSH32 0x4F776E61626C653A2063616C6C6572206973206E6F7420746865206F776E6572 PUSH1 0x44 DUP3 ADD MSTORE SWAP1 MLOAD SWAP1 DUP2 SWAP1 SUB PUSH1 0x64 ADD SWAP1 REVERT JUMPDEST POP PUSH1 0x2 SWAP3 SWAP1 SWAP3 SSTORE PUSH1 0x3 SSTORE PUSH1 0x4 SSTORE PUSH1 0x1 SWAP1 JUMP JUMPDEST PUSH1 0x0 SLOAD PUSH1 0x1 PUSH1 0x1 PUSH1 0xA0 SHL SUB AND SWAP1 JUMP JUMPDEST PUSH1 0x8 SLOAD PUSH1 0x1 PUSH1 0x1 PUSH1 0xA0 SHL SUB AND DUP2 JUMP JUMPDEST PUSH1 0x0 DUP1 PUSH1 0x0 DUP1 PUSH2 0xB07 PUSH2 0x1B57 JUMP JUMPDEST POP POP POP POP PUSH1 0x1 PUSH1 0x1 PUSH1 0xA0 SHL SUB SWAP2 SWAP1 SWAP2 AND PUSH1 0x0 SWAP1 DUP2 MSTORE PUSH1 0x1 PUSH1 0x20 DUP2 DUP2 MSTORE PUSH1 0x40 SWAP3 DUP4 SWAP1 KECCAK256 DUP4 MLOAD PUSH1 0x80 DUP2 ADD DUP6 MSTORE DUP2 SLOAD DUP1 DUP3 MSTORE SWAP4 DUP3 ADD SLOAD SWAP3 DUP2 ADD DUP4 SWAP1 MSTORE PUSH1 0x2 DUP3 ADD SLOAD SWAP5 DUP2 ADD DUP6 SWAP1 MSTORE PUSH1 0x3 SWAP1 SWAP2 ADD SLOAD PUSH1 0x60 SWAP1 SWAP2 ADD DUP2 SWAP1 MSTORE SWAP2 SWAP5 SWAP1 SWAP4 POP JUMP JUMPDEST PUSH1 0x6 SLOAD PUSH1 0x1 PUSH1 0x1 PUSH1 0xA0 SHL SUB AND DUP2 JUMP JUMPDEST PUSH1 0x3 SLOAD DUP2 JUMP JUMPDEST PUSH1 0x2 SLOAD DUP2 JUMP JUMPDEST PUSH1 0xB SLOAD PUSH1 0x1 PUSH1 0x1 PUSH1 0xA0 SHL SUB AND DUP2 JUMP JUMPDEST PUSH1 0x6 SLOAD PUSH1 0x7 SLOAD PUSH1 0x40 DUP1 MLOAD PUSH32 0xFB452DC100000000000000000000000000000000000000000000000000000000 DUP2 MSTORE PUSH1 0x1 PUSH1 0x1 PUSH1 0xA0 SHL SUB SWAP3 DUP4 AND PUSH1 0x4 DUP3 ADD MSTORE PUSH1 0x24 DUP2 ADD DUP6 SWAP1 MSTORE SWAP1 MLOAD PUSH1 0x0 SWAP4 DUP5 SWAP4 PUSH2 0xC3B SWAP4 PUSH4 0x3B9ACA00 SWAP4 SWAP2 SWAP1 SWAP3 AND SWAP2 PUSH4 0xFB452DC1 SWAP2 PUSH1 0x44 DUP1 DUP4 ADD SWAP3 PUSH1 0x20 SWAP3 SWAP2 SWAP1 DUP3 SWAP1 SUB ADD DUP2 DUP7 DUP1 EXTCODESIZE ISZERO DUP1 ISZERO PUSH2 0xC09 JUMPI PUSH1 0x0 DUP1 REVERT JUMPDEST POP GAS STATICCALL ISZERO DUP1 ISZERO PUSH2 0xC1D JUMPI RETURNDATASIZE PUSH1 0x0 DUP1 RETURNDATACOPY RETURNDATASIZE PUSH1 0x0 REVERT JUMPDEST POP POP POP POP PUSH1 0x40 MLOAD RETURNDATASIZE PUSH1 0x20 DUP2 LT ISZERO PUSH2 0xC33 JUMPI PUSH1 0x0 DUP1 REVERT JUMPDEST POP MLOAD SWAP1 PUSH2 0x11A1 JUMP JUMPDEST SWAP1 POP PUSH2 0xC46 DUP2 PUSH2 0x12E8 JUMP JUMPDEST SWAP4 SWAP3 POP POP POP JUMP JUMPDEST PUSH1 0xA SLOAD PUSH1 0x1 PUSH1 0x1 PUSH1 0xA0 SHL SUB AND DUP2 JUMP JUMPDEST PUSH1 0x4 SLOAD DUP2 JUMP JUMPDEST PUSH1 0x0 SLOAD PUSH1 0x1 PUSH1 0x1 PUSH1 0xA0 SHL SUB AND CALLER EQ PUSH2 0xCC1 JUMPI PUSH1 0x40 DUP1 MLOAD PUSH3 0x461BCD PUSH1 0xE5 SHL DUP2 MSTORE PUSH1 0x20 PUSH1 0x4 DUP3 ADD DUP2 SWAP1 MSTORE PUSH1 0x24 DUP3 ADD MSTORE PUSH32 0x4F776E61626C653A2063616C6C6572206973206E6F7420746865206F776E6572 PUSH1 0x44 DUP3 ADD MSTORE SWAP1 MLOAD SWAP1 DUP2 SWAP1 SUB PUSH1 0x64 ADD SWAP1 REVERT JUMPDEST PUSH1 0x1 PUSH1 0x1 PUSH1 0xA0 SHL SUB DUP2 AND PUSH2 0xD06 JUMPI PUSH1 0x40 MLOAD PUSH3 0x461BCD PUSH1 0xE5 SHL DUP2 MSTORE PUSH1 0x4 ADD DUP1 DUP1 PUSH1 0x20 ADD DUP3 DUP2 SUB DUP3 MSTORE PUSH1 0x26 DUP2 MSTORE PUSH1 0x20 ADD DUP1 PUSH2 0x1B92 PUSH1 0x26 SWAP2 CODECOPY PUSH1 0x40 ADD SWAP2 POP POP PUSH1 0x40 MLOAD DUP1 SWAP2 SUB SWAP1 REVERT JUMPDEST PUSH1 0x0 DUP1 SLOAD PUSH1 0x40 MLOAD PUSH1 0x1 PUSH1 0x1 PUSH1 0xA0 SHL SUB DUP1 DUP6 AND SWAP4 SWAP3 AND SWAP2 PUSH32 0x8BE0079C531659141344CD1FD0A4F28419497F9722A3DAAFE3B4186F6B6457E0 SWAP2 LOG3 PUSH1 0x0 DUP1 SLOAD PUSH32 0xFFFFFFFFFFFFFFFFFFFFFFFF0000000000000000000000000000000000000000 AND PUSH1 0x1 PUSH1 0x1 PUSH1 0xA0 SHL SUB SWAP3 SWAP1 SWAP3 AND SWAP2 SWAP1 SWAP2 OR SWAP1 SSTORE JUMP JUMPDEST PUSH1 0x9 SLOAD DUP2 JUMP JUMPDEST PUSH1 0x7 SLOAD PUSH1 0x0 SWAP1 PUSH2 0xD9A SWAP1 PUSH1 0x1 PUSH1 0x1 PUSH1 0xA0 SHL SUB AND CALLER ADDRESS DUP6 PUSH2 0x130E JUMP JUMPDEST PUSH1 0x6 SLOAD PUSH1 0x7 SLOAD PUSH1 0x40 DUP1 MLOAD PUSH32 0xFB452DC100000000000000000000000000000000000000000000000000000000 DUP2 MSTORE PUSH1 0x1 PUSH1 0x1 PUSH1 0xA0 SHL SUB SWAP3 DUP4 AND PUSH1 0x4 DUP3 ADD MSTORE PUSH1 0x24 DUP2 ADD DUP7 SWAP1 MSTORE SWAP1 MLOAD PUSH1 0x0 SWAP4 PUSH2 0xE16 SWAP4 PUSH4 0x3B9ACA00 SWAP4 SWAP2 AND SWAP2 PUSH4 0xFB452DC1 SWAP2 PUSH1 0x44 DUP1 DUP3 ADD SWAP3 PUSH1 0x20 SWAP3 SWAP1 SWAP2 SWAP1 DUP3 SWAP1 SUB ADD DUP2 DUP7 DUP1 EXTCODESIZE ISZERO DUP1 ISZERO PUSH2 0xC09 JUMPI PUSH1 0x0 DUP1 REVERT JUMPDEST SWAP1 POP PUSH1 0x0 PUSH2 0xE23 DUP3 PUSH2 0x12E8 JUMP JUMPDEST SWAP1 POP PUSH3 0x989680 DUP2 LT ISZERO PUSH2 0xE7D JUMPI PUSH1 0x40 DUP1 MLOAD PUSH3 0x461BCD PUSH1 0xE5 SHL DUP2 MSTORE PUSH1 0x20 PUSH1 0x4 DUP3 ADD MSTORE PUSH1 0xE PUSH1 0x24 DUP3 ADD MSTORE PUSH32 0x426F6E6420746F6F20736D616C6C000000000000000000000000000000000000 PUSH1 0x44 DUP3 ADD MSTORE SWAP1 MLOAD SWAP1 DUP2 SWAP1 SUB PUSH1 0x64 ADD SWAP1 REVERT JUMPDEST PUSH1 0x9 SLOAD PUSH2 0xE8A SWAP1 DUP4 PUSH2 0x139C JUMP JUMPDEST PUSH1 0x9 SSTORE PUSH1 0x0 PUSH2 0xE99 DUP4 DUP4 PUSH2 0x1221 JUMP JUMPDEST SWAP1 POP PUSH1 0x0 PUSH2 0xEB1 PUSH2 0xEAC DUP4 PUSH1 0xC SLOAD PUSH2 0x13F6 JUMP JUMPDEST PUSH2 0x15B7 JUMP JUMPDEST PUSH1 0x7 SLOAD PUSH1 0x5 SLOAD PUSH1 0x40 DUP1 MLOAD PUSH32 0x95EA7B300000000000000000000000000000000000000000000000000000000 DUP2 MSTORE PUSH1 0x1 PUSH1 0x1 PUSH1 0xA0 SHL SUB SWAP3 DUP4 AND PUSH1 0x4 DUP3 ADD MSTORE PUSH1 0x24 DUP2 ADD DUP12 SWAP1 MSTORE SWAP1 MLOAD PUSH14 0xFFFFFFFFFFFFFFFFFFFFFFFFFFFF SWAP5 SWAP1 SWAP5 AND SWAP5 POP SWAP2 AND SWAP2 PUSH4 0x95EA7B3 SWAP2 PUSH1 0x44 DUP1 DUP3 ADD SWAP3 PUSH1 0x20 SWAP3 SWAP1 SWAP2 SWAP1 DUP3 SWAP1 SUB ADD DUP2 PUSH1 0x0 DUP8 DUP1 EXTCODESIZE ISZERO DUP1 ISZERO PUSH2 0xF37 JUMPI PUSH1 0x0 DUP1 REVERT JUMPDEST POP GAS CALL ISZERO DUP1 ISZERO PUSH2 0xF4B JUMPI RETURNDATASIZE PUSH1 0x0 DUP1 RETURNDATACOPY RETURNDATASIZE PUSH1 0x0 REVERT JUMPDEST POP POP POP POP PUSH1 0x40 MLOAD RETURNDATASIZE PUSH1 0x20 DUP2 LT ISZERO PUSH2 0xF61 JUMPI PUSH1 0x0 DUP1 REVERT JUMPDEST POP POP PUSH1 0x5 SLOAD PUSH1 0x40 DUP1 MLOAD PUSH32 0x54B6DCED00000000000000000000000000000000000000000000000000000000 DUP2 MSTORE PUSH1 0x4 DUP2 ADD DUP10 SWAP1 MSTORE SWAP1 MLOAD PUSH1 0x1 PUSH1 0x1 PUSH1 0xA0 SHL SUB SWAP1 SWAP3 AND SWAP2 PUSH4 0x54B6DCED SWAP2 PUSH1 0x24 DUP1 DUP3 ADD SWAP3 PUSH1 0x20 SWAP3 SWAP1 SWAP2 SWAP1 DUP3 SWAP1 SUB ADD DUP2 PUSH1 0x0 DUP8 DUP1 EXTCODESIZE ISZERO DUP1 ISZERO PUSH2 0xFCA JUMPI PUSH1 0x0 DUP1 REVERT JUMPDEST POP GAS CALL ISZERO DUP1 ISZERO PUSH2 0xFDE JUMPI RETURNDATASIZE PUSH1 0x0 DUP1 RETURNDATACOPY RETURNDATASIZE PUSH1 0x0 REVERT JUMPDEST POP POP POP POP PUSH1 0x40 MLOAD RETURNDATASIZE PUSH1 0x20 DUP2 LT ISZERO PUSH2 0xFF4 JUMPI PUSH1 0x0 DUP1 REVERT JUMPDEST POP POP PUSH1 0xA SLOAD PUSH2 0x1023 SWAP1 PUSH1 0x1 PUSH1 0x1 PUSH1 0xA0 SHL SUB AND PUSH2 0x1010 DUP5 DUP5 PUSH2 0x1221 JUMP JUMPDEST PUSH1 0x8 SLOAD PUSH1 0x1 PUSH1 0x1 PUSH1 0xA0 SHL SUB AND SWAP2 SWAP1 PUSH2 0x1263 JUMP JUMPDEST PUSH1 0xB SLOAD PUSH1 0x8 SLOAD PUSH2 0x1040 SWAP2 PUSH1 0x1 PUSH1 0x1 PUSH1 0xA0 SHL SUB SWAP2 DUP3 AND SWAP2 AND DUP4 PUSH2 0x1263 JUMP JUMPDEST PUSH1 0x40 DUP1 MLOAD PUSH1 0x80 DUP2 ADD DUP3 MSTORE CALLER PUSH1 0x0 SWAP1 DUP2 MSTORE PUSH1 0x1 PUSH1 0x20 MSTORE SWAP2 SWAP1 SWAP2 KECCAK256 SLOAD DUP2 SWAP1 PUSH2 0x1066 SWAP1 DUP8 PUSH2 0x139C JUMP JUMPDEST DUP2 MSTORE CALLER PUSH1 0x0 SWAP1 DUP2 MSTORE PUSH1 0x1 PUSH1 0x20 DUP2 DUP2 MSTORE PUSH1 0x40 SWAP1 SWAP3 KECCAK256 ADD SLOAD SWAP2 ADD SWAP1 PUSH2 0x1089 SWAP1 DUP7 PUSH2 0x139C JUMP JUMPDEST DUP2 MSTORE NUMBER PUSH1 0x20 DUP1 DUP4 ADD SWAP2 SWAP1 SWAP2 MSTORE PUSH1 0x3 DUP1 SLOAD PUSH1 0x40 SWAP4 DUP5 ADD MSTORE CALLER PUSH1 0x0 SWAP1 DUP2 MSTORE PUSH1 0x1 DUP1 DUP5 MSTORE SWAP1 DUP5 SWAP1 KECCAK256 DUP6 MLOAD DUP2 SSTORE SWAP3 DUP6 ADD MLOAD DUP4 DUP3 ADD SSTORE SWAP3 DUP5 ADD MLOAD PUSH1 0x2 DUP4 ADD SSTORE PUSH1 0x60 SWAP1 SWAP4 ADD MLOAD SWAP3 ADD SWAP2 SWAP1 SWAP2 SSTORE SWAP7 SWAP6 POP POP POP POP POP POP JUMP JUMPDEST PUSH1 0x1 PUSH1 0x1 PUSH1 0xA0 SHL SUB DUP2 AND PUSH1 0x0 SWAP1 DUP2 MSTORE PUSH1 0x1 PUSH1 0x20 MSTORE PUSH1 0x40 DUP2 KECCAK256 PUSH1 0x2 ADD SLOAD DUP2 SWAP1 PUSH2 0x1102 SWAP1 NUMBER SWAP1 PUSH2 0x1221 JUMP JUMPDEST PUSH1 0x1 PUSH1 0x1 PUSH1 0xA0 SHL SUB DUP5 AND PUSH1 0x0 SWAP1 DUP2 MSTORE PUSH1 0x1 PUSH1 0x20 MSTORE PUSH1 0x40 SWAP1 KECCAK256 PUSH1 0x3 ADD SLOAD SWAP1 SWAP2 POP DUP1 ISZERO PUSH2 0x113E JUMPI PUSH2 0x1137 DUP2 PUSH2 0x4D6 DUP5 PUSH2 0x2710 PUSH2 0x1148 JUMP JUMPDEST SWAP3 POP PUSH2 0x4EB JUMP JUMPDEST POP PUSH1 0x0 SWAP4 SWAP3 POP POP POP JUMP JUMPDEST PUSH1 0x0 DUP3 PUSH2 0x1157 JUMPI POP PUSH1 0x0 PUSH2 0x494 JUMP JUMPDEST DUP3 DUP3 MUL DUP3 DUP5 DUP3 DUP2 PUSH2 0x1164 JUMPI INVALID JUMPDEST DIV EQ PUSH2 0xC46 JUMPI PUSH1 0x40 MLOAD PUSH3 0x461BCD PUSH1 0xE5 SHL DUP2 MSTORE PUSH1 0x4 ADD DUP1 DUP1 PUSH1 0x20 ADD DUP3 DUP2 SUB DUP3 MSTORE PUSH1 0x21 DUP2 MSTORE PUSH1 0x20 ADD DUP1 PUSH2 0x1BDE PUSH1 0x21 SWAP2 CODECOPY PUSH1 0x40 ADD SWAP2 POP POP PUSH1 0x40 MLOAD DUP1 SWAP2 SUB SWAP1 REVERT JUMPDEST PUSH1 0x0 PUSH2 0xC46 DUP4 DUP4 PUSH1 0x40 MLOAD DUP1 PUSH1 0x40 ADD PUSH1 0x40 MSTORE DUP1 PUSH1 0x1A DUP2 MSTORE PUSH1 0x20 ADD PUSH32 0x536166654D6174683A206469766973696F6E206279207A65726F000000000000 DUP2 MSTORE POP PUSH2 0x15CE JUMP JUMPDEST PUSH1 0x0 PUSH2 0x120E PUSH3 0x989680 PUSH2 0x4D6 PUSH4 0x3B9ACA00 PUSH2 0x1208 PUSH2 0x11FF PUSH2 0x1670 JUMP JUMPDEST PUSH1 0x2 SLOAD SWAP1 PUSH2 0x1148 JUMP JUMPDEST SWAP1 PUSH2 0x139C JUMP JUMPDEST SWAP1 POP PUSH1 0x4 SLOAD DUP2 LT ISZERO PUSH2 0x7F5 JUMPI POP PUSH1 0x4 SLOAD SWAP1 JUMP JUMPDEST PUSH1 0x0 PUSH2 0xC46 DUP4 DUP4 PUSH1 0x40 MLOAD DUP1 PUSH1 0x40 ADD PUSH1 0x40 MSTORE DUP1 PUSH1 0x1E DUP2 MSTORE PUSH1 0x20 ADD PUSH32 0x536166654D6174683A207375627472616374696F6E206F766572666C6F770000 DUP2 MSTORE POP PUSH2 0x171C JUMP JUMPDEST PUSH1 0x40 DUP1 MLOAD PUSH1 0x1 PUSH1 0x1 PUSH1 0xA0 SHL SUB DUP5 AND PUSH1 0x24 DUP3 ADD MSTORE PUSH1 0x44 DUP1 DUP3 ADD DUP5 SWAP1 MSTORE DUP3 MLOAD DUP1 DUP4 SUB SWAP1 SWAP2 ADD DUP2 MSTORE PUSH1 0x64 SWAP1 SWAP2 ADD SWAP1 SWAP2 MSTORE PUSH1 0x20 DUP2 ADD DUP1 MLOAD PUSH28 0xFFFFFFFFFFFFFFFFFFFFFFFFFFFFFFFFFFFFFFFFFFFFFFFFFFFFFFFF AND PUSH32 0xA9059CBB00000000000000000000000000000000000000000000000000000000 OR SWAP1 MSTORE PUSH2 0x12E3 SWAP1 DUP5 SWAP1 PUSH2 0x1776 JUMP JUMPDEST POP POP POP JUMP JUMPDEST PUSH1 0x0 PUSH2 0x494 PUSH7 0x2386F26FC10000 PUSH2 0x4D6 PUSH2 0x1309 DUP6 PUSH2 0x1304 PUSH2 0x11E3 JUMP JUMPDEST PUSH2 0x13F6 JUMP JUMPDEST PUSH2 0x1827 JUMP JUMPDEST PUSH1 0x40 DUP1 MLOAD PUSH1 0x1 PUSH1 0x1 PUSH1 0xA0 SHL SUB DUP1 DUP7 AND PUSH1 0x24 DUP4 ADD MSTORE DUP5 AND PUSH1 0x44 DUP3 ADD MSTORE PUSH1 0x64 DUP1 DUP3 ADD DUP5 SWAP1 MSTORE DUP3 MLOAD DUP1 DUP4 SUB SWAP1 SWAP2 ADD DUP2 MSTORE PUSH1 0x84 SWAP1 SWAP2 ADD SWAP1 SWAP2 MSTORE PUSH1 0x20 DUP2 ADD DUP1 MLOAD PUSH28 0xFFFFFFFFFFFFFFFFFFFFFFFFFFFFFFFFFFFFFFFFFFFFFFFFFFFFFFFF AND PUSH32 0x23B872DD00000000000000000000000000000000000000000000000000000000 OR SWAP1 MSTORE PUSH2 0x1396 SWAP1 DUP6 SWAP1 PUSH2 0x1776 JUMP JUMPDEST POP POP POP POP JUMP JUMPDEST PUSH1 0x0 DUP3 DUP3 ADD DUP4 DUP2 LT ISZERO PUSH2 0xC46 JUMPI PUSH1 0x40 DUP1 MLOAD PUSH3 0x461BCD PUSH1 0xE5 SHL DUP2 MSTORE PUSH1 0x20 PUSH1 0x4 DUP3 ADD MSTORE PUSH1 0x1B PUSH1 0x24 DUP3 ADD MSTORE PUSH32 0x536166654D6174683A206164646974696F6E206F766572666C6F770000000000 PUSH1 0x44 DUP3 ADD MSTORE SWAP1 MLOAD SWAP1 DUP2 SWAP1 SUB PUSH1 0x64 ADD SWAP1 REVERT JUMPDEST PUSH2 0x13FE PUSH2 0x1B7F JUMP JUMPDEST PUSH1 0x0 DUP3 GT PUSH2 0x143D JUMPI PUSH1 0x40 MLOAD PUSH3 0x461BCD PUSH1 0xE5 SHL DUP2 MSTORE PUSH1 0x4 ADD DUP1 DUP1 PUSH1 0x20 ADD DUP3 DUP2 SUB DUP3 MSTORE PUSH1 0x26 DUP2 MSTORE PUSH1 0x20 ADD DUP1 PUSH2 0x1BB8 PUSH1 0x26 SWAP2 CODECOPY PUSH1 0x40 ADD SWAP2 POP POP PUSH1 0x40 MLOAD DUP1 SWAP2 SUB SWAP1 REVERT JUMPDEST DUP3 PUSH2 0x1457 JUMPI POP PUSH1 0x40 DUP1 MLOAD PUSH1 0x20 DUP2 ADD SWAP1 SWAP2 MSTORE PUSH1 0x0 DUP2 MSTORE PUSH2 0x494 JUMP JUMPDEST PUSH18 0xFFFFFFFFFFFFFFFFFFFFFFFFFFFFFFFFFFFF DUP4 GT PUSH2 0x1528 JUMPI PUSH1 0x0 DUP3 PUSH1 0x70 DUP6 SWAP1 SHL DUP2 PUSH2 0x147F JUMPI INVALID JUMPDEST DIV SWAP1 POP PUSH28 0xFFFFFFFFFFFFFFFFFFFFFFFFFFFFFFFFFFFFFFFFFFFFFFFFFFFFFFFF DUP2 GT ISZERO PUSH2 0x14F3 JUMPI PUSH1 0x40 DUP1 MLOAD PUSH3 0x461BCD PUSH1 0xE5 SHL DUP2 MSTORE PUSH1 0x20 PUSH1 0x4 DUP3 ADD MSTORE PUSH1 0x1E PUSH1 0x24 DUP3 ADD MSTORE PUSH32 0x4669786564506F696E743A3A6672616374696F6E3A206F766572666C6F770000 PUSH1 0x44 DUP3 ADD MSTORE SWAP1 MLOAD SWAP1 DUP2 SWAP1 SUB PUSH1 0x64 ADD SWAP1 REVERT JUMPDEST PUSH1 0x40 MLOAD DUP1 PUSH1 0x20 ADD PUSH1 0x40 MSTORE DUP1 DUP3 PUSH28 0xFFFFFFFFFFFFFFFFFFFFFFFFFFFFFFFFFFFFFFFFFFFFFFFFFFFFFFFF AND DUP2 MSTORE POP SWAP2 POP POP PUSH2 0x494 JUMP JUMPDEST PUSH1 0x0 PUSH2 0x1544 DUP5 PUSH15 0x10000000000000000000000000000 DUP6 PUSH2 0x1854 JUMP JUMPDEST SWAP1 POP PUSH28 0xFFFFFFFFFFFFFFFFFFFFFFFFFFFFFFFFFFFFFFFFFFFFFFFFFFFFFFFF DUP2 GT ISZERO PUSH2 0x14F3 JUMPI PUSH1 0x40 DUP1 MLOAD PUSH3 0x461BCD PUSH1 0xE5 SHL DUP2 MSTORE PUSH1 0x20 PUSH1 0x4 DUP3 ADD MSTORE PUSH1 0x1E PUSH1 0x24 DUP3 ADD MSTORE PUSH32 0x4669786564506F696E743A3A6672616374696F6E3A206F766572666C6F770000 PUSH1 0x44 DUP3 ADD MSTORE SWAP1 MLOAD SWAP1 DUP2 SWAP1 SUB PUSH1 0x64 ADD SWAP1 REVERT JUMPDEST MLOAD PUSH1 0x70 SHR PUSH14 0xFFFFFFFFFFFFFFFFFFFFFFFFFFFF AND SWAP1 JUMP JUMPDEST PUSH1 0x0 DUP2 DUP4 PUSH2 0x165A JUMPI PUSH1 0x40 MLOAD PUSH3 0x461BCD PUSH1 0xE5 SHL DUP2 MSTORE PUSH1 0x4 ADD DUP1 DUP1 PUSH1 0x20 ADD DUP3 DUP2 SUB DUP3 MSTORE DUP4 DUP2 DUP2 MLOAD DUP2 MSTORE PUSH1 0x20 ADD SWAP2 POP DUP1 MLOAD SWAP1 PUSH1 0x20 ADD SWAP1 DUP1 DUP4 DUP4 PUSH1 0x0 JUMPDEST DUP4 DUP2 LT ISZERO PUSH2 0x161F JUMPI DUP2 DUP2 ADD MLOAD DUP4 DUP3 ADD MSTORE PUSH1 0x20 ADD PUSH2 0x1607 JUMP JUMPDEST POP POP POP POP SWAP1 POP SWAP1 DUP2 ADD SWAP1 PUSH1 0x1F AND DUP1 ISZERO PUSH2 0x164C JUMPI DUP1 DUP3 SUB DUP1 MLOAD PUSH1 0x1 DUP4 PUSH1 0x20 SUB PUSH2 0x100 EXP SUB NOT AND DUP2 MSTORE PUSH1 0x20 ADD SWAP2 POP JUMPDEST POP SWAP3 POP POP POP PUSH1 0x40 MLOAD DUP1 SWAP2 SUB SWAP1 REVERT JUMPDEST POP PUSH1 0x0 DUP4 DUP6 DUP2 PUSH2 0x1666 JUMPI INVALID JUMPDEST DIV SWAP6 SWAP5 POP POP POP POP POP JUMP JUMPDEST PUSH1 0x0 PUSH2 0x505 PUSH8 0xDE0B6B3A7640000 PUSH2 0x4D6 PUSH2 0x1309 PUSH2 0x169D PUSH4 0x3B9ACA00 PUSH1 0x9 SLOAD PUSH2 0x1148 SWAP1 SWAP2 SWAP1 PUSH4 0xFFFFFFFF AND JUMP JUMPDEST PUSH1 0x8 PUSH1 0x0 SWAP1 SLOAD SWAP1 PUSH2 0x100 EXP SWAP1 DIV PUSH1 0x1 PUSH1 0x1 PUSH1 0xA0 SHL SUB AND PUSH1 0x1 PUSH1 0x1 PUSH1 0xA0 SHL SUB AND PUSH4 0x18160DDD PUSH1 0x40 MLOAD DUP2 PUSH4 0xFFFFFFFF AND PUSH1 0xE0 SHL DUP2 MSTORE PUSH1 0x4 ADD PUSH1 0x20 PUSH1 0x40 MLOAD DUP1 DUP4 SUB DUP2 DUP7 DUP1 EXTCODESIZE ISZERO DUP1 ISZERO PUSH2 0x16EB JUMPI PUSH1 0x0 DUP1 REVERT JUMPDEST POP GAS STATICCALL ISZERO DUP1 ISZERO PUSH2 0x16FF JUMPI RETURNDATASIZE PUSH1 0x0 DUP1 RETURNDATACOPY RETURNDATASIZE PUSH1 0x0 REVERT JUMPDEST POP POP POP POP PUSH1 0x40 MLOAD RETURNDATASIZE PUSH1 0x20 DUP2 LT ISZERO PUSH2 0x1715 JUMPI PUSH1 0x0 DUP1 REVERT JUMPDEST POP MLOAD PUSH2 0x13F6 JUMP JUMPDEST PUSH1 0x0 DUP2 DUP5 DUP5 GT ISZERO PUSH2 0x176E JUMPI PUSH1 0x40 MLOAD PUSH3 0x461BCD PUSH1 0xE5 SHL DUP2 MSTORE PUSH1 0x20 PUSH1 0x4 DUP3 ADD DUP2 DUP2 MSTORE DUP4 MLOAD PUSH1 0x24 DUP5 ADD MSTORE DUP4 MLOAD SWAP1 SWAP3 DUP4 SWAP3 PUSH1 0x44 SWAP1 SWAP2 ADD SWAP2 SWAP1 DUP6 ADD SWAP1 DUP1 DUP4 DUP4 PUSH1 0x0 DUP4 ISZERO PUSH2 0x161F JUMPI DUP2 DUP2 ADD MLOAD DUP4 DUP3 ADD MSTORE PUSH1 0x20 ADD PUSH2 0x1607 JUMP JUMPDEST POP POP POP SWAP1 SUB SWAP1 JUMP JUMPDEST PUSH1 0x60 PUSH2 0x17CB DUP3 PUSH1 0x40 MLOAD DUP1 PUSH1 0x40 ADD PUSH1 0x40 MSTORE DUP1 PUSH1 0x20 DUP2 MSTORE PUSH1 0x20 ADD PUSH32 0x5361666545524332303A206C6F772D6C6576656C2063616C6C206661696C6564 DUP2 MSTORE POP DUP6 PUSH1 0x1 PUSH1 0x1 PUSH1 0xA0 SHL SUB AND PUSH2 0x18F4 SWAP1 SWAP3 SWAP2 SWAP1 PUSH4 0xFFFFFFFF AND JUMP JUMPDEST DUP1 MLOAD SWAP1 SWAP2 POP ISZERO PUSH2 0x12E3 JUMPI DUP1 DUP1 PUSH1 0x20 ADD SWAP1 MLOAD PUSH1 0x20 DUP2 LT ISZERO PUSH2 0x17EA JUMPI PUSH1 0x0 DUP1 REVERT JUMPDEST POP MLOAD PUSH2 0x12E3 JUMPI PUSH1 0x40 MLOAD PUSH3 0x461BCD PUSH1 0xE5 SHL DUP2 MSTORE PUSH1 0x4 ADD DUP1 DUP1 PUSH1 0x20 ADD DUP3 DUP2 SUB DUP3 MSTORE PUSH1 0x2A DUP2 MSTORE PUSH1 0x20 ADD DUP1 PUSH2 0x1BFF PUSH1 0x2A SWAP2 CODECOPY PUSH1 0x40 ADD SWAP2 POP POP PUSH1 0x40 MLOAD DUP1 SWAP2 SUB SWAP1 REVERT JUMPDEST MLOAD PUSH7 0x12725DD1D243AB PUSH28 0xFFFFFFFFFFFFFFFFFFFFFFFFFFFFFFFFFFFFFFFFFFFFFFFFFFFFFFFF SWAP1 SWAP2 AND DIV SWAP1 JUMP JUMPDEST PUSH1 0x0 DUP1 PUSH1 0x0 PUSH2 0x1863 DUP7 DUP7 PUSH2 0x190B JUMP JUMPDEST SWAP2 POP SWAP2 POP PUSH1 0x0 DUP5 DUP1 PUSH2 0x1871 JUMPI INVALID JUMPDEST DUP7 DUP9 MULMOD SWAP1 POP DUP3 DUP2 GT ISZERO PUSH2 0x1885 JUMPI PUSH1 0x1 DUP3 SUB SWAP2 POP JUMPDEST DUP1 DUP4 SUB SWAP3 POP DUP5 DUP3 LT PUSH2 0x18DE JUMPI PUSH1 0x40 DUP1 MLOAD PUSH3 0x461BCD PUSH1 0xE5 SHL DUP2 MSTORE PUSH1 0x20 PUSH1 0x4 DUP3 ADD MSTORE PUSH1 0x1A PUSH1 0x24 DUP3 ADD MSTORE PUSH32 0x46756C6C4D6174683A3A6D756C4469763A206F766572666C6F77000000000000 PUSH1 0x44 DUP3 ADD MSTORE SWAP1 MLOAD SWAP1 DUP2 SWAP1 SUB PUSH1 0x64 ADD SWAP1 REVERT JUMPDEST PUSH2 0x18E9 DUP4 DUP4 DUP8 PUSH2 0x1956 JUMP JUMPDEST SWAP8 SWAP7 POP POP POP POP POP POP POP JUMP JUMPDEST PUSH1 0x60 PUSH2 0x1903 DUP5 DUP5 PUSH1 0x0 DUP6 PUSH2 0x19C6 JUMP JUMPDEST SWAP5 SWAP4 POP POP POP POP JUMP JUMPDEST PUSH1 0x0 DUP1 DUP1 PUSH32 0xFFFFFFFFFFFFFFFFFFFFFFFFFFFFFFFFFFFFFFFFFFFFFFFFFFFFFFFFFFFFFFFF DUP5 DUP7 MULMOD SWAP1 POP DUP4 DUP6 MUL SWAP3 POP DUP3 DUP2 SUB SWAP2 POP DUP3 DUP2 LT ISZERO PUSH2 0x194E JUMPI PUSH1 0x1 DUP3 SUB SWAP2 POP JUMPDEST POP SWAP3 POP SWAP3 SWAP1 POP JUMP JUMPDEST PUSH1 0x0 DUP2 DUP2 SUB DUP3 AND DUP1 DUP4 DUP2 PUSH2 0x1966 JUMPI INVALID JUMPDEST DIV SWAP3 POP DUP1 DUP6 DUP2 PUSH2 0x1972 JUMPI INVALID JUMPDEST DIV SWAP5 POP DUP1 DUP2 PUSH1 0x0 SUB DUP2 PUSH2 0x1981 JUMPI INVALID JUMPDEST PUSH1 0x2 DUP6 DUP2 SUB DUP1 DUP8 MUL DUP3 SUB MUL DUP1 DUP8 MUL DUP3 SUB MUL DUP1 DUP8 MUL DUP3 SUB MUL DUP1 DUP8 MUL DUP3 SUB MUL DUP1 DUP8 MUL DUP3 SUB MUL DUP1 DUP8 MUL DUP3 SUB MUL SWAP6 DUP7 MUL SWAP1 SUB SWAP1 SWAP5 MUL SWAP4 DIV PUSH1 0x1 ADD SWAP4 SWAP1 SWAP4 MUL SWAP4 SWAP1 SWAP4 ADD MUL SWAP3 SWAP2 POP POP JUMP JUMPDEST PUSH1 0x60 PUSH2 0x19D1 DUP6 PUSH2 0x1B51 JUMP JUMPDEST PUSH2 0x1A22 JUMPI PUSH1 0x40 DUP1 MLOAD PUSH3 0x461BCD PUSH1 0xE5 SHL DUP2 MSTORE PUSH1 0x20 PUSH1 0x4 DUP3 ADD MSTORE PUSH1 0x1D PUSH1 0x24 DUP3 ADD MSTORE PUSH32 0x416464726573733A2063616C6C20746F206E6F6E2D636F6E7472616374000000 PUSH1 0x44 DUP3 ADD MSTORE SWAP1 MLOAD SWAP1 DUP2 SWAP1 SUB PUSH1 0x64 ADD SWAP1 REVERT JUMPDEST PUSH1 0x0 PUSH1 0x60 DUP7 PUSH1 0x1 PUSH1 0x1 PUSH1 0xA0 SHL SUB AND DUP6 DUP8 PUSH1 0x40 MLOAD DUP1 DUP3 DUP1 MLOAD SWAP1 PUSH1 0x20 ADD SWAP1 DUP1 DUP4 DUP4 JUMPDEST PUSH1 0x20 DUP4 LT PUSH2 0x1A7F JUMPI DUP1 MLOAD DUP3 MSTORE PUSH32 0xFFFFFFFFFFFFFFFFFFFFFFFFFFFFFFFFFFFFFFFFFFFFFFFFFFFFFFFFFFFFFFE0 SWAP1 SWAP3 ADD SWAP2 PUSH1 0x20 SWAP2 DUP3 ADD SWAP2 ADD PUSH2 0x1A42 JUMP JUMPDEST PUSH1 0x1 DUP4 PUSH1 0x20 SUB PUSH2 0x100 EXP SUB DUP1 NOT DUP3 MLOAD AND DUP2 DUP5 MLOAD AND DUP1 DUP3 OR DUP6 MSTORE POP POP POP POP POP POP SWAP1 POP ADD SWAP2 POP POP PUSH1 0x0 PUSH1 0x40 MLOAD DUP1 DUP4 SUB DUP2 DUP6 DUP8 GAS CALL SWAP3 POP POP POP RETURNDATASIZE DUP1 PUSH1 0x0 DUP2 EQ PUSH2 0x1AE1 JUMPI PUSH1 0x40 MLOAD SWAP2 POP PUSH1 0x1F NOT PUSH1 0x3F RETURNDATASIZE ADD AND DUP3 ADD PUSH1 0x40 MSTORE RETURNDATASIZE DUP3 MSTORE RETURNDATASIZE PUSH1 0x0 PUSH1 0x20 DUP5 ADD RETURNDATACOPY PUSH2 0x1AE6 JUMP JUMPDEST PUSH1 0x60 SWAP2 POP JUMPDEST POP SWAP2 POP SWAP2 POP DUP2 ISZERO PUSH2 0x1AFA JUMPI SWAP2 POP PUSH2 0x1903 SWAP1 POP JUMP JUMPDEST DUP1 MLOAD ISZERO PUSH2 0x1B0A JUMPI DUP1 MLOAD DUP1 DUP3 PUSH1 0x20 ADD REVERT JUMPDEST PUSH1 0x40 MLOAD PUSH3 0x461BCD PUSH1 0xE5 SHL DUP2 MSTORE PUSH1 0x20 PUSH1 0x4 DUP3 ADD DUP2 DUP2 MSTORE DUP7 MLOAD PUSH1 0x24 DUP5 ADD MSTORE DUP7 MLOAD DUP8 SWAP4 SWAP2 SWAP3 DUP4 SWAP3 PUSH1 0x44 ADD SWAP2 SWAP1 DUP6 ADD SWAP1 DUP1 DUP4 DUP4 PUSH1 0x0 DUP4 ISZERO PUSH2 0x161F JUMPI DUP2 DUP2 ADD MLOAD DUP4 DUP3 ADD MSTORE PUSH1 0x20 ADD PUSH2 0x1607 JUMP JUMPDEST EXTCODESIZE ISZERO ISZERO SWAP1 JUMP JUMPDEST PUSH1 0x40 MLOAD DUP1 PUSH1 0x80 ADD PUSH1 0x40 MSTORE DUP1 PUSH1 0x0 DUP2 MSTORE PUSH1 0x20 ADD PUSH1 0x0 DUP2 MSTORE PUSH1 0x20 ADD PUSH1 0x0 DUP2 MSTORE PUSH1 0x20 ADD PUSH1 0x0 DUP2 MSTORE POP SWAP1 JUMP JUMPDEST PUSH1 0x40 DUP1 MLOAD PUSH1 0x20 DUP2 ADD SWAP1 SWAP2 MSTORE PUSH1 0x0 DUP2 MSTORE SWAP1 JUMP INVALID 0x4F PUSH24 0x6E61626C653A206E6577206F776E65722069732074686520 PUSH27 0x65726F20616464726573734669786564506F696E743A3A66726163 PUSH21 0x696F6E3A206469766973696F6E206279207A65726F MSTORE8 PUSH2 0x6665 0x4D PUSH2 0x7468 GASPRICE KECCAK256 PUSH14 0x756C7469706C69636174696F6E20 PUSH16 0x766572666C6F77536166654552433230 GASPRICE KECCAK256 GASLIMIT MSTORE NUMBER ORIGIN ADDRESS KECCAK256 PUSH16 0x7065726174696F6E20646964206E6F74 KECCAK256 PUSH20 0x756363656564A164736F6C6343000705000A0000 "
        },
        "gasEstimates": {
          "creation": {
            "codeDepositCost": "1444200",
            "executionCost": "23895",
            "totalCost": "1468095"
          },
          "external": {
            "DAOShare()": "1043",
            "DAOWallet()": "1104",
            "OHM()": "1082",
            "bondCalculator()": "1126",
            "bondControlVariable()": "1043",
            "calculateBondInterest(uint256)": "infinite",
            "calculatePendingPayout(address)": "infinite",
            "calculatePercentVested(address)": "infinite",
            "calculatePremium()": "infinite",
            "depositBondPrinciple(uint256)": "infinite",
            "depositBondPrincipleWithPermit(uint256,uint256,uint8,bytes32,bytes32)": "infinite",
            "depositorInfo(address)": "3728",
            "getDepositorInfo(address)": "3975",
            "initialize(address,address)": "64510",
            "isInitialized()": "1056",
            "minPremium()": "1064",
            "owner()": "1127",
            "principleToken()": "1148",
            "redeemBond()": "infinite",
            "renounceOwnership()": "24196",
            "setAddresses(address,address,address,address,uint256)": "104650",
            "setBondTerms(uint256,uint256,uint256)": "61207",
            "stakingContract()": "1081",
            "totalDebt()": "1108",
            "transferOwnership(address)": "infinite",
            "treasury()": "1104",
            "vestingPeriodInBlocks()": "1109"
          },
          "internal": {
            "_calcDebtRatio()": "infinite",
            "_calcPremium()": "infinite",
            "_calculateBondInterest(uint256)": "infinite",
            "_calculatePercentVested(address)": "infinite",
            "_depositBondPrinciple(uint256)": "infinite"
          }
        },
        "methodIdentifiers": {
          "DAOShare()": "61cb2175",
          "DAOWallet()": "dfdb5ae4",
          "OHM()": "a6c41fec",
          "bondCalculator()": "c5332b7c",
          "bondControlVariable()": "da6b5ab0",
          "calculateBondInterest(uint256)": "e08a01b4",
          "calculatePendingPayout(address)": "22d6357a",
          "calculatePercentVested(address)": "1bf6ba9f",
          "calculatePremium()": "3a709d22",
          "depositBondPrinciple(uint256)": "0897821f",
          "depositBondPrincipleWithPermit(uint256,uint256,uint8,bytes32,bytes32)": "5f20ac69",
          "depositorInfo(address)": "3d19d66b",
          "getDepositorInfo(address)": "c2ed626f",
          "initialize(address,address)": "485cc955",
          "isInitialized()": "392e53cd",
          "minPremium()": "eedb9ed5",
          "owner()": "8da5cb5b",
          "principleToken()": "6fd6be35",
          "redeemBond()": "5049b278",
          "renounceOwnership()": "715018a6",
          "setAddresses(address,address,address,address,uint256)": "67edc769",
          "setBondTerms(uint256,uint256,uint256)": "8b276c2c",
          "stakingContract()": "ee99205c",
          "totalDebt()": "fc7b9c18",
          "transferOwnership(address)": "f2fde38b",
          "treasury()": "61d027b3",
          "vestingPeriodInBlocks()": "cd3a2a3c"
        }
      },
      "storageLayout": {
        "storage": [
          {
            "astId": 19,
            "contract": "contracts/artifacts/OHMPrincipleDepository.sol:OHMPrincipleDepository",
            "label": "_owner",
            "offset": 0,
            "slot": "0",
            "type": "t_address"
          },
          {
            "astId": 3469,
            "contract": "contracts/artifacts/OHMPrincipleDepository.sol:OHMPrincipleDepository",
            "label": "depositorInfo",
            "offset": 0,
            "slot": "1",
            "type": "t_mapping(t_address,t_struct(DepositInfo)3465_storage)"
          },
          {
            "astId": 3471,
            "contract": "contracts/artifacts/OHMPrincipleDepository.sol:OHMPrincipleDepository",
            "label": "bondControlVariable",
            "offset": 0,
            "slot": "2",
            "type": "t_uint256"
          },
          {
            "astId": 3473,
            "contract": "contracts/artifacts/OHMPrincipleDepository.sol:OHMPrincipleDepository",
            "label": "vestingPeriodInBlocks",
            "offset": 0,
            "slot": "3",
            "type": "t_uint256"
          },
          {
            "astId": 3475,
            "contract": "contracts/artifacts/OHMPrincipleDepository.sol:OHMPrincipleDepository",
            "label": "minPremium",
            "offset": 0,
            "slot": "4",
            "type": "t_uint256"
          },
          {
            "astId": 3477,
            "contract": "contracts/artifacts/OHMPrincipleDepository.sol:OHMPrincipleDepository",
            "label": "treasury",
            "offset": 0,
            "slot": "5",
            "type": "t_address"
          },
          {
            "astId": 3479,
            "contract": "contracts/artifacts/OHMPrincipleDepository.sol:OHMPrincipleDepository",
            "label": "bondCalculator",
            "offset": 0,
            "slot": "6",
            "type": "t_address"
          },
          {
            "astId": 3481,
            "contract": "contracts/artifacts/OHMPrincipleDepository.sol:OHMPrincipleDepository",
            "label": "principleToken",
            "offset": 0,
            "slot": "7",
            "type": "t_address"
          },
          {
            "astId": 3483,
            "contract": "contracts/artifacts/OHMPrincipleDepository.sol:OHMPrincipleDepository",
            "label": "OHM",
            "offset": 0,
            "slot": "8",
            "type": "t_address"
          },
          {
            "astId": 3485,
            "contract": "contracts/artifacts/OHMPrincipleDepository.sol:OHMPrincipleDepository",
            "label": "totalDebt",
            "offset": 0,
            "slot": "9",
            "type": "t_uint256"
          },
          {
            "astId": 3487,
            "contract": "contracts/artifacts/OHMPrincipleDepository.sol:OHMPrincipleDepository",
            "label": "stakingContract",
            "offset": 0,
            "slot": "10",
            "type": "t_address"
          },
          {
            "astId": 3489,
            "contract": "contracts/artifacts/OHMPrincipleDepository.sol:OHMPrincipleDepository",
            "label": "DAOWallet",
            "offset": 0,
            "slot": "11",
            "type": "t_address"
          },
          {
            "astId": 3491,
            "contract": "contracts/artifacts/OHMPrincipleDepository.sol:OHMPrincipleDepository",
            "label": "DAOShare",
            "offset": 0,
            "slot": "12",
            "type": "t_uint256"
          },
          {
            "astId": 3493,
            "contract": "contracts/artifacts/OHMPrincipleDepository.sol:OHMPrincipleDepository",
            "label": "isInitialized",
            "offset": 0,
            "slot": "13",
            "type": "t_bool"
          }
        ],
        "types": {
          "t_address": {
            "encoding": "inplace",
            "label": "address",
            "numberOfBytes": "20"
          },
          "t_bool": {
            "encoding": "inplace",
            "label": "bool",
            "numberOfBytes": "1"
          },
          "t_mapping(t_address,t_struct(DepositInfo)3465_storage)": {
            "encoding": "mapping",
            "key": "t_address",
            "label": "mapping(address => struct OHMPrincipleDepository.DepositInfo)",
            "numberOfBytes": "32",
            "value": "t_struct(DepositInfo)3465_storage"
          },
          "t_struct(DepositInfo)3465_storage": {
            "encoding": "inplace",
            "label": "struct OHMPrincipleDepository.DepositInfo",
            "members": [
              {
                "astId": 3458,
                "contract": "contracts/artifacts/OHMPrincipleDepository.sol:OHMPrincipleDepository",
                "label": "principleValue",
                "offset": 0,
                "slot": "0",
                "type": "t_uint256"
              },
              {
                "astId": 3460,
                "contract": "contracts/artifacts/OHMPrincipleDepository.sol:OHMPrincipleDepository",
                "label": "payoutRemaining",
                "offset": 0,
                "slot": "1",
                "type": "t_uint256"
              },
              {
                "astId": 3462,
                "contract": "contracts/artifacts/OHMPrincipleDepository.sol:OHMPrincipleDepository",
                "label": "lastBlock",
                "offset": 0,
                "slot": "2",
                "type": "t_uint256"
              },
              {
                "astId": 3464,
                "contract": "contracts/artifacts/OHMPrincipleDepository.sol:OHMPrincipleDepository",
                "label": "vestingPeriod",
                "offset": 0,
                "slot": "3",
                "type": "t_uint256"
              }
            ],
            "numberOfBytes": "128"
          },
          "t_uint256": {
            "encoding": "inplace",
            "label": "uint256",
            "numberOfBytes": "32"
          }
        }
      },
      "userdoc": {
        "kind": "user",
        "methods": {
          "depositBondPrinciple(uint256)": {
            "notice": "deposit bond"
          },
          "depositBondPrincipleWithPermit(uint256,uint256,uint8,bytes32,bytes32)": {
            "notice": "deposit bond with permit"
          },
          "getDepositorInfo(address)": {
            "notice": "get info of depositor"
          },
          "initialize(address,address)": {
            "notice": "Initialize address of OHM-DAI & OHM tokens"
          },
          "redeemBond()": {
            "notice": "redeem bond"
          },
          "setAddresses(address,address,address,address,uint256)": {
            "notice": "set addresses of calculator, treasury, staking, DAO, DAOShare."
          },
          "setBondTerms(uint256,uint256,uint256)": {
            "notice": "set params of primium scaling"
          }
        },
        "version": 1
      }
    }
  }
}