{
  "_format": "hh-sol-artifact-1",
  "contractName": "OHMPrincipleDepository",
  "sourceName": "contracts/artifacts/OHMPrincipleDepository.sol",
  "abi": [
    {
      "anonymous": false,
      "inputs": [
        {
          "indexed": true,
          "internalType": "address",
          "name": "previousOwner",
          "type": "address"
        },
        {
          "indexed": true,
          "internalType": "address",
          "name": "newOwner",
          "type": "address"
        }
      ],
      "name": "OwnershipTransferred",
      "type": "event"
    },
    {
      "inputs": [],
      "name": "DAOShare",
      "outputs": [
        {
          "internalType": "uint256",
          "name": "",
          "type": "uint256"
        }
      ],
      "stateMutability": "view",
      "type": "function"
    },
    {
      "inputs": [],
      "name": "DAOWallet",
      "outputs": [
        {
          "internalType": "address",
          "name": "",
          "type": "address"
        }
      ],
      "stateMutability": "view",
      "type": "function"
    },
    {
      "inputs": [],
      "name": "OHM",
      "outputs": [
        {
          "internalType": "address",
          "name": "",
          "type": "address"
        }
      ],
      "stateMutability": "view",
      "type": "function"
    },
    {
      "inputs": [],
      "name": "bondCalculator",
      "outputs": [
        {
          "internalType": "address",
          "name": "",
          "type": "address"
        }
      ],
      "stateMutability": "view",
      "type": "function"
    },
    {
      "inputs": [],
      "name": "bondControlVariable",
      "outputs": [
        {
          "internalType": "uint256",
          "name": "",
          "type": "uint256"
        }
      ],
      "stateMutability": "view",
      "type": "function"
    },
    {
      "inputs": [
        {
          "internalType": "uint256",
          "name": "amountToDeposit_",
          "type": "uint256"
        }
      ],
      "name": "calculateBondInterest",
      "outputs": [
        {
          "internalType": "uint256",
          "name": "_interestDue",
          "type": "uint256"
        }
      ],
      "stateMutability": "view",
      "type": "function"
    },
    {
      "inputs": [
        {
          "internalType": "address",
          "name": "depositor_",
          "type": "address"
        }
      ],
      "name": "calculatePendingPayout",
      "outputs": [
        {
          "internalType": "uint256",
          "name": "_pendingPayout",
          "type": "uint256"
        }
      ],
      "stateMutability": "view",
      "type": "function"
    },
    {
      "inputs": [
        {
          "internalType": "address",
          "name": "depositor_",
          "type": "address"
        }
      ],
      "name": "calculatePercentVested",
      "outputs": [
        {
          "internalType": "uint256",
          "name": "_percentVested",
          "type": "uint256"
        }
      ],
      "stateMutability": "view",
      "type": "function"
    },
    {
      "inputs": [],
      "name": "calculatePremium",
      "outputs": [
        {
          "internalType": "uint256",
          "name": "_premium",
          "type": "uint256"
        }
      ],
      "stateMutability": "view",
      "type": "function"
    },
    {
      "inputs": [
        {
          "internalType": "uint256",
          "name": "amountToDeposit_",
          "type": "uint256"
        }
      ],
      "name": "depositBondPrinciple",
      "outputs": [
        {
          "internalType": "bool",
          "name": "",
          "type": "bool"
        }
      ],
      "stateMutability": "nonpayable",
      "type": "function"
    },
    {
      "inputs": [
        {
          "internalType": "uint256",
          "name": "amountToDeposit_",
          "type": "uint256"
        },
        {
          "internalType": "uint256",
          "name": "deadline",
          "type": "uint256"
        },
        {
          "internalType": "uint8",
          "name": "v",
          "type": "uint8"
        },
        {
          "internalType": "bytes32",
          "name": "r",
          "type": "bytes32"
        },
        {
          "internalType": "bytes32",
          "name": "s",
          "type": "bytes32"
        }
      ],
      "name": "depositBondPrincipleWithPermit",
      "outputs": [
        {
          "internalType": "bool",
          "name": "",
          "type": "bool"
        }
      ],
      "stateMutability": "nonpayable",
      "type": "function"
    },
    {
      "inputs": [
        {
          "internalType": "address",
          "name": "",
          "type": "address"
        }
      ],
      "name": "depositorInfo",
      "outputs": [
        {
          "internalType": "uint256",
          "name": "principleValue",
          "type": "uint256"
        },
        {
          "internalType": "uint256",
          "name": "payoutRemaining",
          "type": "uint256"
        },
        {
          "internalType": "uint256",
          "name": "lastBlock",
          "type": "uint256"
        },
        {
          "internalType": "uint256",
          "name": "vestingPeriod",
          "type": "uint256"
        }
      ],
      "stateMutability": "view",
      "type": "function"
    },
    {
      "inputs": [
        {
          "internalType": "address",
          "name": "depositorAddress_",
          "type": "address"
        }
      ],
      "name": "getDepositorInfo",
      "outputs": [
        {
          "internalType": "uint256",
          "name": "_principleValue",
          "type": "uint256"
        },
        {
          "internalType": "uint256",
          "name": "_payoutRemaining",
          "type": "uint256"
        },
        {
          "internalType": "uint256",
          "name": "_lastBlock",
          "type": "uint256"
        },
        {
          "internalType": "uint256",
          "name": "_vestingPeriod",
          "type": "uint256"
        }
      ],
      "stateMutability": "view",
      "type": "function"
    },
    {
      "inputs": [
        {
          "internalType": "address",
          "name": "principleToken_",
          "type": "address"
        },
        {
          "internalType": "address",
          "name": "OHM_",
          "type": "address"
        }
      ],
      "name": "initialize",
      "outputs": [
        {
          "internalType": "bool",
          "name": "",
          "type": "bool"
        }
      ],
      "stateMutability": "nonpayable",
      "type": "function"
    },
    {
      "inputs": [],
      "name": "isInitialized",
      "outputs": [
        {
          "internalType": "bool",
          "name": "",
          "type": "bool"
        }
      ],
      "stateMutability": "view",
      "type": "function"
    },
    {
      "inputs": [],
      "name": "minPremium",
      "outputs": [
        {
          "internalType": "uint256",
          "name": "",
          "type": "uint256"
        }
      ],
      "stateMutability": "view",
      "type": "function"
    },
    {
      "inputs": [],
      "name": "owner",
      "outputs": [
        {
          "internalType": "address",
          "name": "",
          "type": "address"
        }
      ],
      "stateMutability": "view",
      "type": "function"
    },
    {
      "inputs": [],
      "name": "principleToken",
      "outputs": [
        {
          "internalType": "address",
          "name": "",
          "type": "address"
        }
      ],
      "stateMutability": "view",
      "type": "function"
    },
    {
      "inputs": [],
      "name": "redeemBond",
      "outputs": [
        {
          "internalType": "bool",
          "name": "",
          "type": "bool"
        }
      ],
      "stateMutability": "nonpayable",
      "type": "function"
    },
    {
      "inputs": [],
      "name": "renounceOwnership",
      "outputs": [],
      "stateMutability": "nonpayable",
      "type": "function"
    },
    {
      "inputs": [
        {
          "internalType": "address",
          "name": "bondCalculator_",
          "type": "address"
        },
        {
          "internalType": "address",
          "name": "treasury_",
          "type": "address"
        },
        {
          "internalType": "address",
          "name": "stakingContract_",
          "type": "address"
        },
        {
          "internalType": "address",
          "name": "DAOWallet_",
          "type": "address"
        },
        {
          "internalType": "uint256",
          "name": "DAOShare_",
          "type": "uint256"
        }
      ],
      "name": "setAddresses",
      "outputs": [
        {
          "internalType": "bool",
          "name": "",
          "type": "bool"
        }
      ],
      "stateMutability": "nonpayable",
      "type": "function"
    },
    {
      "inputs": [
        {
          "internalType": "uint256",
          "name": "bondControlVariable_",
          "type": "uint256"
        },
        {
          "internalType": "uint256",
          "name": "vestingPeriodInBlocks_",
          "type": "uint256"
        },
        {
          "internalType": "uint256",
          "name": "minPremium_",
          "type": "uint256"
        }
      ],
      "name": "setBondTerms",
      "outputs": [
        {
          "internalType": "bool",
          "name": "",
          "type": "bool"
        }
      ],
      "stateMutability": "nonpayable",
      "type": "function"
    },
    {
      "inputs": [],
      "name": "stakingContract",
      "outputs": [
        {
          "internalType": "address",
          "name": "",
          "type": "address"
        }
      ],
      "stateMutability": "view",
      "type": "function"
    },
    {
      "inputs": [],
      "name": "totalDebt",
      "outputs": [
        {
          "internalType": "uint256",
          "name": "",
          "type": "uint256"
        }
      ],
      "stateMutability": "view",
      "type": "function"
    },
    {
      "inputs": [
        {
          "internalType": "address",
          "name": "newOwner_",
          "type": "address"
        }
      ],
      "name": "transferOwnership",
      "outputs": [],
      "stateMutability": "nonpayable",
      "type": "function"
    },
    {
      "inputs": [],
      "name": "treasury",
      "outputs": [
        {
          "internalType": "address",
          "name": "",
          "type": "address"
        }
      ],
      "stateMutability": "view",
      "type": "function"
    },
    {
      "inputs": [],
      "name": "vestingPeriodInBlocks",
      "outputs": [
        {
          "internalType": "uint256",
          "name": "",
          "type": "uint256"
        }
      ],
      "stateMutability": "view",
      "type": "function"
    }
  ],
  "bytecode": "0x608060405234801561001057600080fd5b50600080546001600160a01b03191633178082556040516001600160a01b039190911691907f8be0079c531659141344cd1fd0a4f28419497f9722a3daafe3b4186f6b6457e0908290a3611c35806100696000396000f3fe608060405234801561001057600080fd5b50600436106101b95760003560e01c8063715018a6116100f9578063da6b5ab011610097578063ee99205c11610071578063ee99205c14610437578063eedb9ed51461043f578063f2fde38b14610447578063fc7b9c181461046d576101b9565b8063da6b5ab01461040a578063dfdb5ae414610412578063e08a01b41461041a576101b9565b8063a6c41fec116100d3578063a6c41fec146103cc578063c2ed626f146103d4578063c5332b7c146103fa578063cd3a2a3c14610402576101b9565b8063715018a6146103915780638b276c2c1461039b5780638da5cb5b146103c4576101b9565b8063485cc9551161016657806361cb21751161014057806361cb21751461031757806361d027b31461031f57806367edc769146103435780636fd6be3514610389576101b9565b8063485cc955146102a95780635049b278146102d75780635f20ac69146102df576101b9565b8063392e53cd11610197578063392e53cd1461024d5780633a709d22146102555780633d19d66b1461025d576101b9565b80630897821f146101be5780631bf6ba9f146101ef57806322d6357a14610227575b600080fd5b6101db600480360360208110156101d457600080fd5b5035610475565b604080519115158252519081900360200190f35b6102156004803603602081101561020557600080fd5b50356001600160a01b0316610489565b60408051918252519081900360200190f35b6102156004803603602081101561023d57600080fd5b50356001600160a01b031661049a565b6101db6104f2565b6102156104fb565b6102836004803603602081101561027357600080fd5b50356001600160a01b031661050a565b604080519485526020850193909352838301919091526060830152519081900360800190f35b6101db600480360360408110156102bf57600080fd5b506001600160a01b0381358116916020013516610532565b6101db610618565b6101db600480360360a08110156102f557600080fd5b5080359060208101359060ff60408201351690606081013590608001356107f8565b6102156108b5565b6103276108bb565b604080516001600160a01b039092168252519081900360200190f35b6101db600480360360a081101561035957600080fd5b506001600160a01b03813581169160208101358216916040820135811691606081013590911690608001356108ca565b610327610999565b6103996109a8565b005b6101db600480360360608110156103b157600080fd5b5080359060208101359060400135610a69565b610327610adb565b610327610aea565b610283600480360360208110156103ea57600080fd5b50356001600160a01b0316610af9565b610327610b60565b610215610b6f565b610215610b75565b610327610b7b565b6102156004803603602081101561043057600080fd5b5035610b8a565b610327610c4d565b610215610c5c565b6103996004803603602081101561045d57600080fd5b50356001600160a01b0316610c62565b610215610d79565b600061048082610d7f565b50600192915050565b6000610494826110d9565b92915050565b6000806104a6836110d9565b6001600160a01b038416600090815260016020819052604090912001549091506104dc6127106104d68385611148565b906111a1565b925061271082106104eb578092505b5050919050565b600d5460ff1681565b60006105056111e3565b905090565b6001602081905260009182526040909120805491810154600282015460039092015490919084565b600080546001600160a01b03163314610592576040805162461bcd60e51b815260206004820181905260248201527f4f776e61626c653a2063616c6c6572206973206e6f7420746865206f776e6572604482015290519081900360640190fd5b600d5460ff16156105a257600080fd5b50600780546001600160a01b039384167fffffffffffffffffffffffff00000000000000000000000000000000000000009182161790915560088054929093169116179055600d80547fffffffffffffffffffffffffffffffffffffffffffffffffffffffffffffff0016600190811790915590565b336000908152600160208190526040822001548061067d576040805162461bcd60e51b815260206004820152601f60248201527f53656e646572206973206e6f742064756520616e7920696e7465726573742e00604482015290519081900360640190fd5b33600090815260016020526040812080546002909101549091906106a2904390611221565b33600081815260016020526040812060030154929350906106c2906110d9565b9050612710811061072a573360008181526001602081905260408220828155908101829055600281018290556003015560085461070b916001600160a01b039091169087611263565b6009546107189085611221565b60095550600194506107f59350505050565b600061073c6127106104d68885611148565b600854909150610756906001600160a01b03163383611263565b60006107686127106104d68886611148565b6009549091506107789082611221565b6009556040805160808101909152806107918884611221565b81526020016107a08985611221565b81524360208201526040016107b58688611221565b9052336000908152600160208181526040928390208451815590840151818301559183015160028301556060909201516003909101559750505050505050505b90565b600754604080517fd505accf000000000000000000000000000000000000000000000000000000008152336004820152306024820152604481018890526064810187905260ff8616608482015260a4810185905260c4810184905290516000926001600160a01b03169163d505accf9160e4808301928692919082900301818387803b15801561088757600080fd5b505af115801561089b573d6000803e3d6000fd5b505050506108a886610d7f565b5060019695505050505050565b600c5481565b6005546001600160a01b031681565b600080546001600160a01b0316331461092a576040805162461bcd60e51b815260206004820181905260248201527f4f776e61626c653a2063616c6c6572206973206e6f7420746865206f776e6572604482015290519081900360640190fd5b50600680547fffffffffffffffffffffffff00000000000000000000000000000000000000009081166001600160a01b039788161790915560058054821695871695909517909455600a8054851693861693909317909255600b80549093169316929092179055600c55600190565b6007546001600160a01b031681565b6000546001600160a01b03163314610a07576040805162461bcd60e51b815260206004820181905260248201527f4f776e61626c653a2063616c6c6572206973206e6f7420746865206f776e6572604482015290519081900360640190fd5b600080546040516001600160a01b03909116907f8be0079c531659141344cd1fd0a4f28419497f9722a3daafe3b4186f6b6457e0908390a3600080547fffffffffffffffffffffffff0000000000000000000000000000000000000000169055565b600080546001600160a01b03163314610ac9576040805162461bcd60e51b815260206004820181905260248201527f4f776e61626c653a2063616c6c6572206973206e6f7420746865206f776e6572604482015290519081900360640190fd5b50600292909255600355600455600190565b6000546001600160a01b031690565b6008546001600160a01b031681565b600080600080610b07611b57565b505050506001600160a01b03919091166000908152600160208181526040928390208351608081018552815480825293820154928101839052600282015494810185905260039091015460609091018190529194909350565b6006546001600160a01b031681565b60035481565b60025481565b600b546001600160a01b031681565b600654600754604080517ffb452dc10000000000000000000000000000000000000000000000000000000081526001600160a01b0392831660048201526024810185905290516000938493610c3b93633b9aca0093919092169163fb452dc1916044808301926020929190829003018186803b158015610c0957600080fd5b505afa158015610c1d573d6000803e3d6000fd5b505050506040513d6020811015610c3357600080fd5b5051906111a1565b9050610c46816112e8565b9392505050565b600a546001600160a01b031681565b60045481565b6000546001600160a01b03163314610cc1576040805162461bcd60e51b815260206004820181905260248201527f4f776e61626c653a2063616c6c6572206973206e6f7420746865206f776e6572604482015290519081900360640190fd5b6001600160a01b038116610d065760405162461bcd60e51b8152600401808060200182810382526026815260200180611b926026913960400191505060405180910390fd5b600080546040516001600160a01b03808516939216917f8be0079c531659141344cd1fd0a4f28419497f9722a3daafe3b4186f6b6457e091a3600080547fffffffffffffffffffffffff0000000000000000000000000000000000000000166001600160a01b0392909216919091179055565b60095481565b600754600090610d9a906001600160a01b031633308561130e565b600654600754604080517ffb452dc10000000000000000000000000000000000000000000000000000000081526001600160a01b039283166004820152602481018690529051600093610e1693633b9aca009391169163fb452dc191604480820192602092909190829003018186803b158015610c0957600080fd5b90506000610e23826112e8565b905062989680811015610e7d576040805162461bcd60e51b815260206004820152600e60248201527f426f6e6420746f6f20736d616c6c000000000000000000000000000000000000604482015290519081900360640190fd5b600954610e8a908361139c565b6009556000610e998383611221565b90506000610eb1610eac83600c546113f6565b6115b7565b600754600554604080517f095ea7b30000000000000000000000000000000000000000000000000000000081526001600160a01b039283166004820152602481018b905290516dffffffffffffffffffffffffffff94909416945091169163095ea7b3916044808201926020929091908290030181600087803b158015610f3757600080fd5b505af1158015610f4b573d6000803e3d6000fd5b505050506040513d6020811015610f6157600080fd5b5050600554604080517f54b6dced0000000000000000000000000000000000000000000000000000000081526004810189905290516001600160a01b03909216916354b6dced916024808201926020929091908290030181600087803b158015610fca57600080fd5b505af1158015610fde573d6000803e3d6000fd5b505050506040513d6020811015610ff457600080fd5b5050600a54611023906001600160a01b03166110108484611221565b6008546001600160a01b03169190611263565b600b54600854611040916001600160a01b03918216911683611263565b60408051608081018252336000908152600160205291909120548190611066908761139c565b81523360009081526001602081815260409092200154910190611089908661139c565b815243602080830191909152600380546040938401523360009081526001808452908490208551815592850151838201559284015160028301556060909301519201919091559695505050505050565b6001600160a01b0381166000908152600160205260408120600201548190611102904390611221565b6001600160a01b038416600090815260016020526040902060030154909150801561113e57611137816104d684612710611148565b92506104eb565b5060009392505050565b60008261115757506000610494565b8282028284828161116457fe5b0414610c465760405162461bcd60e51b8152600401808060200182810382526021815260200180611bde6021913960400191505060405180910390fd5b6000610c4683836040518060400160405280601a81526020017f536166654d6174683a206469766973696f6e206279207a65726f0000000000008152506115ce565b600061120e629896806104d6633b9aca006112086111ff611670565b60025490611148565b9061139c565b90506004548110156107f5575060045490565b6000610c4683836040518060400160405280601e81526020017f536166654d6174683a207375627472616374696f6e206f766572666c6f77000081525061171c565b604080516001600160a01b038416602482015260448082018490528251808303909101815260649091019091526020810180517bffffffffffffffffffffffffffffffffffffffffffffffffffffffff167fa9059cbb000000000000000000000000000000000000000000000000000000001790526112e3908490611776565b505050565b6000610494662386f26fc100006104d6611309856113046111e3565b6113f6565b611827565b604080516001600160a01b0380861660248301528416604482015260648082018490528251808303909101815260849091019091526020810180517bffffffffffffffffffffffffffffffffffffffffffffffffffffffff167f23b872dd00000000000000000000000000000000000000000000000000000000179052611396908590611776565b50505050565b600082820183811015610c46576040805162461bcd60e51b815260206004820152601b60248201527f536166654d6174683a206164646974696f6e206f766572666c6f770000000000604482015290519081900360640190fd5b6113fe611b7f565b6000821161143d5760405162461bcd60e51b8152600401808060200182810382526026815260200180611bb86026913960400191505060405180910390fd5b826114575750604080516020810190915260008152610494565b71ffffffffffffffffffffffffffffffffffff831161152857600082607085901b8161147f57fe5b0490507bffffffffffffffffffffffffffffffffffffffffffffffffffffffff8111156114f3576040805162461bcd60e51b815260206004820152601e60248201527f4669786564506f696e743a3a6672616374696f6e3a206f766572666c6f770000604482015290519081900360640190fd5b6040518060200160405280827bffffffffffffffffffffffffffffffffffffffffffffffffffffffff16815250915050610494565b6000611544846e01000000000000000000000000000085611854565b90507bffffffffffffffffffffffffffffffffffffffffffffffffffffffff8111156114f3576040805162461bcd60e51b815260206004820152601e60248201527f4669786564506f696e743a3a6672616374696f6e3a206f766572666c6f770000604482015290519081900360640190fd5b5160701c6dffffffffffffffffffffffffffff1690565b6000818361165a5760405162461bcd60e51b81526004018080602001828103825283818151815260200191508051906020019080838360005b8381101561161f578181015183820152602001611607565b50505050905090810190601f16801561164c5780820380516001836020036101000a031916815260200191505b509250505060405180910390fd5b50600083858161166657fe5b0495945050505050565b6000610505670de0b6b3a76400006104d661130961169d633b9aca0060095461114890919063ffffffff16565b600860009054906101000a90046001600160a01b03166001600160a01b03166318160ddd6040518163ffffffff1660e01b815260040160206040518083038186803b1580156116eb57600080fd5b505afa1580156116ff573d6000803e3d6000fd5b505050506040513d602081101561171557600080fd5b50516113f6565b6000818484111561176e5760405162461bcd60e51b815260206004820181815283516024840152835190928392604490910191908501908083836000831561161f578181015183820152602001611607565b505050900390565b60606117cb826040518060400160405280602081526020017f5361666545524332303a206c6f772d6c6576656c2063616c6c206661696c6564815250856001600160a01b03166118f49092919063ffffffff16565b8051909150156112e3578080602001905160208110156117ea57600080fd5b50516112e35760405162461bcd60e51b815260040180806020018281038252602a815260200180611bff602a913960400191505060405180910390fd5b516612725dd1d243ab7bffffffffffffffffffffffffffffffffffffffffffffffffffffffff9091160490565b6000806000611863868661190b565b915091506000848061187157fe5b868809905082811115611885576001820391505b80830392508482106118de576040805162461bcd60e51b815260206004820152601a60248201527f46756c6c4d6174683a3a6d756c4469763a206f766572666c6f77000000000000604482015290519081900360640190fd5b6118e9838387611956565b979650505050505050565b606061190384846000856119c6565b949350505050565b600080807fffffffffffffffffffffffffffffffffffffffffffffffffffffffffffffffff8486099050838502925082810391508281101561194e576001820391505b509250929050565b6000818103821680838161196657fe5b04925080858161197257fe5b04945080816000038161198157fe5b60028581038087028203028087028203028087028203028087028203028087028203028087028203029586029003909402930460010193909302939093010292915050565b60606119d185611b51565b611a22576040805162461bcd60e51b815260206004820152601d60248201527f416464726573733a2063616c6c20746f206e6f6e2d636f6e7472616374000000604482015290519081900360640190fd5b60006060866001600160a01b031685876040518082805190602001908083835b60208310611a7f57805182527fffffffffffffffffffffffffffffffffffffffffffffffffffffffffffffffe09092019160209182019101611a42565b6001836020036101000a03801982511681845116808217855250505050505090500191505060006040518083038185875af1925050503d8060008114611ae1576040519150601f19603f3d011682016040523d82523d6000602084013e611ae6565b606091505b50915091508115611afa5791506119039050565b805115611b0a5780518082602001fd5b60405162461bcd60e51b815260206004820181815286516024840152865187939192839260440191908501908083836000831561161f578181015183820152602001611607565b3b151590565b6040518060800160405280600081526020016000815260200160008152602001600081525090565b6040805160208101909152600081529056fe4f776e61626c653a206e6577206f776e657220697320746865207a65726f20616464726573734669786564506f696e743a3a6672616374696f6e3a206469766973696f6e206279207a65726f536166654d6174683a206d756c7469706c69636174696f6e206f766572666c6f775361666545524332303a204552433230206f7065726174696f6e20646964206e6f742073756363656564a164736f6c6343000705000a",
  "linkReferences": {},
  "deployedLinkReferences": {}
}