{
  "_format": "hh-sol-artifact-1",
  "contractName": "ApeDAO",
  "sourceName": "contracts/ApeBANKDAO.sol",
  "abi": [
    {
      "inputs": [],
      "stateMutability": "nonpayable",
      "type": "constructor"
    },
    {
      "inputs": [
        {
          "internalType": "address",
          "name": "",
          "type": "address"
        }
      ],
      "name": "approved",
      "outputs": [
        {
          "internalType": "bool",
          "name": "",
          "type": "bool"
        }
      ],
      "stateMutability": "view",
      "type": "function"
    },
    {
      "inputs": [
        {
          "internalType": "address",
          "name": "_address",
          "type": "address"
        }
      ],
      "name": "toggleApprove",
      "outputs": [],
      "stateMutability": "nonpayable",
      "type": "function"
    },
    {
      "inputs": [
        {
          "internalType": "uint256",
          "name": "_amount",
          "type": "uint256"
        },
        {
          "internalType": "address",
          "name": "_token",
          "type": "address"
        }
      ],
      "name": "withdraw",
      "outputs": [],
      "stateMutability": "nonpayable",
      "type": "function"
    }
  ],
  "bytecode": "0x608060405234801561001057600080fd5b50336000908152602081905260409020805460ff1916600117905561064c8061003a6000396000f3fe608060405234801561001057600080fd5b50600436106100405760003560e01c8062f714ce14610045578063d8b964e614610080578063f1430edc146100c7575b600080fd5b61007e6004803603604081101561005b57600080fd5b508035906020013573ffffffffffffffffffffffffffffffffffffffff166100fa565b005b6100b36004803603602081101561009657600080fd5b503573ffffffffffffffffffffffffffffffffffffffff1661019d565b604080519115158252519081900360200190f35b61007e600480360360208110156100dd57600080fd5b503573ffffffffffffffffffffffffffffffffffffffff166101b2565b3360009081526020819052604090205460ff1661017857604080517f08c379a000000000000000000000000000000000000000000000000000000000815260206004820152600c60248201527f4e6f7420617070726f7665640000000000000000000000000000000000000000604482015290519081900360640190fd5b61019973ffffffffffffffffffffffffffffffffffffffff82163384610284565b5050565b60006020819052908152604090205460ff1681565b3360009081526020819052604090205460ff1661023057604080517f08c379a000000000000000000000000000000000000000000000000000000000815260206004820152600c60248201527f4e6f7420617070726f7665640000000000000000000000000000000000000000604482015290519081900360640190fd5b73ffffffffffffffffffffffffffffffffffffffff16600090815260208190526040902080547fffffffffffffffffffffffffffffffffffffffffffffffffffffffffffffff00811660ff90911615179055565b6040805173ffffffffffffffffffffffffffffffffffffffff8416602482015260448082018490528251808303909101815260649091019091526020810180517bffffffffffffffffffffffffffffffffffffffffffffffffffffffff167fa9059cbb00000000000000000000000000000000000000000000000000000000179052610311908490610316565b505050565b6060610378826040518060400160405280602081526020017f5361666545524332303a206c6f772d6c6576656c2063616c6c206661696c65648152508573ffffffffffffffffffffffffffffffffffffffff166103ee9092919063ffffffff16565b8051909150156103115780806020019051602081101561039757600080fd5b5051610311576040517f08c379a000000000000000000000000000000000000000000000000000000000815260040180806020018281038252602a815260200180610616602a913960400191505060405180910390fd5b60606103fd8484600085610405565b949350505050565b60606104108561060f565b61047b57604080517f08c379a000000000000000000000000000000000000000000000000000000000815260206004820152601d60248201527f416464726573733a2063616c6c20746f206e6f6e2d636f6e7472616374000000604482015290519081900360640190fd5b600060608673ffffffffffffffffffffffffffffffffffffffff1685876040518082805190602001908083835b602083106104e557805182527fffffffffffffffffffffffffffffffffffffffffffffffffffffffffffffffe090920191602091820191016104a8565b6001836020036101000a03801982511681845116808217855250505050505090500191505060006040518083038185875af1925050503d8060008114610547576040519150601f19603f3d011682016040523d82523d6000602084013e61054c565b606091505b509150915081156105605791506103fd9050565b8051156105705780518082602001fd5b836040517f08c379a00000000000000000000000000000000000000000000000000000000081526004018080602001828103825283818151815260200191508051906020019080838360005b838110156105d45781810151838201526020016105bc565b50505050905090810190601f1680156106015780820380516001836020036101000a031916815260200191505b509250505060405180910390fd5b3b15159056fe5361666545524332303a204552433230206f7065726174696f6e20646964206e6f742073756363656564a164736f6c6343000705000a",
  "linkReferences": {},
  "deployedLinkReferences": {}
}