{
  "_format": "hh-sol-artifact-1",
  "contractName": "StakingHelper",
  "sourceName": "contracts/StakingHelper.sol",
  "abi": [
    {
      "inputs": [
        {
          "internalType": "address",
          "name": "_staking",
          "type": "address"
        },
        {
          "internalType": "address",
          "name": "_OHM",
          "type": "address"
        }
      ],
      "stateMutability": "nonpayable",
      "type": "constructor"
    },
    {
      "inputs": [],
      "name": "OHM",
      "outputs": [
        {
          "internalType": "address",
          "name": "",
          "type": "address"
        }
      ],
      "stateMutability": "view",
      "type": "function"
    },
    {
      "inputs": [
        {
          "internalType": "uint256",
          "name": "_amount",
          "type": "uint256"
        }
      ],
      "name": "stake",
      "outputs": [],
      "stateMutability": "nonpayable",
      "type": "function"
    },
    {
      "inputs": [],
      "name": "staking",
      "outputs": [
        {
          "internalType": "address",
          "name": "",
          "type": "address"
        }
      ],
      "stateMutability": "view",
      "type": "function"
    }
  ],
  "bytecode": "0x60c060405234801561001057600080fd5b506040516104d43803806104d48339818101604052604081101561003357600080fd5b5080516020909101516001600160a01b03821661004f57600080fd5b6001600160601b0319606083901b166080526001600160a01b03811661007457600080fd5b606081811b6001600160601b03191660a052608051901c91506001600160a01b03166104096100cb6000398061011552806101f852806103da52508060a052806101c752806102bc528061037652506104096000f3fe608060405234801561001057600080fd5b50600436106100415760003560e01c80634cf088d914610046578063a694fc3a14610077578063a6c41fec14610096575b600080fd5b61004e61009e565b6040805173ffffffffffffffffffffffffffffffffffffffff9092168252519081900360200190f35b6100946004803603602081101561008d57600080fd5b50356100c2565b005b61004e6103d8565b7f000000000000000000000000000000000000000000000000000000000000000081565b604080517f23b872dd00000000000000000000000000000000000000000000000000000000815233600482015230602482015260448101839052905173ffffffffffffffffffffffffffffffffffffffff7f000000000000000000000000000000000000000000000000000000000000000016916323b872dd9160648083019260209291908290030181600087803b15801561015d57600080fd5b505af1158015610171573d6000803e3d6000fd5b505050506040513d602081101561018757600080fd5b5050604080517f095ea7b300000000000000000000000000000000000000000000000000000000815273ffffffffffffffffffffffffffffffffffffffff7f0000000000000000000000000000000000000000000000000000000000000000811660048301526024820184905291517f00000000000000000000000000000000000000000000000000000000000000009092169163095ea7b3916044808201926020929091908290030181600087803b15801561024357600080fd5b505af1158015610257573d6000803e3d6000fd5b505050506040513d602081101561026d57600080fd5b5050604080517f7acb775700000000000000000000000000000000000000000000000000000000815260048101839052336024820152905173ffffffffffffffffffffffffffffffffffffffff7f00000000000000000000000000000000000000000000000000000000000000001691637acb77579160448083019260209291908290030181600087803b15801561030457600080fd5b505af1158015610318573d6000803e3d6000fd5b505050506040513d602081101561032e57600080fd5b5050604080517f1e83409a000000000000000000000000000000000000000000000000000000008152336004820152905173ffffffffffffffffffffffffffffffffffffffff7f00000000000000000000000000000000000000000000000000000000000000001691631e83409a91602480830192600092919082900301818387803b1580156103bd57600080fd5b505af11580156103d1573d6000803e3d6000fd5b5050505050565b7f00000000000000000000000000000000000000000000000000000000000000008156fea164736f6c6343000705000a",
  "linkReferences": {},
  "deployedLinkReferences": {}
}