{
  "_format": "hh-sol-artifact-1",
  "contractName": "sApe",
  "sourceName": "contracts/sApeERC20.sol",
  "abi": [
    {
      "inputs": [],
      "stateMutability": "nonpayable",
      "type": "constructor"
    },
    {
      "anonymous": false,
      "inputs": [
        {
          "indexed": true,
          "internalType": "address",
          "name": "owner",
          "type": "address"
        },
        {
          "indexed": true,
          "internalType": "address",
          "name": "spender",
          "type": "address"
        },
        {
          "indexed": false,
          "internalType": "uint256",
          "name": "value",
          "type": "uint256"
        }
      ],
      "name": "Approval",
      "type": "event"
    },
    {
      "anonymous": false,
      "inputs": [
        {
          "indexed": true,
          "internalType": "uint256",
          "name": "epoch",
          "type": "uint256"
        },
        {
          "indexed": false,
          "internalType": "uint256",
          "name": "rebase",
          "type": "uint256"
        },
        {
          "indexed": false,
          "internalType": "uint256",
          "name": "index",
          "type": "uint256"
        }
      ],
      "name": "LogRebase",
      "type": "event"
    },
    {
      "anonymous": false,
      "inputs": [
        {
          "indexed": false,
          "internalType": "address",
          "name": "stakingContract",
          "type": "address"
        }
      ],
      "name": "LogStakingContractUpdated",
      "type": "event"
    },
    {
      "anonymous": false,
      "inputs": [
        {
          "indexed": true,
          "internalType": "uint256",
          "name": "epoch",
          "type": "uint256"
        },
        {
          "indexed": false,
          "internalType": "uint256",
          "name": "timestamp",
          "type": "uint256"
        },
        {
          "indexed": false,
          "internalType": "uint256",
          "name": "totalSupply",
          "type": "uint256"
        }
      ],
      "name": "LogSupply",
      "type": "event"
    },
    {
      "anonymous": false,
      "inputs": [
        {
          "indexed": true,
          "internalType": "address",
          "name": "previousOwner",
          "type": "address"
        },
        {
          "indexed": true,
          "internalType": "address",
          "name": "newOwner",
          "type": "address"
        }
      ],
      "name": "OwnershipPulled",
      "type": "event"
    },
    {
      "anonymous": false,
      "inputs": [
        {
          "indexed": true,
          "internalType": "address",
          "name": "previousOwner",
          "type": "address"
        },
        {
          "indexed": true,
          "internalType": "address",
          "name": "newOwner",
          "type": "address"
        }
      ],
      "name": "OwnershipPushed",
      "type": "event"
    },
    {
      "anonymous": false,
      "inputs": [
        {
          "indexed": true,
          "internalType": "address",
          "name": "from",
          "type": "address"
        },
        {
          "indexed": true,
          "internalType": "address",
          "name": "to",
          "type": "address"
        },
        {
          "indexed": false,
          "internalType": "uint256",
          "name": "value",
          "type": "uint256"
        }
      ],
      "name": "Transfer",
      "type": "event"
    },
    {
      "inputs": [],
      "name": "DOMAIN_SEPARATOR",
      "outputs": [
        {
          "internalType": "bytes32",
          "name": "",
          "type": "bytes32"
        }
      ],
      "stateMutability": "view",
      "type": "function"
    },
    {
      "inputs": [],
      "name": "INDEX",
      "outputs": [
        {
          "internalType": "uint256",
          "name": "",
          "type": "uint256"
        }
      ],
      "stateMutability": "view",
      "type": "function"
    },
    {
      "inputs": [],
      "name": "PERMIT_TYPEHASH",
      "outputs": [
        {
          "internalType": "bytes32",
          "name": "",
          "type": "bytes32"
        }
      ],
      "stateMutability": "view",
      "type": "function"
    },
    {
      "inputs": [
        {
          "internalType": "address",
          "name": "owner_",
          "type": "address"
        },
        {
          "internalType": "address",
          "name": "spender",
          "type": "address"
        }
      ],
      "name": "allowance",
      "outputs": [
        {
          "internalType": "uint256",
          "name": "",
          "type": "uint256"
        }
      ],
      "stateMutability": "view",
      "type": "function"
    },
    {
      "inputs": [
        {
          "internalType": "address",
          "name": "spender",
          "type": "address"
        },
        {
          "internalType": "uint256",
          "name": "value",
          "type": "uint256"
        }
      ],
      "name": "approve",
      "outputs": [
        {
          "internalType": "bool",
          "name": "",
          "type": "bool"
        }
      ],
      "stateMutability": "nonpayable",
      "type": "function"
    },
    {
      "inputs": [
        {
          "internalType": "uint256",
          "name": "gons",
          "type": "uint256"
        }
      ],
      "name": "balanceForGons",
      "outputs": [
        {
          "internalType": "uint256",
          "name": "",
          "type": "uint256"
        }
      ],
      "stateMutability": "view",
      "type": "function"
    },
    {
      "inputs": [
        {
          "internalType": "address",
          "name": "who",
          "type": "address"
        }
      ],
      "name": "balanceOf",
      "outputs": [
        {
          "internalType": "uint256",
          "name": "",
          "type": "uint256"
        }
      ],
      "stateMutability": "view",
      "type": "function"
    },
    {
      "inputs": [],
      "name": "circulatingSupply",
      "outputs": [
        {
          "internalType": "uint256",
          "name": "",
          "type": "uint256"
        }
      ],
      "stateMutability": "view",
      "type": "function"
    },
    {
      "inputs": [],
      "name": "decimals",
      "outputs": [
        {
          "internalType": "uint8",
          "name": "",
          "type": "uint8"
        }
      ],
      "stateMutability": "view",
      "type": "function"
    },
    {
      "inputs": [
        {
          "internalType": "address",
          "name": "spender",
          "type": "address"
        },
        {
          "internalType": "uint256",
          "name": "subtractedValue",
          "type": "uint256"
        }
      ],
      "name": "decreaseAllowance",
      "outputs": [
        {
          "internalType": "bool",
          "name": "",
          "type": "bool"
        }
      ],
      "stateMutability": "nonpayable",
      "type": "function"
    },
    {
      "inputs": [
        {
          "internalType": "uint256",
          "name": "amount",
          "type": "uint256"
        }
      ],
      "name": "gonsForBalance",
      "outputs": [
        {
          "internalType": "uint256",
          "name": "",
          "type": "uint256"
        }
      ],
      "stateMutability": "view",
      "type": "function"
    },
    {
      "inputs": [
        {
          "internalType": "address",
          "name": "spender",
          "type": "address"
        },
        {
          "internalType": "uint256",
          "name": "addedValue",
          "type": "uint256"
        }
      ],
      "name": "increaseAllowance",
      "outputs": [
        {
          "internalType": "bool",
          "name": "",
          "type": "bool"
        }
      ],
      "stateMutability": "nonpayable",
      "type": "function"
    },
    {
      "inputs": [],
      "name": "index",
      "outputs": [
        {
          "internalType": "uint256",
          "name": "",
          "type": "uint256"
        }
      ],
      "stateMutability": "view",
      "type": "function"
    },
    {
      "inputs": [
        {
          "internalType": "address",
          "name": "stakingContract_",
          "type": "address"
        }
      ],
      "name": "initialize",
      "outputs": [
        {
          "internalType": "bool",
          "name": "",
          "type": "bool"
        }
      ],
      "stateMutability": "nonpayable",
      "type": "function"
    },
    {
      "inputs": [],
      "name": "initializer",
      "outputs": [
        {
          "internalType": "address",
          "name": "",
          "type": "address"
        }
      ],
      "stateMutability": "view",
      "type": "function"
    },
    {
      "inputs": [],
      "name": "manager",
      "outputs": [
        {
          "internalType": "address",
          "name": "",
          "type": "address"
        }
      ],
      "stateMutability": "view",
      "type": "function"
    },
    {
      "inputs": [],
      "name": "name",
      "outputs": [
        {
          "internalType": "string",
          "name": "",
          "type": "string"
        }
      ],
      "stateMutability": "view",
      "type": "function"
    },
    {
      "inputs": [
        {
          "internalType": "address",
          "name": "owner",
          "type": "address"
        }
      ],
      "name": "nonces",
      "outputs": [
        {
          "internalType": "uint256",
          "name": "",
          "type": "uint256"
        }
      ],
      "stateMutability": "view",
      "type": "function"
    },
    {
      "inputs": [
        {
          "internalType": "address",
          "name": "owner",
          "type": "address"
        },
        {
          "internalType": "address",
          "name": "spender",
          "type": "address"
        },
        {
          "internalType": "uint256",
          "name": "amount",
          "type": "uint256"
        },
        {
          "internalType": "uint256",
          "name": "deadline",
          "type": "uint256"
        },
        {
          "internalType": "uint8",
          "name": "v",
          "type": "uint8"
        },
        {
          "internalType": "bytes32",
          "name": "r",
          "type": "bytes32"
        },
        {
          "internalType": "bytes32",
          "name": "s",
          "type": "bytes32"
        }
      ],
      "name": "permit",
      "outputs": [],
      "stateMutability": "nonpayable",
      "type": "function"
    },
    {
      "inputs": [],
      "name": "pullManagement",
      "outputs": [],
      "stateMutability": "nonpayable",
      "type": "function"
    },
    {
      "inputs": [
        {
          "internalType": "address",
          "name": "newOwner_",
          "type": "address"
        }
      ],
      "name": "pushManagement",
      "outputs": [],
      "stateMutability": "nonpayable",
      "type": "function"
    },
    {
      "inputs": [
        {
          "internalType": "uint256",
          "name": "profit_",
          "type": "uint256"
        },
        {
          "internalType": "uint256",
          "name": "epoch_",
          "type": "uint256"
        }
      ],
      "name": "rebase",
      "outputs": [
        {
          "internalType": "uint256",
          "name": "",
          "type": "uint256"
        }
      ],
      "stateMutability": "nonpayable",
      "type": "function"
    },
    {
      "inputs": [
        {
          "internalType": "uint256",
          "name": "",
          "type": "uint256"
        }
      ],
      "name": "rebases",
      "outputs": [
        {
          "internalType": "uint256",
          "name": "epoch",
          "type": "uint256"
        },
        {
          "internalType": "uint256",
          "name": "rebase",
          "type": "uint256"
        },
        {
          "internalType": "uint256",
          "name": "totalStakedBefore",
          "type": "uint256"
        },
        {
          "internalType": "uint256",
          "name": "totalStakedAfter",
          "type": "uint256"
        },
        {
          "internalType": "uint256",
          "name": "amountRebased",
          "type": "uint256"
        },
        {
          "internalType": "uint256",
          "name": "index",
          "type": "uint256"
        },
        {
          "internalType": "uint256",
          "name": "blockNumberOccured",
          "type": "uint256"
        }
      ],
      "stateMutability": "view",
      "type": "function"
    },
    {
      "inputs": [],
      "name": "renounceManagement",
      "outputs": [],
      "stateMutability": "nonpayable",
      "type": "function"
    },
    {
      "inputs": [
        {
          "internalType": "uint256",
          "name": "_INDEX",
          "type": "uint256"
        }
      ],
      "name": "setIndex",
      "outputs": [
        {
          "internalType": "bool",
          "name": "",
          "type": "bool"
        }
      ],
      "stateMutability": "nonpayable",
      "type": "function"
    },
    {
      "inputs": [],
      "name": "stakingContract",
      "outputs": [
        {
          "internalType": "address",
          "name": "",
          "type": "address"
        }
      ],
      "stateMutability": "view",
      "type": "function"
    },
    {
      "inputs": [],
      "name": "symbol",
      "outputs": [
        {
          "internalType": "string",
          "name": "",
          "type": "string"
        }
      ],
      "stateMutability": "view",
      "type": "function"
    },
    {
      "inputs": [],
      "name": "totalSupply",
      "outputs": [
        {
          "internalType": "uint256",
          "name": "",
          "type": "uint256"
        }
      ],
      "stateMutability": "view",
      "type": "function"
    },
    {
      "inputs": [
        {
          "internalType": "address",
          "name": "to",
          "type": "address"
        },
        {
          "internalType": "uint256",
          "name": "value",
          "type": "uint256"
        }
      ],
      "name": "transfer",
      "outputs": [
        {
          "internalType": "bool",
          "name": "",
          "type": "bool"
        }
      ],
      "stateMutability": "nonpayable",
      "type": "function"
    },
    {
      "inputs": [
        {
          "internalType": "address",
          "name": "from",
          "type": "address"
        },
        {
          "internalType": "address",
          "name": "to",
          "type": "address"
        },
        {
          "internalType": "uint256",
          "name": "value",
          "type": "uint256"
        }
      ],
      "name": "transferFrom",
      "outputs": [
        {
          "internalType": "bool",
          "name": "",
          "type": "bool"
        }
      ],
      "stateMutability": "nonpayable",
      "type": "function"
    }
  ],
  "bytecode": "0x60806040523480156200001157600080fd5b50604080518082018252600f81526e5374616b6564204150452042414e4b60881b6020808301918252835180850190945260048452637341504560e01b90840152815191929160099162000069916003919062000366565b5081516200007f90600490602085019062000366565b506005805460ff191660ff92909216919091179055504690507f8b73c3c69bb8fe3d512ecc4cf759cc79239f7b179b0ffacaa9a75d522b39400f620000c3620001d4565b805160209182012060408051808201825260018152603160f81b90840152805180840194909452838101919091527fc89efdaa54c0f20c7adf612882df0950f5a951637e0307cdcb4c672f298b8bc6606084015260808301939093523060a0808401919091528351808403909101815260c0909201928390528151910120600755600880546001600160a01b0319163317908190556001600160a01b0316906000907fea8258f2d9ddb679928cf34b78cf645b7feda9acc828e4dd82d014eaae270eba908290a3600b80546001600160a01b031916331790556611c37937e080006002819055620001cb908060001906600019036200026e60201b620015b11790919060201c565b600e5562000412565b60038054604080516020601f6002600019610100600188161502019095169490940493840181900481028201810190925282815260609390929091830182828015620002645780601f10620002385761010080835404028352916020019162000264565b820191906000526020600020905b8154815290600101906020018083116200024657829003601f168201915b5050505050905090565b6000620002b883836040518060400160405280601a81526020017f536166654d6174683a206469766973696f6e206279207a65726f000000000000815250620002bf60201b60201c565b9392505050565b600081836200034f5760405162461bcd60e51b81526004018080602001828103825283818151815260200191508051906020019080838360005b8381101562000313578181015183820152602001620002f9565b50505050905090810190601f168015620003415780820380516001836020036101000a031916815260200191505b509250505060405180910390fd5b5060008385816200035c57fe5b0495945050505050565b828054600181600116156101000203166002900490600052602060002090601f0160209004810192826200039e5760008555620003e9565b82601f10620003b957805160ff1916838001178555620003e9565b82800160010185558215620003e9579182015b82811115620003e9578251825591602001919060010190620003cc565b50620003f7929150620003fb565b5090565b5b80821115620003f75760008155600101620003fc565b611aa080620004226000396000f3fe608060405234801561001057600080fd5b50600436106101da5760003560e01c8063481c6a751161010457806395d89b41116100a2578063c4d66de811610071578063c4d66de81461053d578063d505accf14610563578063dd62ed3e146105b4578063ee99205c146105e2576101da565b806395d89b41146104d55780639ce110d7146104dd578063a457c2d7146104e5578063a9059cbb14610511576101da565b806373c69eb7116100de57806373c69eb7146104355780637965d56d1461048a5780637ecebe00146104a75780639358928b146104cd576101da565b8063481c6a75146103e35780635a96ac0a1461040757806370a082311461040f576101da565b80632986c0e51161017c5780633644e5151161014b5780633644e5151461036c578063395093511461037457806340a5737f146103a057806346f68ee9146103bd576101da565b80632986c0e5146103365780632df75cb11461033e57806330adf81f14610346578063313ce5671461034e576101da565b8063095ea7b3116101b8578063095ea7b31461029b57806318160ddd146102db5780631bd39674146102e357806323b872dd14610300576101da565b8063058ecdb4146101df57806306fdde0314610214578063089208d814610291575b600080fd5b610202600480360360408110156101f557600080fd5b50803590602001356105ea565b60408051918252519081900360200190f35b61021c61075e565b6040805160208082528351818301528351919283929083019185019080838360005b8381101561025657818101518382015260200161023e565b50505050905090810190601f1680156102835780820380516001836020036101000a031916815260200191505b509250505060405180910390f35b610299610812565b005b6102c7600480360360408110156102b157600080fd5b506001600160a01b0381351690602001356108ed565b604080519115158252519081900360200190f35b610202610953565b610202600480360360208110156102f957600080fd5b5035610959565b6102c76004803603606081101561031657600080fd5b506001600160a01b03813581169160208101359091169060400135610970565b610202610abc565b610202610ace565b610202610ad4565b610356610af8565b6040805160ff9092168252519081900360200190f35b610202610b01565b6102c76004803603604081101561038a57600080fd5b506001600160a01b038135169060200135610b07565b6102c7600480360360208110156103b657600080fd5b5035610b9a565b610299600480360360208110156103d357600080fd5b50356001600160a01b0316610c37565b6103eb610d83565b604080516001600160a01b039092168252519081900360200190f35b610299610d92565b6102026004803603602081101561042557600080fd5b50356001600160a01b0316610e70565b6104526004803603602081101561044b57600080fd5b5035610e98565b604080519788526020880196909652868601949094526060860192909252608085015260a084015260c0830152519081900360e00190f35b610202600480360360208110156104a057600080fd5b5035610eea565b610202600480360360208110156104bd57600080fd5b50356001600160a01b0316610f01565b610202610f22565b61021c610f47565b6103eb610fc6565b6102c7600480360360408110156104fb57600080fd5b506001600160a01b038135169060200135610fd5565b6102c76004803603604081101561052757600080fd5b506001600160a01b0381351690602001356110be565b6102c76004803603602081101561055357600080fd5b50356001600160a01b031661117e565b610299600480360360e081101561057957600080fd5b506001600160a01b03813581169160208101359091169060408101359060608101359060ff6080820135169060a08101359060c001356112bf565b610202600480360360408110156105ca57600080fd5b506001600160a01b0381358116916020013516611577565b6103eb6115a2565b600a546000906001600160a01b0316331461060457600080fd5b60008061060f610f22565b9050846106a557600254604080514281526020810192909252805186927f917acfbe39be6509ccf7fecb66a7e42ce2be1083c2d7dd3b9b7491dabddb8da492908290030190a2837f6012dbce857565c4a40974aa5de8373a761fc429077ef0c8c8611d1e20d63fb26000610681610abc565b6040805192835260208301919091528051918290030190a260025492505050610758565b80156106d1576106ca816106c4600254886115fa90919063ffffffff16565b906115b1565b91506106d5565b8491505b6002546106e2908361166d565b60028190556fffffffffffffffffffffffffffffffff1015610713576fffffffffffffffffffffffffffffffff6002555b600254610741907ffffffffffffffffffffffffffffffffffffffffffffffffffff1c2d3019e0000906115b1565b600e5561074f8186866116e1565b50600254925050505b92915050565b60038054604080516020601f60027fffffffffffffffffffffffffffffffffffffffffffffffffffffffffffffffff6101006001881615020190951694909404938401819004810282018101909252828152606093909290918301828280156108085780601f106107dd57610100808354040283529160200191610808565b820191906000526020600020905b8154815290600101906020018083116107eb57829003601f168201915b5050505050905090565b6008546001600160a01b0316331461088b57604080517f08c379a000000000000000000000000000000000000000000000000000000000815260206004820181905260248201527f4f776e61626c653a2063616c6c6572206973206e6f7420746865206f776e6572604482015290519081900360640190fd5b6008546040516000916001600160a01b0316907fea8258f2d9ddb679928cf34b78cf645b7feda9acc828e4dd82d014eaae270eba908390a3600880547fffffffffffffffffffffffff0000000000000000000000000000000000000000169055565b3360008181526010602090815260408083206001600160a01b038716808552908352818420869055815186815291519394909390927f8c5be1e5ebec7d5bd14f71427d1e84f3dd0314c0f7b2291e5b200ac8c7c3b925928290030190a350600192915050565b60025490565b6000610758600e54836115fa90919063ffffffff16565b6001600160a01b038316600090815260106020908152604080832033845290915281205461099e9083611828565b6001600160a01b0385166000818152601060209081526040808320338085529083529281902085905580519485525191937f8c5be1e5ebec7d5bd14f71427d1e84f3dd0314c0f7b2291e5b200ac8c7c3b925929081900390910190a36000610a0583610959565b6001600160a01b0386166000908152600f6020526040902054909150610a2b9082611828565b6001600160a01b038087166000908152600f60205260408082209390935590861681522054610a5a908261166d565b6001600160a01b038086166000818152600f602090815260409182902094909455805187815290519193928916927fddf252ad1be2c89b69c2b068fc378daa952ba7f163c4a11628f55a4df523b3ef92918290030190a3506001949350505050565b6000610ac9600d54610eea565b905090565b600d5481565b7f6e71edae12b1b97f4d1f60370fef10105fa2faae0126114a169c64845d6126c981565b60055460ff1690565b60075481565b3360009081526010602090815260408083206001600160a01b0386168452909152812054610b35908361166d565b3360008181526010602090815260408083206001600160a01b0389168085529083529281902085905580519485525191937f8c5be1e5ebec7d5bd14f71427d1e84f3dd0314c0f7b2291e5b200ac8c7c3b925929081900390910190a350600192915050565b6008546000906001600160a01b03163314610c1657604080517f08c379a000000000000000000000000000000000000000000000000000000000815260206004820181905260248201527f4f776e61626c653a2063616c6c6572206973206e6f7420746865206f776e6572604482015290519081900360640190fd5b600d5415610c2357600080fd5b610c2c82610959565b600d55506001919050565b6008546001600160a01b03163314610cb057604080517f08c379a000000000000000000000000000000000000000000000000000000000815260206004820181905260248201527f4f776e61626c653a2063616c6c6572206973206e6f7420746865206f776e6572604482015290519081900360640190fd5b6001600160a01b038116610d0f576040517f08c379a0000000000000000000000000000000000000000000000000000000008152600401808060200182810382526026815260200180611a0a6026913960400191505060405180910390fd5b6008546040516001600160a01b038084169216907fea8258f2d9ddb679928cf34b78cf645b7feda9acc828e4dd82d014eaae270eba90600090a3600980547fffffffffffffffffffffffff0000000000000000000000000000000000000000166001600160a01b0392909216919091179055565b6008546001600160a01b031690565b6009546001600160a01b03163314610df5576040517f08c379a0000000000000000000000000000000000000000000000000000000008152600401808060200182810382526022815260200180611a306022913960400191505060405180910390fd5b6009546008546040516001600160a01b0392831692909116907faa151555690c956fc3ea32f106bb9f119b5237a061eaa8557cff3e51e3792c8d90600090a3600954600880547fffffffffffffffffffffffff0000000000000000000000000000000000000000166001600160a01b03909216919091179055565b600e546001600160a01b0382166000908152600f6020526040812054909161075891906115b1565b600c8181548110610ea857600080fd5b90600052602060002090600702016000915090508060000154908060010154908060020154908060030154908060040154908060050154908060060154905087565b6000610758600e54836115b190919063ffffffff16565b6001600160a01b03811660009081526006602052604081206107589061186a565b600a54600090610ac990610f3e906001600160a01b0316610e70565b60025490611828565b60048054604080516020601f60027fffffffffffffffffffffffffffffffffffffffffffffffffffffffffffffffff6101006001881615020190951694909404938401819004810282018101909252828152606093909290918301828280156108085780601f106107dd57610100808354040283529160200191610808565b600b546001600160a01b031681565b3360009081526010602090815260408083206001600160a01b0386168452909152812054808310611029573360009081526010602090815260408083206001600160a01b0388168452909152812055611058565b6110338184611828565b3360009081526010602090815260408083206001600160a01b03891684529091529020555b3360008181526010602090815260408083206001600160a01b0389168085529083529281902054815190815290519293927f8c5be1e5ebec7d5bd14f71427d1e84f3dd0314c0f7b2291e5b200ac8c7c3b925929181900390910190a35060019392505050565b6000806110d6600e54846115fa90919063ffffffff16565b336000908152600f60205260409020549091506110f39082611828565b336000908152600f6020526040808220929092556001600160a01b0386168152205461111f908261166d565b6001600160a01b0385166000818152600f60209081526040918290209390935580518681529051919233927fddf252ad1be2c89b69c2b068fc378daa952ba7f163c4a11628f55a4df523b3ef9281900390910190a35060019392505050565b600b546000906001600160a01b0316331461119857600080fd5b6001600160a01b0382166111ab57600080fd5b600a80547fffffffffffffffffffffffff0000000000000000000000000000000000000000166001600160a01b038481169190911780835581166000908152600f602090815260408083207ffffffffffffffffffffffffffffffffffffffffffffffffffff1c2d3019e0000905593546002548551908152945193169391927fddf252ad1be2c89b69c2b068fc378daa952ba7f163c4a11628f55a4df523b3ef9281900390910190a3604080516001600160a01b038416815290517f817c653428858ed536dc085c5d8273734c517b55de44b55f5c5877a75e3373a19181900360200190a15050600b80547fffffffffffffffffffffffff0000000000000000000000000000000000000000169055600190565b8342111561132e57604080517f08c379a000000000000000000000000000000000000000000000000000000000815260206004820152601860248201527f5065726d69743a206578706972656420646561646c696e650000000000000000604482015290519081900360640190fd5b6001600160a01b03871660009081526006602052604081207f6e71edae12b1b97f4d1f60370fef10105fa2faae0126114a169c64845d6126c9908990899089906113779061186a565b604080516020808201979097526001600160a01b0395861681830152939094166060840152608083019190915260a082015260c08082018990528251808303909101815260e0820183528051908401206007547f1901000000000000000000000000000000000000000000000000000000000000610100840152610102830152610122808301829052835180840390910181526101428301808552815191860191909120600091829052610162840180865281905260ff8a166101828501526101a284018990526101c28401889052935191955092936001926101e2808201937fffffffffffffffffffffffffffffffffffffffffffffffffffffffffffffffe081019281900390910190855afa158015611496573d6000803e3d6000fd5b50506040517fffffffffffffffffffffffffffffffffffffffffffffffffffffffffffffffe001519150506001600160a01b038116158015906114ea5750896001600160a01b0316816001600160a01b0316145b61153f576040517f08c379a0000000000000000000000000000000000000000000000000000000008152600401808060200182810382526021815260200180611a526021913960400191505060405180910390fd5b6001600160a01b038a1660009081526006602052604090206115609061186e565b61156b8a8a8a611877565b50505050505050505050565b6001600160a01b03918216600090815260106020908152604080832093909416825291909152205490565b600a546001600160a01b031681565b60006115f383836040518060400160405280601a81526020017f536166654d6174683a206469766973696f6e206279207a65726f0000000000008152506118d9565b9392505050565b60008261160957506000610758565b8282028284828161161657fe5b04146115f3576040517f08c379a0000000000000000000000000000000000000000000000000000000008152600401808060200182810382526021815260200180611a736021913960400191505060405180910390fd5b6000828201838110156115f357604080517f08c379a000000000000000000000000000000000000000000000000000000000815260206004820152601b60248201527f536166654d6174683a206164646974696f6e206f766572666c6f770000000000604482015290519081900360640190fd5b6000806116fa856106c486670de0b6b3a76400006115fa565b9050600c6040518060e00160405280858152602001838152602001878152602001611723610f22565b8152602001868152602001611736610abc565b81524360209182015282546001818101855560009485529382902083516007909202019081558282015193810193909355604080830151600280860191909155606084015160038601556080840151600486015560a0840151600586015560c0909301516006909401939093559054825142815291820152815185927f917acfbe39be6509ccf7fecb66a7e42ce2be1083c2d7dd3b9b7491dabddb8da4928290030190a2827f6012dbce857565c4a40974aa5de8373a761fc429077ef0c8c8611d1e20d63fb282611805610abc565b6040805192835260208301919091528051918290030190a2506001949350505050565b60006115f383836040518060400160405280601e81526020017f536166654d6174683a207375627472616374696f6e206f766572666c6f770000815250611995565b5490565b80546001019055565b6001600160a01b03808416600081815260106020908152604080832094871680845294825291829020859055815185815291517f8c5be1e5ebec7d5bd14f71427d1e84f3dd0314c0f7b2291e5b200ac8c7c3b9259281900390910190a3505050565b6000818361197f576040517f08c379a00000000000000000000000000000000000000000000000000000000081526004018080602001828103825283818151815260200191508051906020019080838360005b8381101561194457818101518382015260200161192c565b50505050905090810190601f1680156119715780820380516001836020036101000a031916815260200191505b509250505060405180910390fd5b50600083858161198b57fe5b0495945050505050565b60008184841115611a01576040517f08c379a000000000000000000000000000000000000000000000000000000000815260206004820181815283516024840152835190928392604490910191908501908083836000831561194457818101518382015260200161192c565b50505090039056fe4f776e61626c653a206e6577206f776e657220697320746865207a65726f20616464726573734f776e61626c653a206d757374206265206e6577206f776e657220746f2070756c6c5a65726f537761705065726d69743a20496e76616c6964207369676e6174757265536166654d6174683a206d756c7469706c69636174696f6e206f766572666c6f77a164736f6c6343000705000a",
  "linkReferences": {},
  "deployedLinkReferences": {}
}