{
  "_format": "hh-sol-artifact-1",
  "contractName": "Distributor",
  "sourceName": "contracts/StakingDistributor.sol",
  "abi": [
    {
      "inputs": [
        {
          "internalType": "address",
          "name": "_treasury",
          "type": "address"
        },
        {
          "internalType": "address",
          "name": "_ohm",
          "type": "address"
        },
        {
          "internalType": "uint256",
          "name": "_epochLength",
          "type": "uint256"
        },
        {
          "internalType": "uint256",
          "name": "_nextEpochBlock",
          "type": "uint256"
        }
      ],
      "stateMutability": "nonpayable",
      "type": "constructor"
    },
    {
      "anonymous": false,
      "inputs": [
        {
          "indexed": true,
          "internalType": "address",
          "name": "previousOwner",
          "type": "address"
        },
        {
          "indexed": true,
          "internalType": "address",
          "name": "newOwner",
          "type": "address"
        }
      ],
      "name": "OwnershipTransferred",
      "type": "event"
    },
    {
      "inputs": [],
      "name": "OHM",
      "outputs": [
        {
          "internalType": "address",
          "name": "",
          "type": "address"
        }
      ],
      "stateMutability": "view",
      "type": "function"
    },
    {
      "inputs": [
        {
          "internalType": "address",
          "name": "_recipient",
          "type": "address"
        },
        {
          "internalType": "uint256",
          "name": "_rewardRate",
          "type": "uint256"
        }
      ],
      "name": "addRecipient",
      "outputs": [],
      "stateMutability": "nonpayable",
      "type": "function"
    },
    {
      "inputs": [
        {
          "internalType": "uint256",
          "name": "",
          "type": "uint256"
        }
      ],
      "name": "adjustments",
      "outputs": [
        {
          "internalType": "bool",
          "name": "add",
          "type": "bool"
        },
        {
          "internalType": "uint256",
          "name": "rate",
          "type": "uint256"
        },
        {
          "internalType": "uint256",
          "name": "target",
          "type": "uint256"
        }
      ],
      "stateMutability": "view",
      "type": "function"
    },
    {
      "inputs": [],
      "name": "distribute",
      "outputs": [
        {
          "internalType": "bool",
          "name": "",
          "type": "bool"
        }
      ],
      "stateMutability": "nonpayable",
      "type": "function"
    },
    {
      "inputs": [],
      "name": "epochLength",
      "outputs": [
        {
          "internalType": "uint256",
          "name": "",
          "type": "uint256"
        }
      ],
      "stateMutability": "view",
      "type": "function"
    },
    {
      "inputs": [
        {
          "internalType": "uint256",
          "name": "",
          "type": "uint256"
        }
      ],
      "name": "info",
      "outputs": [
        {
          "internalType": "uint256",
          "name": "rate",
          "type": "uint256"
        },
        {
          "internalType": "address",
          "name": "recipient",
          "type": "address"
        }
      ],
      "stateMutability": "view",
      "type": "function"
    },
    {
      "inputs": [],
      "name": "nextEpochBlock",
      "outputs": [
        {
          "internalType": "uint256",
          "name": "",
          "type": "uint256"
        }
      ],
      "stateMutability": "view",
      "type": "function"
    },
    {
      "inputs": [
        {
          "internalType": "uint256",
          "name": "_rate",
          "type": "uint256"
        }
      ],
      "name": "nextRewardAt",
      "outputs": [
        {
          "internalType": "uint256",
          "name": "",
          "type": "uint256"
        }
      ],
      "stateMutability": "view",
      "type": "function"
    },
    {
      "inputs": [
        {
          "internalType": "address",
          "name": "_recipient",
          "type": "address"
        }
      ],
      "name": "nextRewardFor",
      "outputs": [
        {
          "internalType": "uint256",
          "name": "",
          "type": "uint256"
        }
      ],
      "stateMutability": "view",
      "type": "function"
    },
    {
      "inputs": [],
      "name": "policy",
      "outputs": [
        {
          "internalType": "address",
          "name": "",
          "type": "address"
        }
      ],
      "stateMutability": "view",
      "type": "function"
    },
    {
      "inputs": [],
      "name": "pullPolicy",
      "outputs": [],
      "stateMutability": "nonpayable",
      "type": "function"
    },
    {
      "inputs": [
        {
          "internalType": "address",
          "name": "newPolicy_",
          "type": "address"
        }
      ],
      "name": "pushPolicy",
      "outputs": [],
      "stateMutability": "nonpayable",
      "type": "function"
    },
    {
      "inputs": [
        {
          "internalType": "uint256",
          "name": "_index",
          "type": "uint256"
        },
        {
          "internalType": "address",
          "name": "_recipient",
          "type": "address"
        }
      ],
      "name": "removeRecipient",
      "outputs": [],
      "stateMutability": "nonpayable",
      "type": "function"
    },
    {
      "inputs": [],
      "name": "renouncePolicy",
      "outputs": [],
      "stateMutability": "nonpayable",
      "type": "function"
    },
    {
      "inputs": [
        {
          "internalType": "uint256",
          "name": "_index",
          "type": "uint256"
        },
        {
          "internalType": "bool",
          "name": "_add",
          "type": "bool"
        },
        {
          "internalType": "uint256",
          "name": "_rate",
          "type": "uint256"
        },
        {
          "internalType": "uint256",
          "name": "_target",
          "type": "uint256"
        }
      ],
      "name": "setAdjustment",
      "outputs": [],
      "stateMutability": "nonpayable",
      "type": "function"
    },
    {
      "inputs": [],
      "name": "treasury",
      "outputs": [
        {
          "internalType": "address",
          "name": "",
          "type": "address"
        }
      ],
      "stateMutability": "view",
      "type": "function"
    }
  ],
  "bytecode": "0x60e060405234801561001057600080fd5b506040516113303803806113308339818101604052608081101561003357600080fd5b5080516020820151604080840151606090940151600080546001600160a01b031916331780825592519495939491926001600160a01b0316917f8be0079c531659141344cd1fd0a4f28419497f9722a3daafe3b4186f6b6457e0908290a36001600160a01b0384166100a457600080fd5b6001600160601b0319606085901b1660a0526001600160a01b0383166100c957600080fd5b6001600160601b031960609390931b9290921660805260c0526002555060805160601c60a05160601c60c05161120961012760003980610449528061096d52508061060f52806109ca52508061086152806108b752506112096000f3fe608060405234801561001057600080fd5b50600436106100ff5760003560e01c8063a15ad07711610097578063c9fa8b2a11610066578063c9fa8b2a14610298578063e4fc6b6d146102b5578063f7982243146102d1578063fe3fbbad1461030a576100ff565b8063a15ad07714610218578063a4b239801461024b578063a6c41fec14610253578063bc3b2b121461025b576100ff565b806357d775f8116100d357806357d775f8146101cd5780635beede08146101d55780635db854b0146101df57806361d027b314610210576100ff565b8062640c2e146101045780630505c8c91461011e5780632e3405991461014f57806336d33f441461019a575b600080fd5b61010c610343565b60408051918252519081900360200190f35b610126610349565b6040805173ffffffffffffffffffffffffffffffffffffffff9092168252519081900360200190f35b61016c6004803603602081101561016557600080fd5b5035610366565b6040805192835273ffffffffffffffffffffffffffffffffffffffff90911660208301528051918290030190f35b61010c600480360360208110156101b057600080fd5b503573ffffffffffffffffffffffffffffffffffffffff166103aa565b61010c610447565b6101dd61046b565b005b6101dd600480360360808110156101f557600080fd5b50803590602081013515159060408101359060600135610522565b61012661060d565b6101dd6004803603602081101561022e57600080fd5b503573ffffffffffffffffffffffffffffffffffffffff16610631565b6101dd61076a565b61012661085f565b6102786004803603602081101561027157600080fd5b5035610883565b604080519315158452602084019290925282820152519081900360600190f35b61010c600480360360208110156102ae57600080fd5b50356108a8565b6102bd610959565b604080519115158252519081900360200190f35b6101dd600480360360408110156102e757600080fd5b5073ffffffffffffffffffffffffffffffffffffffff8135169060200135610ae1565b6101dd6004803603604081101561032057600080fd5b508035906020013573ffffffffffffffffffffffffffffffffffffffff16610c41565b60025481565b60005473ffffffffffffffffffffffffffffffffffffffff165b90565b6004818154811061037657600080fd5b60009182526020909120600290910201805460019091015490915073ffffffffffffffffffffffffffffffffffffffff1682565b60008060005b600454811015610440578373ffffffffffffffffffffffffffffffffffffffff16600482815481106103de57fe5b600091825260209091206001600290920201015473ffffffffffffffffffffffffffffffffffffffff161415610438576104356004828154811061041e57fe5b9060005260206000209060020201600001546108a8565b91505b6001016103b0565b5092915050565b7f000000000000000000000000000000000000000000000000000000000000000081565b60015473ffffffffffffffffffffffffffffffffffffffff16331461048f57600080fd5b6001546000805460405173ffffffffffffffffffffffffffffffffffffffff93841693909116917f8be0079c531659141344cd1fd0a4f28419497f9722a3daafe3b4186f6b6457e091a3600154600080547fffffffffffffffffffffffff00000000000000000000000000000000000000001673ffffffffffffffffffffffffffffffffffffffff909216919091179055565b60005473ffffffffffffffffffffffffffffffffffffffff1633146105a857604080517f08c379a000000000000000000000000000000000000000000000000000000000815260206004820181905260248201527f4f776e61626c653a2063616c6c6572206973206e6f7420746865206f776e6572604482015290519081900360640190fd5b6040805160608101825293151584526020808501938452848201928352600095865260039052909320915182547fffffffffffffffffffffffffffffffffffffffffffffffffffffffffffffff00169015151782555160018201559051600290910155565b7f000000000000000000000000000000000000000000000000000000000000000081565b60005473ffffffffffffffffffffffffffffffffffffffff1633146106b757604080517f08c379a000000000000000000000000000000000000000000000000000000000815260206004820181905260248201527f4f776e61626c653a2063616c6c6572206973206e6f7420746865206f776e6572604482015290519081900360640190fd5b73ffffffffffffffffffffffffffffffffffffffff8116610723576040517f08c379a00000000000000000000000000000000000000000000000000000000081526004018080602001828103825260268152602001806111b66026913960400191505060405180910390fd5b600180547fffffffffffffffffffffffff00000000000000000000000000000000000000001673ffffffffffffffffffffffffffffffffffffffff92909216919091179055565b60005473ffffffffffffffffffffffffffffffffffffffff1633146107f057604080517f08c379a000000000000000000000000000000000000000000000000000000000815260206004820181905260248201527f4f776e61626c653a2063616c6c6572206973206e6f7420746865206f776e6572604482015290519081900360640190fd5b6000805460405173ffffffffffffffffffffffffffffffffffffffff909116907f8be0079c531659141344cd1fd0a4f28419497f9722a3daafe3b4186f6b6457e0908390a3600080547fffffffffffffffffffffffff0000000000000000000000000000000000000000169055565b7f000000000000000000000000000000000000000000000000000000000000000081565b60036020526000908152604090208054600182015460029092015460ff909116919083565b6000610953620f424061094d847f000000000000000000000000000000000000000000000000000000000000000073ffffffffffffffffffffffffffffffffffffffff166318160ddd6040518163ffffffff1660e01b815260040160206040518083038186803b15801561091b57600080fd5b505afa15801561092f573d6000803e3d6000fd5b505050506040513d602081101561094557600080fd5b505190610d8e565b90610e08565b92915050565b60004360025411610ad957600254610991907f0000000000000000000000000000000000000000000000000000000000000000610e4a565b60025560005b600454811015610acf576000600482815481106109b057fe5b9060005260206000209060020201600001541115610ac7577f000000000000000000000000000000000000000000000000000000000000000073ffffffffffffffffffffffffffffffffffffffff16636a20de9260048381548110610a1157fe5b906000526020600020906002020160010160009054906101000a900473ffffffffffffffffffffffffffffffffffffffff16610a536004858154811061041e57fe5b6040518363ffffffff1660e01b8152600401808373ffffffffffffffffffffffffffffffffffffffff16815260200182815260200192505050600060405180830381600087803b158015610aa657600080fd5b505af1158015610aba573d6000803e3d6000fd5b50505050610ac781610ebe565b600101610997565b5060019050610363565b506000610363565b60005473ffffffffffffffffffffffffffffffffffffffff163314610b6757604080517f08c379a000000000000000000000000000000000000000000000000000000000815260206004820181905260248201527f4f776e61626c653a2063616c6c6572206973206e6f7420746865206f776e6572604482015290519081900360640190fd5b73ffffffffffffffffffffffffffffffffffffffff8216610b8757600080fd5b6040805180820190915290815273ffffffffffffffffffffffffffffffffffffffff918216602082019081526004805460018101825560009190915291517f8a35acfbc15ff81a39ae7d344fd709f28e8600b4aa8c65c6b64bfe7fe36bd19b600290930292830155517f8a35acfbc15ff81a39ae7d344fd709f28e8600b4aa8c65c6b64bfe7fe36bd19c90910180547fffffffffffffffffffffffff00000000000000000000000000000000000000001691909216179055565b60005473ffffffffffffffffffffffffffffffffffffffff163314610cc757604080517f08c379a000000000000000000000000000000000000000000000000000000000815260206004820181905260248201527f4f776e61626c653a2063616c6c6572206973206e6f7420746865206f776e6572604482015290519081900360640190fd5b60048281548110610cd457fe5b600091825260209091206001600290920201015473ffffffffffffffffffffffffffffffffffffffff828116911614610d0c57600080fd5b600060048381548110610d1b57fe5b906000526020600020906002020160010160006101000a81548173ffffffffffffffffffffffffffffffffffffffff021916908373ffffffffffffffffffffffffffffffffffffffff160217905550600060048381548110610d7957fe5b60009182526020909120600290910201555050565b600082610d9d57506000610953565b82820282848281610daa57fe5b0414610e01576040517f08c379a00000000000000000000000000000000000000000000000000000000081526004018080602001828103825260218152602001806111dc6021913960400191505060405180910390fd5b9392505050565b6000610e0183836040518060400160405280601a81526020017f536166654d6174683a206469766973696f6e206279207a65726f000000000000815250611025565b600082820183811015610e0157604080517f08c379a000000000000000000000000000000000000000000000000000000000815260206004820152601b60248201527f536166654d6174683a206164646974696f6e206f766572666c6f770000000000604482015290519081900360640190fd5b610ec6611192565b506000818152600360209081526040918290208251606081018452815460ff16151581526001820154928101839052600290910154928101929092521561102157805115610f9a57610f3a816020015160048481548110610f2357fe5b600091825260209091206002909102015490610e4a565b60048381548110610f4757fe5b600091825260209091206002909102015560408101516004805484908110610f6b57fe5b90600052602060002090600202016000015410610f95576000828152600360205260408120600101555b611021565b610fc6816020015160048481548110610faf57fe5b6000918252602090912060029091020154906110e1565b60048381548110610fd357fe5b600091825260209091206002909102015560408101516004805484908110610ff757fe5b90600052602060002090600202016000015411611021576000828152600360205260408120600101555b5050565b600081836110cb576040517f08c379a00000000000000000000000000000000000000000000000000000000081526004018080602001828103825283818151815260200191508051906020019080838360005b83811015611090578181015183820152602001611078565b50505050905090810190601f1680156110bd5780820380516001836020036101000a031916815260200191505b509250505060405180910390fd5b5060008385816110d757fe5b0495945050505050565b6000610e0183836040518060400160405280601e81526020017f536166654d6174683a207375627472616374696f6e206f766572666c6f7700008152506000818484111561118a576040517f08c379a0000000000000000000000000000000000000000000000000000000008152602060048201818152835160248401528351909283926044909101919085019080838360008315611090578181015183820152602001611078565b505050900390565b60405180606001604052806000151581526020016000815260200160008152509056fe4f776e61626c653a206e6577206f776e657220697320746865207a65726f2061646472657373536166654d6174683a206d756c7469706c69636174696f6e206f766572666c6f77a164736f6c6343000705000a",
  "linkReferences": {},
  "deployedLinkReferences": {}
}