{
  "_format": "hh-sol-artifact-1",
  "contractName": "OHMCirculatingSupplyConrtact",
  "sourceName": "contracts/artifacts/OHMCirculatingSupplyConrtact.sol",
  "abi": [
    {
      "inputs": [
        {
          "internalType": "address",
          "name": "_owner",
          "type": "address"
        }
      ],
      "stateMutability": "nonpayable",
      "type": "constructor"
    },
    {
      "inputs": [],
      "name": "OHM",
      "outputs": [
        {
          "internalType": "address",
          "name": "",
          "type": "address"
        }
      ],
      "stateMutability": "view",
      "type": "function"
    },
    {
      "inputs": [],
      "name": "OHMCirculatingSupply",
      "outputs": [
        {
          "internalType": "uint256",
          "name": "",
          "type": "uint256"
        }
      ],
      "stateMutability": "view",
      "type": "function"
    },
    {
      "inputs": [],
      "name": "getNonCirculatingOHM",
      "outputs": [
        {
          "internalType": "uint256",
          "name": "",
          "type": "uint256"
        }
      ],
      "stateMutability": "view",
      "type": "function"
    },
    {
      "inputs": [
        {
          "internalType": "address",
          "name": "_ohm",
          "type": "address"
        }
      ],
      "name": "initialize",
      "outputs": [
        {
          "internalType": "bool",
          "name": "",
          "type": "bool"
        }
      ],
      "stateMutability": "nonpayable",
      "type": "function"
    },
    {
      "inputs": [],
      "name": "isInitialized",
      "outputs": [
        {
          "internalType": "bool",
          "name": "",
          "type": "bool"
        }
      ],
      "stateMutability": "view",
      "type": "function"
    },
    {
      "inputs": [
        {
          "internalType": "uint256",
          "name": "",
          "type": "uint256"
        }
      ],
      "name": "nonCirculatingOHMAddresses",
      "outputs": [
        {
          "internalType": "address",
          "name": "",
          "type": "address"
        }
      ],
      "stateMutability": "view",
      "type": "function"
    },
    {
      "inputs": [],
      "name": "owner",
      "outputs": [
        {
          "internalType": "address",
          "name": "",
          "type": "address"
        }
      ],
      "stateMutability": "view",
      "type": "function"
    },
    {
      "inputs": [
        {
          "internalType": "address[]",
          "name": "_nonCirculatingAddresses",
          "type": "address[]"
        }
      ],
      "name": "setNonCirculatingOHMAddresses",
      "outputs": [
        {
          "internalType": "bool",
          "name": "",
          "type": "bool"
        }
      ],
      "stateMutability": "nonpayable",
      "type": "function"
    },
    {
      "inputs": [
        {
          "internalType": "address",
          "name": "_owner",
          "type": "address"
        }
      ],
      "name": "transferOwnership",
      "outputs": [
        {
          "internalType": "bool",
          "name": "",
          "type": "bool"
        }
      ],
      "stateMutability": "nonpayable",
      "type": "function"
    }
  ],
  "bytecode": "0x608060405234801561001057600080fd5b506040516109443803806109448339818101604052602081101561003357600080fd5b5051600180546001600160a01b0319166001600160a01b039092169190911790556108e1806100636000396000f3fe608060405234801561001057600080fd5b50600436106100a25760003560e01c8063a0b15ebf11610076578063c4d66de81161005b578063c4d66de81461018e578063f00f848b146101c1578063f2fde38b146101de576100a2565b8063a0b15ebf1461017e578063a6c41fec14610186576100a2565b80626883ba146100a75780632e1455621461012b578063392e53cd146101455780638da5cb5b1461014d575b600080fd5b610117600480360360208110156100bd57600080fd5b8101906020810181356401000000008111156100d857600080fd5b8201836020820111156100ea57600080fd5b8035906020019184602083028401116401000000008311171561010c57600080fd5b509092509050610211565b604080519115158252519081900360200190f35b6101336102b0565b60408051918252519081900360200190f35b610117610364565b61015561036d565b6040805173ffffffffffffffffffffffffffffffffffffffff9092168252519081900360200190f35b610133610389565b610155610490565b610117600480360360208110156101a457600080fd5b503573ffffffffffffffffffffffffffffffffffffffff166104b1565b610155600480360360208110156101d757600080fd5b50356105c1565b610117600480360360208110156101f457600080fd5b503573ffffffffffffffffffffffffffffffffffffffff166105f8565b60015460009073ffffffffffffffffffffffffffffffffffffffff16331461029a57604080517f08c379a000000000000000000000000000000000000000000000000000000000815260206004820152601360248201527f53656e646572206973206e6f74206f776e657200000000000000000000000000604482015290519081900360640190fd5b6102a660028484610837565b5060019392505050565b600080600060019054906101000a900473ffffffffffffffffffffffffffffffffffffffff1673ffffffffffffffffffffffffffffffffffffffff166318160ddd6040518163ffffffff1660e01b815260040160206040518083038186803b15801561031b57600080fd5b505afa15801561032f573d6000803e3d6000fd5b505050506040513d602081101561034557600080fd5b50519050600061035d610356610389565b83906106c9565b9250505090565b60005460ff1681565b60015473ffffffffffffffffffffffffffffffffffffffff1681565b60008060005b60025481101561048a576000546002805461047692610100900473ffffffffffffffffffffffffffffffffffffffff16916370a0823191859081106103d057fe5b60009182526020918290200154604080517fffffffff0000000000000000000000000000000000000000000000000000000060e086901b16815273ffffffffffffffffffffffffffffffffffffffff90921660048301525160248083019392829003018186803b15801561044357600080fd5b505afa158015610457573d6000803e3d6000fd5b505050506040513d602081101561046d57600080fd5b50518390610712565b9150610483816001610712565b905061038f565b50905090565b600054610100900473ffffffffffffffffffffffffffffffffffffffff1681565b60015460009073ffffffffffffffffffffffffffffffffffffffff16331461053a57604080517f08c379a000000000000000000000000000000000000000000000000000000000815260206004820152601360248201527f63616c6c6572206973206e6f74206f776e657200000000000000000000000000604482015290519081900360640190fd5b60005460ff161561054a57600080fd5b50600080547fffffffffffffffffffffffffffffffffffffffffffffffffffffffffffffff0073ffffffffffffffffffffffffffffffffffffffff8416610100027fffffffffffffffffffffff0000000000000000000000000000000000000000ff90921691909117166001908117909155919050565b600281815481106105d157600080fd5b60009182526020909120015473ffffffffffffffffffffffffffffffffffffffff16905081565b60015460009073ffffffffffffffffffffffffffffffffffffffff16331461068157604080517f08c379a000000000000000000000000000000000000000000000000000000000815260206004820152601360248201527f53656e646572206973206e6f74206f776e657200000000000000000000000000604482015290519081900360640190fd5b506001805473ffffffffffffffffffffffffffffffffffffffff83167fffffffffffffffffffffffff0000000000000000000000000000000000000000909116178155919050565b600061070b83836040518060400160405280601e81526020017f536166654d6174683a207375627472616374696f6e206f766572666c6f770000815250610786565b9392505050565b60008282018381101561070b57604080517f08c379a000000000000000000000000000000000000000000000000000000000815260206004820152601b60248201527f536166654d6174683a206164646974696f6e206f766572666c6f770000000000604482015290519081900360640190fd5b6000818484111561082f576040517f08c379a00000000000000000000000000000000000000000000000000000000081526004018080602001828103825283818151815260200191508051906020019080838360005b838110156107f45781810151838201526020016107dc565b50505050905090810190601f1680156108215780820380516001836020036101000a031916815260200191505b509250505060405180910390fd5b505050900390565b8280548282559060005260206000209081019282156108af579160200282015b828111156108af5781547fffffffffffffffffffffffff00000000000000000000000000000000000000001673ffffffffffffffffffffffffffffffffffffffff843516178255602090920191600190910190610857565b506108bb9291506108bf565b5090565b5b808211156108bb57600081556001016108c056fea164736f6c6343000705000a",
  "linkReferences": {},
  "deployedLinkReferences": {}
}