{
  "_format": "hh-sol-artifact-1",
  "contractName": "ApeTreasury",
  "sourceName": "contracts/Treasury.sol",
  "abi": [
    {
      "inputs": [
        {
          "internalType": "address",
          "name": "_OHM",
          "type": "address"
        },
        {
          "internalType": "address",
          "name": "_DAI",
          "type": "address"
        },
        {
          "internalType": "address",
          "name": "_Frax",
          "type": "address"
        },
        {
          "internalType": "address",
          "name": "_OHMDAI",
          "type": "address"
        },
        {
          "internalType": "uint256",
          "name": "_blocksNeededForQueue",
          "type": "uint256"
        }
      ],
      "stateMutability": "nonpayable",
      "type": "constructor"
    },
    {
      "anonymous": false,
      "inputs": [
        {
          "indexed": true,
          "internalType": "enum ApeTreasury.MANAGING",
          "name": "managing",
          "type": "uint8"
        },
        {
          "indexed": false,
          "internalType": "address",
          "name": "activated",
          "type": "address"
        },
        {
          "indexed": false,
          "internalType": "bool",
          "name": "result",
          "type": "bool"
        }
      ],
      "name": "ChangeActivated",
      "type": "event"
    },
    {
      "anonymous": false,
      "inputs": [
        {
          "indexed": true,
          "internalType": "enum ApeTreasury.MANAGING",
          "name": "managing",
          "type": "uint8"
        },
        {
          "indexed": false,
          "internalType": "address",
          "name": "queued",
          "type": "address"
        }
      ],
      "name": "ChangeQueued",
      "type": "event"
    },
    {
      "anonymous": false,
      "inputs": [
        {
          "indexed": true,
          "internalType": "address",
          "name": "debtor",
          "type": "address"
        },
        {
          "indexed": true,
          "internalType": "address",
          "name": "token",
          "type": "address"
        },
        {
          "indexed": false,
          "internalType": "uint256",
          "name": "amount",
          "type": "uint256"
        },
        {
          "indexed": false,
          "internalType": "uint256",
          "name": "value",
          "type": "uint256"
        }
      ],
      "name": "CreateDebt",
      "type": "event"
    },
    {
      "anonymous": false,
      "inputs": [
        {
          "indexed": true,
          "internalType": "address",
          "name": "token",
          "type": "address"
        },
        {
          "indexed": false,
          "internalType": "uint256",
          "name": "amount",
          "type": "uint256"
        },
        {
          "indexed": false,
          "internalType": "uint256",
          "name": "value",
          "type": "uint256"
        }
      ],
      "name": "Deposit",
      "type": "event"
    },
    {
      "anonymous": false,
      "inputs": [
        {
          "indexed": true,
          "internalType": "address",
          "name": "previousOwner",
          "type": "address"
        },
        {
          "indexed": true,
          "internalType": "address",
          "name": "newOwner",
          "type": "address"
        }
      ],
      "name": "OwnershipPulled",
      "type": "event"
    },
    {
      "anonymous": false,
      "inputs": [
        {
          "indexed": true,
          "internalType": "address",
          "name": "previousOwner",
          "type": "address"
        },
        {
          "indexed": true,
          "internalType": "address",
          "name": "newOwner",
          "type": "address"
        }
      ],
      "name": "OwnershipPushed",
      "type": "event"
    },
    {
      "anonymous": false,
      "inputs": [
        {
          "indexed": true,
          "internalType": "address",
          "name": "debtor",
          "type": "address"
        },
        {
          "indexed": true,
          "internalType": "address",
          "name": "token",
          "type": "address"
        },
        {
          "indexed": false,
          "internalType": "uint256",
          "name": "amount",
          "type": "uint256"
        },
        {
          "indexed": false,
          "internalType": "uint256",
          "name": "value",
          "type": "uint256"
        }
      ],
      "name": "RepayDebt",
      "type": "event"
    },
    {
      "anonymous": false,
      "inputs": [
        {
          "indexed": true,
          "internalType": "uint256",
          "name": "totalReserves",
          "type": "uint256"
        }
      ],
      "name": "ReservesAudited",
      "type": "event"
    },
    {
      "anonymous": false,
      "inputs": [
        {
          "indexed": true,
          "internalType": "address",
          "name": "token",
          "type": "address"
        },
        {
          "indexed": false,
          "internalType": "uint256",
          "name": "amount",
          "type": "uint256"
        }
      ],
      "name": "ReservesManaged",
      "type": "event"
    },
    {
      "anonymous": false,
      "inputs": [
        {
          "indexed": true,
          "internalType": "uint256",
          "name": "totalReserves",
          "type": "uint256"
        }
      ],
      "name": "ReservesUpdated",
      "type": "event"
    },
    {
      "anonymous": false,
      "inputs": [
        {
          "indexed": true,
          "internalType": "address",
          "name": "caller",
          "type": "address"
        },
        {
          "indexed": true,
          "internalType": "address",
          "name": "recipient",
          "type": "address"
        },
        {
          "indexed": false,
          "internalType": "uint256",
          "name": "amount",
          "type": "uint256"
        }
      ],
      "name": "RewardsMinted",
      "type": "event"
    },
    {
      "anonymous": false,
      "inputs": [
        {
          "indexed": true,
          "internalType": "address",
          "name": "token",
          "type": "address"
        },
        {
          "indexed": false,
          "internalType": "uint256",
          "name": "amount",
          "type": "uint256"
        },
        {
          "indexed": false,
          "internalType": "uint256",
          "name": "value",
          "type": "uint256"
        }
      ],
      "name": "Withdrawal",
      "type": "event"
    },
    {
      "inputs": [
        {
          "internalType": "address",
          "name": "",
          "type": "address"
        }
      ],
      "name": "LiquidityDepositorQueue",
      "outputs": [
        {
          "internalType": "uint256",
          "name": "",
          "type": "uint256"
        }
      ],
      "stateMutability": "view",
      "type": "function"
    },
    {
      "inputs": [
        {
          "internalType": "address",
          "name": "",
          "type": "address"
        }
      ],
      "name": "LiquidityManagerQueue",
      "outputs": [
        {
          "internalType": "uint256",
          "name": "",
          "type": "uint256"
        }
      ],
      "stateMutability": "view",
      "type": "function"
    },
    {
      "inputs": [
        {
          "internalType": "address",
          "name": "",
          "type": "address"
        }
      ],
      "name": "LiquidityTokenQueue",
      "outputs": [
        {
          "internalType": "uint256",
          "name": "",
          "type": "uint256"
        }
      ],
      "stateMutability": "view",
      "type": "function"
    },
    {
      "inputs": [],
      "name": "OHM",
      "outputs": [
        {
          "internalType": "address",
          "name": "",
          "type": "address"
        }
      ],
      "stateMutability": "view",
      "type": "function"
    },
    {
      "inputs": [
        {
          "internalType": "address",
          "name": "",
          "type": "address"
        }
      ],
      "name": "ReserveManagerQueue",
      "outputs": [
        {
          "internalType": "uint256",
          "name": "",
          "type": "uint256"
        }
      ],
      "stateMutability": "view",
      "type": "function"
    },
    {
      "inputs": [],
      "name": "auditReserves",
      "outputs": [],
      "stateMutability": "nonpayable",
      "type": "function"
    },
    {
      "inputs": [],
      "name": "blocksNeededForQueue",
      "outputs": [
        {
          "internalType": "uint256",
          "name": "",
          "type": "uint256"
        }
      ],
      "stateMutability": "view",
      "type": "function"
    },
    {
      "inputs": [
        {
          "internalType": "address",
          "name": "",
          "type": "address"
        }
      ],
      "name": "bondCalculator",
      "outputs": [
        {
          "internalType": "address",
          "name": "",
          "type": "address"
        }
      ],
      "stateMutability": "view",
      "type": "function"
    },
    {
      "inputs": [
        {
          "internalType": "address",
          "name": "",
          "type": "address"
        }
      ],
      "name": "debtorBalance",
      "outputs": [
        {
          "internalType": "uint256",
          "name": "",
          "type": "uint256"
        }
      ],
      "stateMutability": "view",
      "type": "function"
    },
    {
      "inputs": [
        {
          "internalType": "address",
          "name": "",
          "type": "address"
        }
      ],
      "name": "debtorQueue",
      "outputs": [
        {
          "internalType": "uint256",
          "name": "",
          "type": "uint256"
        }
      ],
      "stateMutability": "view",
      "type": "function"
    },
    {
      "inputs": [
        {
          "internalType": "uint256",
          "name": "",
          "type": "uint256"
        }
      ],
      "name": "debtors",
      "outputs": [
        {
          "internalType": "address",
          "name": "",
          "type": "address"
        }
      ],
      "stateMutability": "view",
      "type": "function"
    },
    {
      "inputs": [
        {
          "internalType": "uint256",
          "name": "_amount",
          "type": "uint256"
        },
        {
          "internalType": "address",
          "name": "_token",
          "type": "address"
        },
        {
          "internalType": "uint256",
          "name": "_profit",
          "type": "uint256"
        }
      ],
      "name": "deposit",
      "outputs": [
        {
          "internalType": "uint256",
          "name": "send_",
          "type": "uint256"
        }
      ],
      "stateMutability": "nonpayable",
      "type": "function"
    },
    {
      "inputs": [],
      "name": "excessReserves",
      "outputs": [
        {
          "internalType": "uint256",
          "name": "",
          "type": "uint256"
        }
      ],
      "stateMutability": "view",
      "type": "function"
    },
    {
      "inputs": [
        {
          "internalType": "uint256",
          "name": "_amount",
          "type": "uint256"
        },
        {
          "internalType": "address",
          "name": "_token",
          "type": "address"
        }
      ],
      "name": "incurDebt",
      "outputs": [],
      "stateMutability": "nonpayable",
      "type": "function"
    },
    {
      "inputs": [
        {
          "internalType": "address",
          "name": "",
          "type": "address"
        }
      ],
      "name": "isDebtor",
      "outputs": [
        {
          "internalType": "bool",
          "name": "",
          "type": "bool"
        }
      ],
      "stateMutability": "view",
      "type": "function"
    },
    {
      "inputs": [
        {
          "internalType": "address",
          "name": "",
          "type": "address"
        }
      ],
      "name": "isLiquidityDepositor",
      "outputs": [
        {
          "internalType": "bool",
          "name": "",
          "type": "bool"
        }
      ],
      "stateMutability": "view",
      "type": "function"
    },
    {
      "inputs": [
        {
          "internalType": "address",
          "name": "",
          "type": "address"
        }
      ],
      "name": "isLiquidityManager",
      "outputs": [
        {
          "internalType": "bool",
          "name": "",
          "type": "bool"
        }
      ],
      "stateMutability": "view",
      "type": "function"
    },
    {
      "inputs": [
        {
          "internalType": "address",
          "name": "",
          "type": "address"
        }
      ],
      "name": "isLiquidityToken",
      "outputs": [
        {
          "internalType": "bool",
          "name": "",
          "type": "bool"
        }
      ],
      "stateMutability": "view",
      "type": "function"
    },
    {
      "inputs": [
        {
          "internalType": "address",
          "name": "",
          "type": "address"
        }
      ],
      "name": "isReserveDepositor",
      "outputs": [
        {
          "internalType": "bool",
          "name": "",
          "type": "bool"
        }
      ],
      "stateMutability": "view",
      "type": "function"
    },
    {
      "inputs": [
        {
          "internalType": "address",
          "name": "",
          "type": "address"
        }
      ],
      "name": "isReserveManager",
      "outputs": [
        {
          "internalType": "bool",
          "name": "",
          "type": "bool"
        }
      ],
      "stateMutability": "view",
      "type": "function"
    },
    {
      "inputs": [
        {
          "internalType": "address",
          "name": "",
          "type": "address"
        }
      ],
      "name": "isReserveSpender",
      "outputs": [
        {
          "internalType": "bool",
          "name": "",
          "type": "bool"
        }
      ],
      "stateMutability": "view",
      "type": "function"
    },
    {
      "inputs": [
        {
          "internalType": "address",
          "name": "",
          "type": "address"
        }
      ],
      "name": "isReserveToken",
      "outputs": [
        {
          "internalType": "bool",
          "name": "",
          "type": "bool"
        }
      ],
      "stateMutability": "view",
      "type": "function"
    },
    {
      "inputs": [
        {
          "internalType": "address",
          "name": "",
          "type": "address"
        }
      ],
      "name": "isRewardManager",
      "outputs": [
        {
          "internalType": "bool",
          "name": "",
          "type": "bool"
        }
      ],
      "stateMutability": "view",
      "type": "function"
    },
    {
      "inputs": [
        {
          "internalType": "uint256",
          "name": "",
          "type": "uint256"
        }
      ],
      "name": "liquidityDepositors",
      "outputs": [
        {
          "internalType": "address",
          "name": "",
          "type": "address"
        }
      ],
      "stateMutability": "view",
      "type": "function"
    },
    {
      "inputs": [
        {
          "internalType": "uint256",
          "name": "",
          "type": "uint256"
        }
      ],
      "name": "liquidityManagers",
      "outputs": [
        {
          "internalType": "address",
          "name": "",
          "type": "address"
        }
      ],
      "stateMutability": "view",
      "type": "function"
    },
    {
      "inputs": [
        {
          "internalType": "uint256",
          "name": "",
          "type": "uint256"
        }
      ],
      "name": "liquidityTokens",
      "outputs": [
        {
          "internalType": "address",
          "name": "",
          "type": "address"
        }
      ],
      "stateMutability": "view",
      "type": "function"
    },
    {
      "inputs": [
        {
          "internalType": "address",
          "name": "_token",
          "type": "address"
        },
        {
          "internalType": "uint256",
          "name": "_amount",
          "type": "uint256"
        }
      ],
      "name": "manage",
      "outputs": [],
      "stateMutability": "nonpayable",
      "type": "function"
    },
    {
      "inputs": [],
      "name": "manager",
      "outputs": [
        {
          "internalType": "address",
          "name": "",
          "type": "address"
        }
      ],
      "stateMutability": "view",
      "type": "function"
    },
    {
      "inputs": [
        {
          "internalType": "address",
          "name": "_recipient",
          "type": "address"
        },
        {
          "internalType": "uint256",
          "name": "_amount",
          "type": "uint256"
        }
      ],
      "name": "mintRewards",
      "outputs": [],
      "stateMutability": "nonpayable",
      "type": "function"
    },
    {
      "inputs": [],
      "name": "pullManagement",
      "outputs": [],
      "stateMutability": "nonpayable",
      "type": "function"
    },
    {
      "inputs": [
        {
          "internalType": "address",
          "name": "newOwner_",
          "type": "address"
        }
      ],
      "name": "pushManagement",
      "outputs": [],
      "stateMutability": "nonpayable",
      "type": "function"
    },
    {
      "inputs": [
        {
          "internalType": "enum ApeTreasury.MANAGING",
          "name": "_managing",
          "type": "uint8"
        },
        {
          "internalType": "address",
          "name": "_address",
          "type": "address"
        }
      ],
      "name": "queue",
      "outputs": [
        {
          "internalType": "bool",
          "name": "",
          "type": "bool"
        }
      ],
      "stateMutability": "nonpayable",
      "type": "function"
    },
    {
      "inputs": [],
      "name": "renounceManagement",
      "outputs": [],
      "stateMutability": "nonpayable",
      "type": "function"
    },
    {
      "inputs": [
        {
          "internalType": "uint256",
          "name": "_amount",
          "type": "uint256"
        }
      ],
      "name": "repayDebtWithOHM",
      "outputs": [],
      "stateMutability": "nonpayable",
      "type": "function"
    },
    {
      "inputs": [
        {
          "internalType": "uint256",
          "name": "_amount",
          "type": "uint256"
        },
        {
          "internalType": "address",
          "name": "_token",
          "type": "address"
        }
      ],
      "name": "repayDebtWithReserve",
      "outputs": [],
      "stateMutability": "nonpayable",
      "type": "function"
    },
    {
      "inputs": [
        {
          "internalType": "address",
          "name": "",
          "type": "address"
        }
      ],
      "name": "reserveDepositorQueue",
      "outputs": [
        {
          "internalType": "uint256",
          "name": "",
          "type": "uint256"
        }
      ],
      "stateMutability": "view",
      "type": "function"
    },
    {
      "inputs": [
        {
          "internalType": "uint256",
          "name": "",
          "type": "uint256"
        }
      ],
      "name": "reserveDepositors",
      "outputs": [
        {
          "internalType": "address",
          "name": "",
          "type": "address"
        }
      ],
      "stateMutability": "view",
      "type": "function"
    },
    {
      "inputs": [
        {
          "internalType": "uint256",
          "name": "",
          "type": "uint256"
        }
      ],
      "name": "reserveManagers",
      "outputs": [
        {
          "internalType": "address",
          "name": "",
          "type": "address"
        }
      ],
      "stateMutability": "view",
      "type": "function"
    },
    {
      "inputs": [
        {
          "internalType": "address",
          "name": "",
          "type": "address"
        }
      ],
      "name": "reserveSpenderQueue",
      "outputs": [
        {
          "internalType": "uint256",
          "name": "",
          "type": "uint256"
        }
      ],
      "stateMutability": "view",
      "type": "function"
    },
    {
      "inputs": [
        {
          "internalType": "uint256",
          "name": "",
          "type": "uint256"
        }
      ],
      "name": "reserveSpenders",
      "outputs": [
        {
          "internalType": "address",
          "name": "",
          "type": "address"
        }
      ],
      "stateMutability": "view",
      "type": "function"
    },
    {
      "inputs": [
        {
          "internalType": "address",
          "name": "",
          "type": "address"
        }
      ],
      "name": "reserveTokenQueue",
      "outputs": [
        {
          "internalType": "uint256",
          "name": "",
          "type": "uint256"
        }
      ],
      "stateMutability": "view",
      "type": "function"
    },
    {
      "inputs": [
        {
          "internalType": "uint256",
          "name": "",
          "type": "uint256"
        }
      ],
      "name": "reserveTokens",
      "outputs": [
        {
          "internalType": "address",
          "name": "",
          "type": "address"
        }
      ],
      "stateMutability": "view",
      "type": "function"
    },
    {
      "inputs": [
        {
          "internalType": "address",
          "name": "",
          "type": "address"
        }
      ],
      "name": "rewardManagerQueue",
      "outputs": [
        {
          "internalType": "uint256",
          "name": "",
          "type": "uint256"
        }
      ],
      "stateMutability": "view",
      "type": "function"
    },
    {
      "inputs": [
        {
          "internalType": "uint256",
          "name": "",
          "type": "uint256"
        }
      ],
      "name": "rewardManagers",
      "outputs": [
        {
          "internalType": "address",
          "name": "",
          "type": "address"
        }
      ],
      "stateMutability": "view",
      "type": "function"
    },
    {
      "inputs": [],
      "name": "sOHM",
      "outputs": [
        {
          "internalType": "address",
          "name": "",
          "type": "address"
        }
      ],
      "stateMutability": "view",
      "type": "function"
    },
    {
      "inputs": [],
      "name": "sOHMQueue",
      "outputs": [
        {
          "internalType": "uint256",
          "name": "",
          "type": "uint256"
        }
      ],
      "stateMutability": "view",
      "type": "function"
    },
    {
      "inputs": [
        {
          "internalType": "enum ApeTreasury.MANAGING",
          "name": "_managing",
          "type": "uint8"
        },
        {
          "internalType": "address",
          "name": "_address",
          "type": "address"
        },
        {
          "internalType": "address",
          "name": "_calculator",
          "type": "address"
        }
      ],
      "name": "toggle",
      "outputs": [
        {
          "internalType": "bool",
          "name": "",
          "type": "bool"
        }
      ],
      "stateMutability": "nonpayable",
      "type": "function"
    },
    {
      "inputs": [],
      "name": "totalDebt",
      "outputs": [
        {
          "internalType": "uint256",
          "name": "",
          "type": "uint256"
        }
      ],
      "stateMutability": "view",
      "type": "function"
    },
    {
      "inputs": [],
      "name": "totalReserves",
      "outputs": [
        {
          "internalType": "uint256",
          "name": "",
          "type": "uint256"
        }
      ],
      "stateMutability": "view",
      "type": "function"
    },
    {
      "inputs": [
        {
          "internalType": "address",
          "name": "_token",
          "type": "address"
        },
        {
          "internalType": "uint256",
          "name": "_amount",
          "type": "uint256"
        }
      ],
      "name": "valueOf",
      "outputs": [
        {
          "internalType": "uint256",
          "name": "value_",
          "type": "uint256"
        }
      ],
      "stateMutability": "view",
      "type": "function"
    },
    {
      "inputs": [
        {
          "internalType": "uint256",
          "name": "_amount",
          "type": "uint256"
        },
        {
          "internalType": "address",
          "name": "_token",
          "type": "address"
        }
      ],
      "name": "withdraw",
      "outputs": [],
      "stateMutability": "nonpayable",
      "type": "function"
    }
  ],
  "bytecode": "0x60c060405234801561001057600080fd5b5060405162003a2d38038062003a2d833981810160405260a081101561003557600080fd5b50805160208201516040808401516060850151608090950151600080546001600160a01b031916331780825593519596949592949391926001600160a01b0392909216917fea8258f2d9ddb679928cf34b78cf645b7feda9acc828e4dd82d014eaae270eba908290a36001600160a01b0385166100b157600080fd5b606085901b6001600160601b0319166080526001600160a01b0393841660008181526003602090815260408083208054600160ff1991821681179092556002805480840182557f405787fa12a823e0f2b7631cc41b3ba8828b3321ca811111fa75cd3aa3bb5ace90810180546001600160a01b03199081169099179055998b1680875284872080548416851790558154808501909255990180548716909917909855958816808452600c909252822080549096168517909555600b8054948501815581527f0175b7a638427703f0dbe7bb9bbf987a2551717b34e79f33b5b1008d1fa01db9909301805490911690931790925560a082905291909216919061380b906200022290398061204d52806122c85280612324528061238052806123de5280612443528061249f52806124fd528061255b52806125b75280612613525080610aa75280610eb65280610ff152806110a5528061153f5280611b705280611cfe5280611f03525061380b6000f3fe608060405234801561001057600080fd5b50600436106103405760003560e01c806387d67dff116101bd578063cd85641a116100f9578063ebd83cd8116100a2578063fbfd393b1161007c578063fbfd393b1461093f578063fc7b9c1814610976578063fd1ec0101461097e578063fff9ee871461099b57610340565b8063ebd83cd8146108cd578063ee4e19a1146108f3578063fb9395881461091957610340565b8063d796ffb8116100d3578063d796ffb81461084c578063df89b34414610878578063e83afee31461089e57610340565b8063cd85641a14610801578063d031370b14610827578063d07f390f1461084457610340565b8063a569e57111610166578063b1bd38b011610140578063b1bd38b014610766578063b5b1d5601461078c578063bc157ac1146107a9578063c24ad43e146107db57610340565b8063a569e57114610712578063a6c41fec14610738578063ab319c9a1461074057610340565b80638f840ddd116101975780638f840ddd146106be578063932cc8c3146106c6578063a1210a2d146106ec57610340565b806387d67dff146106555780638f59c7271461067b5780638f6a7b57146106a157610340565b80632789de371161028c5780635a96ac0a116102355780636b5e40a71161020f5780636b5e40a7146105d857806370a0502a146105f5578063788c6c0114610612578063869871bf1461063857610340565b80635a96ac0a1461057e57806368c31dd5146105865780636a20de92146105ac57610340565b806346f68ee91161026657806346f68ee91461052a578063481c6a75146105505780634e83423c1461055857610340565b80632789de37146104fd5780632b7ce50014610505578063437f79121461050d57610340565b80630f70431f116102ee57806315079925116102c857806315079925146104a35780631af4da70146104ab5780631eec5a9a146104d157610340565b80630f70431f14610420578063124154ca1461043d57806312422d231461047757610340565b8063094a86511161031f578063094a8651146103b45780630b0eee30146103ec5780630c3513a81461041857610340565b8062f714ce146103455780630619aff114610373578063089208d8146103ac575b600080fd5b6103716004803603604081101561035b57600080fd5b50803590602001356001600160a01b03166109c1565b005b6103906004803603602081101561038957600080fd5b5035610bcc565b604080516001600160a01b039092168252519081900360200190f35b610371610bf6565b6103da600480360360208110156103ca57600080fd5b50356001600160a01b0316610cac565b60408051918252519081900360200190f35b6103716004803603604081101561040257600080fd5b506001600160a01b038135169060200135610cbe565b6103da610ea9565b6103716004803603602081101561043657600080fd5b5035610f4d565b6104636004803603602081101561045357600080fd5b50356001600160a01b03166110f6565b604080519115158252519081900360200190f35b6103716004803603604081101561048d57600080fd5b50803590602001356001600160a01b031661110b565b61039061144c565b610390600480360360208110156104c157600080fd5b50356001600160a01b031661145b565b6103da600480360360408110156104e757600080fd5b506001600160a01b038135169060200135611476565b6103da61169c565b6103716116a2565b6103906004803603602081101561052357600080fd5b50356118a2565b6103716004803603602081101561054057600080fd5b50356001600160a01b03166118b2565b6103906119be565b6104636004803603602081101561056e57600080fd5b50356001600160a01b03166119cd565b6103716119e2565b6104636004803603602081101561059c57600080fd5b50356001600160a01b0316611a99565b610371600480360360408110156105c257600080fd5b506001600160a01b038135169060200135611aae565b610390600480360360208110156105ee57600080fd5b5035611c41565b6103906004803603602081101561060b57600080fd5b5035611c51565b6103da6004803603602081101561062857600080fd5b50356001600160a01b0316611c61565b6103906004803603602081101561064e57600080fd5b5035611c73565b6104636004803603602081101561066b57600080fd5b50356001600160a01b0316611c83565b6103da6004803603602081101561069157600080fd5b50356001600160a01b0316611c98565b610390600480360360208110156106b757600080fd5b5035611caa565b6103da611cba565b6103da600480360360208110156106dc57600080fd5b50356001600160a01b0316611cc0565b6104636004803603602081101561070257600080fd5b50356001600160a01b0316611cd2565b6104636004803603602081101561072857600080fd5b50356001600160a01b0316611ce7565b610390611cfc565b6103da6004803603602081101561075657600080fd5b50356001600160a01b0316611d20565b6103da6004803603602081101561077c57600080fd5b50356001600160a01b0316611d32565b610390600480360360208110156107a257600080fd5b5035611d44565b6103da600480360360608110156107bf57600080fd5b508035906001600160a01b036020820135169060400135611d54565b6103da600480360360208110156107f157600080fd5b50356001600160a01b0316612017565b6103da6004803603602081101561081757600080fd5b50356001600160a01b0316612029565b6103906004803603602081101561083d57600080fd5b503561203b565b6103da61204b565b6103716004803603604081101561086257600080fd5b50803590602001356001600160a01b031661206f565b6104636004803603602081101561088e57600080fd5b50356001600160a01b0316612226565b610463600480360360408110156108b457600080fd5b50803560ff1690602001356001600160a01b031661223b565b610463600480360360208110156108e357600080fd5b50356001600160a01b0316612698565b6104636004803603602081101561090957600080fd5b50356001600160a01b03166126ad565b6103da6004803603602081101561092f57600080fd5b50356001600160a01b03166126c2565b6104636004803603606081101561095557600080fd5b5060ff813516906001600160a01b03602082013581169160400135166126d4565b6103da61304b565b6103906004803603602081101561099457600080fd5b5035613051565b6103da600480360360208110156109b157600080fd5b50356001600160a01b0316613061565b6001600160a01b03811660009081526003602052604090205460ff16610a2e576040805162461bcd60e51b815260206004820152600c60248201527f4e6f742061636365707465640000000000000000000000000000000000000000604482015290519081900360640190fd5b3360009081526009602052604090205460ff161515600114610a97576040805162461bcd60e51b815260206004820152600c60248201527f4e6f7420617070726f7665640000000000000000000000000000000000000000604482015290519081900360640190fd5b6000610aa38284611476565b90507f00000000000000000000000000000000000000000000000000000000000000006001600160a01b03166379cc679033836040518363ffffffff1660e01b815260040180836001600160a01b0316815260200182815260200192505050600060405180830381600087803b158015610b1c57600080fd5b505af1158015610b30573d6000803e3d6000fd5b5050602154610b429250905082613073565b60218190556040517f93bb8edd35984706eee1b92541281f7f62d33c01c5b2ec0929a113603bd21d6690600090a2610b846001600160a01b03831633856130b5565b604080518481526020810183905281516001600160a01b038516927fdf273cb619d95419a9cd0ec88123a0538c85064229baa6363788f743fff90deb928290030190a2505050565b60128181548110610bdc57600080fd5b6000918252602090912001546001600160a01b0316905081565b6000546001600160a01b03163314610c55576040805162461bcd60e51b815260206004820181905260248201527f4f776e61626c653a2063616c6c6572206973206e6f7420746865206f776e6572604482015290519081900360640190fd5b600080546040516001600160a01b03909116907fea8258f2d9ddb679928cf34b78cf645b7feda9acc828e4dd82d014eaae270eba908390a36000805473ffffffffffffffffffffffffffffffffffffffff19169055565b601b6020526000908152604090205481565b6001600160a01b0382166000908152600c602052604090205460ff1615610d48573360009081526016602052604090205460ff16610d43576040805162461bcd60e51b815260206004820152600c60248201527f4e6f7420617070726f7665640000000000000000000000000000000000000000604482015290519081900360640190fd5b610dac565b3360009081526013602052604090205460ff16610dac576040805162461bcd60e51b815260206004820152600c60248201527f4e6f7420617070726f7665640000000000000000000000000000000000000000604482015290519081900360640190fd5b6000610db88383611476565b9050610dc2610ea9565b811115610e16576040805162461bcd60e51b815260206004820152601560248201527f496e73756666696369656e742072657365727665730000000000000000000000604482015290519081900360640190fd5b602154610e239082613073565b60218190556040517f93bb8edd35984706eee1b92541281f7f62d33c01c5b2ec0929a113603bd21d6690600090a2610e656001600160a01b03841633846130b5565b6040805183815290516001600160a01b038516917f2bb2640731848fe9820ba48dbc978c1fc9bbd5f11b948bfab05b7dee3378fd80919081900360200190a2505050565b6000610f48610f3f6022547f00000000000000000000000000000000000000000000000000000000000000006001600160a01b03166318160ddd6040518163ffffffff1660e01b815260040160206040518083038186803b158015610f0d57600080fd5b505afa158015610f21573d6000803e3d6000fd5b505050506040513d6020811015610f3757600080fd5b505190613073565b60215490613073565b905090565b3360009081526019602052604090205460ff16610fb1576040805162461bcd60e51b815260206004820152600c60248201527f4e6f7420617070726f7665640000000000000000000000000000000000000000604482015290519081900360640190fd5b604080517f79cc67900000000000000000000000000000000000000000000000000000000081523360048201526024810183905290516001600160a01b037f000000000000000000000000000000000000000000000000000000000000000016916379cc679091604480830192600092919082900301818387803b15801561103857600080fd5b505af115801561104c573d6000803e3d6000fd5b5050336000908152601b602052604090205461106b9250905082613073565b336000908152601b60205260409020556022546110889082613073565b602255604080518281526020810183905281516001600160a01b037f0000000000000000000000000000000000000000000000000000000000000000169233927fc6d98eecfc9c78ab62c89a82950079b54874749f1f6f24090f7acc758bc2f309929081900390910190a350565b60066020526000908152604090205460ff1681565b3360009081526019602052604090205460ff1661116f576040805162461bcd60e51b815260206004820152600c60248201527f4e6f7420617070726f7665640000000000000000000000000000000000000000604482015290519081900360640190fd5b6001600160a01b03811660009081526003602052604090205460ff166111dc576040805162461bcd60e51b815260206004820152600c60248201527f4e6f742061636365707465640000000000000000000000000000000000000000604482015290519081900360640190fd5b60006111e88284611476565b601f54604080517f70a0823100000000000000000000000000000000000000000000000000000000815233600482015290519293506000926001600160a01b03909216916370a0823191602480820192602092909190829003018186803b15801561125257600080fd5b505afa158015611266573d6000803e3d6000fd5b505050506040513d602081101561127c57600080fd5b5051336000908152601b60205260408120549192509061129d908390613073565b9050808311156112f4576040805162461bcd60e51b815260206004820152601260248201527f457863656564732064656274206c696d69740000000000000000000000000000604482015290519081900360640190fd5b336000908152601b602052604090205461130e908461313a565b336000908152601b602052604090205560225461132b908461313a565b60225560215461133b9084613073565b60218190556040517f93bb8edd35984706eee1b92541281f7f62d33c01c5b2ec0929a113603bd21d6690600090a2604080517fa9059cbb0000000000000000000000000000000000000000000000000000000081523360048201526024810187905290516001600160a01b0386169163a9059cbb9160448083019260209291908290030181600087803b1580156113d157600080fd5b505af11580156113e5573d6000803e3d6000fd5b505050506040513d60208110156113fb57600080fd5b5050604080518681526020810185905281516001600160a01b0387169233927f7e1a939bed137a819b5d2979822c67f877689f7a863d5e4cb57cdca97b2977d6929081900390910190a35050505050565b601f546001600160a01b031681565b6011602052600090815260409020546001600160a01b031681565b6001600160a01b03821660009081526003602052604081205460ff16156115cc576115c5836001600160a01b031663313ce5676040518163ffffffff1660e01b815260040160206040518083038186803b1580156114d357600080fd5b505afa1580156114e7573d6000803e3d6000fd5b505050506040513d60208110156114fd57600080fd5b5051604080517f313ce567000000000000000000000000000000000000000000000000000000008152905160ff909216600a0a916115bf916001600160a01b037f0000000000000000000000000000000000000000000000000000000000000000169163313ce56791600480820192602092909190829003018186803b15801561158657600080fd5b505afa15801561159a573d6000803e3d6000fd5b505050506040513d60208110156115b057600080fd5b5051859060ff16600a0a613194565b906131ed565b9050611696565b6001600160a01b0383166000908152600c602052604090205460ff1615611696576001600160a01b038084166000818152601160209081526040918290205482517f4249719f00000000000000000000000000000000000000000000000000000000815260048101949094526024840187905291519190931692634249719f9260448082019391829003018186803b15801561166757600080fd5b505afa15801561167b573d6000803e3d6000fd5b505050506040513d602081101561169157600080fd5b505190505b92915050565b60205481565b6000546001600160a01b03163314611701576040805162461bcd60e51b815260206004820181905260248201527f4f776e61626c653a2063616c6c6572206973206e6f7420746865206f776e6572604482015290519081900360640190fd5b6000805b6002548110156117f2576117e86117e16002838154811061172257fe5b600091825260209091200154600280546001600160a01b03909216918590811061174857fe5b60009182526020918290200154604080517f70a0823100000000000000000000000000000000000000000000000000000000815230600482015290516001600160a01b03909216926370a0823192602480840193829003018186803b1580156117b057600080fd5b505afa1580156117c4573d6000803e3d6000fd5b505050506040513d60208110156117da57600080fd5b5051611476565b839061313a565b9150600101611705565b5060005b600b54811015611843576118396117e1600b838154811061181357fe5b600091825260209091200154600b80546001600160a01b03909216918590811061174857fe5b91506001016117f6565b50602181905560405181907f93bb8edd35984706eee1b92541281f7f62d33c01c5b2ec0929a113603bd21d6690600090a260405181907fec691f09f6924b27932253f85caf99bacc30360cc0e50a1cc4d2acc24601446690600090a250565b60088181548110610bdc57600080fd5b6000546001600160a01b03163314611911576040805162461bcd60e51b815260206004820181905260248201527f4f776e61626c653a2063616c6c6572206973206e6f7420746865206f776e6572604482015290519081900360640190fd5b6001600160a01b0381166119565760405162461bcd60e51b815260040180806020018281038252602681526020018061376c6026913960400191505060405180910390fd5b600080546040516001600160a01b03808516939216917fea8258f2d9ddb679928cf34b78cf645b7feda9acc828e4dd82d014eaae270eba91a36001805473ffffffffffffffffffffffffffffffffffffffff19166001600160a01b0392909216919091179055565b6000546001600160a01b031690565b601d6020526000908152604090205460ff1681565b6001546001600160a01b03163314611a2b5760405162461bcd60e51b81526004018080602001828103825260228152602001806137926022913960400191505060405180910390fd5b600154600080546040516001600160a01b0393841693909116917faa151555690c956fc3ea32f106bb9f119b5237a061eaa8557cff3e51e3792c8d91a36001546000805473ffffffffffffffffffffffffffffffffffffffff19166001600160a01b03909216919091179055565b60036020526000908152604090205460ff1681565b336000908152601d602052604090205460ff16611b12576040805162461bcd60e51b815260206004820152600c60248201527f4e6f7420617070726f7665640000000000000000000000000000000000000000604482015290519081900360640190fd5b611b1a610ea9565b811115611b6e576040805162461bcd60e51b815260206004820152601560248201527f496e73756666696369656e742072657365727665730000000000000000000000604482015290519081900360640190fd5b7f00000000000000000000000000000000000000000000000000000000000000006001600160a01b03166340c10f1983836040518363ffffffff1660e01b815260040180836001600160a01b0316815260200182815260200192505050600060405180830381600087803b158015611be557600080fd5b505af1158015611bf9573d6000803e3d6000fd5b50506040805184815290516001600160a01b03861693503392507ffa8ccab40e7da8146c2304cd0950334fd30a6ba093abe86261aa13911fed849c9181900360200190a35050565b60058181548110610bdc57600080fd5b60158181548110610bdc57600080fd5b60046020526000908152604090205481565b60188181548110610bdc57600080fd5b60096020526000908152604090205460ff1681565b600d6020526000908152604090205481565b600e8181548110610bdc57600080fd5b60215481565b60076020526000908152604090205481565b600f6020526000908152604090205460ff1681565b600c6020526000908152604090205460ff1681565b7f000000000000000000000000000000000000000000000000000000000000000081565b60176020526000908152604090205481565b60146020526000908152604090205481565b601c8181548110610bdc57600080fd5b6001600160a01b03821660009081526003602052604081205460ff1680611d9357506001600160a01b0383166000908152600c602052604090205460ff165b611de4576040805162461bcd60e51b815260206004820152600c60248201527f4e6f742061636365707465640000000000000000000000000000000000000000604482015290519081900360640190fd5b611df96001600160a01b03841633308761322f565b6001600160a01b03831660009081526003602052604090205460ff1615611e83573360009081526006602052604090205460ff16611e7e576040805162461bcd60e51b815260206004820152600c60248201527f4e6f7420617070726f7665640000000000000000000000000000000000000000604482015290519081900360640190fd5b611ee7565b336000908152600f602052604090205460ff16611ee7576040805162461bcd60e51b815260206004820152600c60248201527f4e6f7420617070726f7665640000000000000000000000000000000000000000604482015290519081900360640190fd5b6000611ef38486611476565b9050611eff8184613073565b91507f00000000000000000000000000000000000000000000000000000000000000006001600160a01b03166340c10f1933846040518363ffffffff1660e01b815260040180836001600160a01b0316815260200182815260200192505050600060405180830381600087803b158015611f7857600080fd5b505af1158015611f8c573d6000803e3d6000fd5b5050602154611f9e925090508261313a565b60218190556040517f93bb8edd35984706eee1b92541281f7f62d33c01c5b2ec0929a113603bd21d6690600090a2604080518681526020810183905281516001600160a01b038716927f90890809c654f11d6e72a28fa60149770a0d11ec6c92319d6ceb2bb0a4ea1a15928290030190a2509392505050565b600a6020526000908152604090205481565b601a6020526000908152604090205481565b60028181548110610bdc57600080fd5b7f000000000000000000000000000000000000000000000000000000000000000081565b3360009081526019602052604090205460ff166120d3576040805162461bcd60e51b815260206004820152600c60248201527f4e6f7420617070726f7665640000000000000000000000000000000000000000604482015290519081900360640190fd5b6001600160a01b03811660009081526003602052604090205460ff16612140576040805162461bcd60e51b815260206004820152600c60248201527f4e6f742061636365707465640000000000000000000000000000000000000000604482015290519081900360640190fd5b6121556001600160a01b03821633308561322f565b60006121618284611476565b336000908152601b602052604090205490915061217e9082613073565b336000908152601b602052604090205560225461219b9082613073565b6022556021546121ab908261313a565b60218190556040517f93bb8edd35984706eee1b92541281f7f62d33c01c5b2ec0929a113603bd21d6690600090a2604080518481526020810183905281516001600160a01b0385169233927fc6d98eecfc9c78ab62c89a82950079b54874749f1f6f24090f7acc758bc2f309929081900390910190a3505050565b60166020526000908152604090205460ff1681565b600080546001600160a01b0316331461229b576040805162461bcd60e51b815260206004820181905260248201527f4f776e61626c653a2063616c6c6572206973206e6f7420746865206f776e6572604482015290519081900360640190fd5b6001600160a01b0382166122ae57600080fd5b60008360098111156122bc57fe5b141561230a576122ec437f000000000000000000000000000000000000000000000000000000000000000061313a565b6001600160a01b038316600090815260076020526040902055612647565b600183600981111561231857fe5b141561236657612348437f000000000000000000000000000000000000000000000000000000000000000061313a565b6001600160a01b0383166000908152600a6020526040902055612647565b600283600981111561237457fe5b14156123c2576123a4437f000000000000000000000000000000000000000000000000000000000000000061313a565b6001600160a01b038316600090815260046020526040902055612647565b60038360098111156123d057fe5b14156124295761240b6124047f00000000000000000000000000000000000000000000000000000000000000006002613194565b439061313a565b6001600160a01b038316600090815260146020526040902055612647565b600483600981111561243757fe5b141561248557612467437f000000000000000000000000000000000000000000000000000000000000000061313a565b6001600160a01b038316600090815260106020526040902055612647565b600583600981111561249357fe5b14156124e1576124c3437f000000000000000000000000000000000000000000000000000000000000000061313a565b6001600160a01b0383166000908152600d6020526040902055612647565b60068360098111156124ef57fe5b1415612541576125236124047f00000000000000000000000000000000000000000000000000000000000000006002613194565b6001600160a01b038316600090815260176020526040902055612647565b600783600981111561254f57fe5b141561259d5761257f437f000000000000000000000000000000000000000000000000000000000000000061313a565b6001600160a01b0383166000908152601a6020526040902055612647565b60088360098111156125ab57fe5b14156125f9576125db437f000000000000000000000000000000000000000000000000000000000000000061313a565b6001600160a01b0383166000908152601e6020526040902055612647565b600983600981111561260757fe5b141561263f57612637437f000000000000000000000000000000000000000000000000000000000000000061313a565b602055612647565b506000611696565b82600981111561265357fe5b604080516001600160a01b038516815290517f0e4f2c4b5bc209d509bc3d49348c787fefadc66a79351b470599ac0f5be52eaf9181900360200190a250600192915050565b60136020526000908152604090205460ff1681565b60196020526000908152604090205460ff1681565b601e6020526000908152604090205481565b600080546001600160a01b03163314612734576040805162461bcd60e51b815260206004820181905260248201527f4f776e61626c653a2063616c6c6572206973206e6f7420746865206f776e6572604482015290519081900360640190fd5b6001600160a01b03831661274757600080fd5b60008085600981111561275657fe5b141561281f5761276960076006866132bd565b156127ef576001600160a01b0384166000908152600760205260408120556127926005856133c6565b6127ef57600580546001810182556000919091527f036b6384b5eca791c62761152d0c79bb0604c104a5fb6f4eb0703f3154bb3db001805473ffffffffffffffffffffffffffffffffffffffff19166001600160a01b0386161790555b506001600160a01b0383166000908152600660205260409020805460ff81161560ff199091168117909155612fed565b600185600981111561282d57fe5b14156128f657612840600a6009866132bd565b156128c6576001600160a01b0384166000908152600a60205260408120556128696008856133c6565b6128c657600880546001810182556000919091527ff3f7a9fe364faab93b216da50a3214154f22a0a2b415b23a84c8169e8b636ee301805473ffffffffffffffffffffffffffffffffffffffff19166001600160a01b0386161790555b506001600160a01b0383166000908152600960205260409020805460ff81161560ff199091168117909155612fed565b600285600981111561290457fe5b14156129cd5761291760046003866132bd565b1561299d576001600160a01b0384166000908152600460205260408120556129406002856133c6565b61299d57600280546001810182556000919091527f405787fa12a823e0f2b7631cc41b3ba8828b3321ca811111fa75cd3aa3bb5ace01805473ffffffffffffffffffffffffffffffffffffffff19166001600160a01b0386161790555b506001600160a01b0383166000908152600360205260409020805460ff81161560ff199091168117909155612fed565b60038560098111156129db57fe5b1415612aee576129ee60146013866132bd565b15612abe57601280546001810182557fbb8a6a4669ba250d26cd7a459eca9d215f8307e33aebe50379bc5a3617ec344401805473ffffffffffffffffffffffffffffffffffffffff19166001600160a01b038716908117909155600090815260146020526040812055612a6190856133c6565b612abe57601280546001810182556000919091527fbb8a6a4669ba250d26cd7a459eca9d215f8307e33aebe50379bc5a3617ec344401805473ffffffffffffffffffffffffffffffffffffffff19166001600160a01b0386161790555b506001600160a01b0383166000908152601360205260409020805460ff81161560ff199091168117909155612fed565b6004856009811115612afc57fe5b1415612c0f57612b0f6010600f866132bd565b15612bdf57600e80546001810182557fbb7b4a454dc3493923482f07822329ed19e8244eff582cc204f8554c3620c3fd01805473ffffffffffffffffffffffffffffffffffffffff19166001600160a01b038716908117909155600090815260106020526040812055612b8290856133c6565b612bdf57600e80546001810182556000919091527fbb7b4a454dc3493923482f07822329ed19e8244eff582cc204f8554c3620c3fd01805473ffffffffffffffffffffffffffffffffffffffff19166001600160a01b0386161790555b506001600160a01b0383166000908152600f60205260409020805460ff81161560ff199091168117909155612fed565b6005856009811115612c1d57fe5b1415612d1557612c30600d600c866132bd565b15612cb6576001600160a01b0384166000908152600d6020526040812055612c59600b856133c6565b612cb657600b80546001810182556000919091527f0175b7a638427703f0dbe7bb9bbf987a2551717b34e79f33b5b1008d1fa01db901805473ffffffffffffffffffffffffffffffffffffffff19166001600160a01b0386161790555b506001600160a01b038381166000908152600c60209081526040808320805460ff81161560ff1990911681179091556011909252909120805473ffffffffffffffffffffffffffffffffffffffff191692851692909217909155612fed565b6006856009811115612d2357fe5b1415612dec57612d3660176016866132bd565b15612dbc576001600160a01b038416600090815260176020526040812055612d5f6015856133c6565b612dbc57601580546001810182556000919091527f55f448fdea98c4d29eb340757ef0a66cd03dbb9538908a6a81d96026b71ec47501805473ffffffffffffffffffffffffffffffffffffffff19166001600160a01b0386161790555b506001600160a01b0383166000908152601660205260409020805460ff81161560ff199091168117909155612fed565b6007856009811115612dfa57fe5b1415612ec357612e0d601a6019866132bd565b15612e93576001600160a01b0384166000908152601a6020526040812055612e366018856133c6565b612e9357601880546001810182556000919091527fb13d2d76d1f4b7be834882e410b3e3a8afaf69f83600ae24db354391d2378d2e01805473ffffffffffffffffffffffffffffffffffffffff19166001600160a01b0386161790555b506001600160a01b0383166000908152601960205260409020805460ff81161560ff199091168117909155612fed565b6008856009811115612ed157fe5b1415612f9a57612ee4601e601d866132bd565b15612f6a576001600160a01b0384166000908152601e6020526040812055612f0d601c856133c6565b612f6a57601c80546001810182556000919091527f0e4562a10381dec21b205ed72637e6b1b523bdd0e4d4d50af5cd23dd4500a21101805473ffffffffffffffffffffffffffffffffffffffff19166001600160a01b0386161790555b506001600160a01b0383166000908152601d60205260409020805460ff81161560ff199091168117909155612fed565b6009856009811115612fa857fe5b1415612fe357506000602055601f805473ffffffffffffffffffffffffffffffffffffffff19166001600160a01b0385161790556001612fed565b6000915050613044565b846009811115612ff957fe5b604080516001600160a01b0387168152831515602082015281517f0dcacb7e392f3d6a216ed2660e3dcfd40b7793d33591db2ba185a6b8e44fc477929181900390910190a260019150505b9392505050565b60225481565b600b8181548110610bdc57600080fd5b60106020526000908152604090205481565b600061304483836040518060400160405280601e81526020017f536166654d6174683a207375627472616374696f6e206f766572666c6f770000815250613416565b604080516001600160a01b038416602482015260448082018490528251808303909101815260649091019091526020810180517bffffffffffffffffffffffffffffffffffffffffffffffffffffffff167fa9059cbb000000000000000000000000000000000000000000000000000000001790526131359084906134ad565b505050565b600082820183811015613044576040805162461bcd60e51b815260206004820152601b60248201527f536166654d6174683a206164646974696f6e206f766572666c6f770000000000604482015290519081900360640190fd5b6000826131a357506000611696565b828202828482816131b057fe5b04146130445760405162461bcd60e51b81526004018080602001828103825260218152602001806137b46021913960400191505060405180910390fd5b600061304483836040518060400160405280601a81526020017f536166654d6174683a206469766973696f6e206279207a65726f00000000000081525061355e565b604080516001600160a01b0380861660248301528416604482015260648082018490528251808303909101815260849091019091526020810180517bffffffffffffffffffffffffffffffffffffffffffffffffffffffff167f23b872dd000000000000000000000000000000000000000000000000000000001790526132b79085906134ad565b50505050565b6001600160a01b03811660009081526020839052604081205460ff166133bc576001600160a01b038216600090815260208590526040902054613347576040805162461bcd60e51b815260206004820152600a60248201527f4d75737420717565756500000000000000000000000000000000000000000000604482015290519081900360640190fd5b6001600160a01b0382166000908152602085905260409020544310156133b4576040805162461bcd60e51b815260206004820152601160248201527f5175657565206e6f742065787069726564000000000000000000000000000000604482015290519081900360640190fd5b506001613044565b5060009392505050565b6000805b83548110156133bc57826001600160a01b03168482815481106133e957fe5b6000918252602090912001546001600160a01b0316141561340e576001915050611696565b6001016133ca565b600081848411156134a55760405162461bcd60e51b81526004018080602001828103825283818151815260200191508051906020019080838360005b8381101561346a578181015183820152602001613452565b50505050905090810190601f1680156134975780820380516001836020036101000a031916815260200191505b509250505060405180910390fd5b505050900390565b6060613502826040518060400160405280602081526020017f5361666545524332303a206c6f772d6c6576656c2063616c6c206661696c6564815250856001600160a01b03166135c39092919063ffffffff16565b8051909150156131355780806020019051602081101561352157600080fd5b50516131355760405162461bcd60e51b815260040180806020018281038252602a8152602001806137d5602a913960400191505060405180910390fd5b600081836135ad5760405162461bcd60e51b815260206004820181815283516024840152835190928392604490910191908501908083836000831561346a578181015183820152602001613452565b5060008385816135b957fe5b0495945050505050565b60606135d284846000856135da565b949350505050565b60606135e585613765565b613636576040805162461bcd60e51b815260206004820152601d60248201527f416464726573733a2063616c6c20746f206e6f6e2d636f6e7472616374000000604482015290519081900360640190fd5b60006060866001600160a01b031685876040518082805190602001908083835b6020831061369357805182527fffffffffffffffffffffffffffffffffffffffffffffffffffffffffffffffe09092019160209182019101613656565b6001836020036101000a03801982511681845116808217855250505050505090500191505060006040518083038185875af1925050503d80600081146136f5576040519150601f19603f3d011682016040523d82523d6000602084013e6136fa565b606091505b5091509150811561370e5791506135d29050565b80511561371e5780518082602001fd5b60405162461bcd60e51b815260206004820181815286516024840152865187939192839260440191908501908083836000831561346a578181015183820152602001613452565b3b15159056fe4f776e61626c653a206e6577206f776e657220697320746865207a65726f20616464726573734f776e61626c653a206d757374206265206e6577206f776e657220746f2070756c6c536166654d6174683a206d756c7469706c69636174696f6e206f766572666c6f775361666545524332303a204552433230206f7065726174696f6e20646964206e6f742073756363656564a164736f6c6343000705000a",
  "linkReferences": {},
  "deployedLinkReferences": {}
}