{
  "_format": "hh-sol-artifact-1",
  "contractName": "FRAX",
  "sourceName": "contracts/mocks/Frax.sol",
  "abi": [
    {
      "inputs": [
        {
          "internalType": "uint256",
          "name": "chainId_",
          "type": "uint256"
        }
      ],
      "stateMutability": "nonpayable",
      "type": "constructor"
    },
    {
      "anonymous": false,
      "inputs": [
        {
          "indexed": true,
          "internalType": "address",
          "name": "src",
          "type": "address"
        },
        {
          "indexed": true,
          "internalType": "address",
          "name": "guy",
          "type": "address"
        },
        {
          "indexed": false,
          "internalType": "uint256",
          "name": "wad",
          "type": "uint256"
        }
      ],
      "name": "Approval",
      "type": "event"
    },
    {
      "anonymous": true,
      "inputs": [
        {
          "indexed": true,
          "internalType": "bytes4",
          "name": "sig",
          "type": "bytes4"
        },
        {
          "indexed": true,
          "internalType": "address",
          "name": "usr",
          "type": "address"
        },
        {
          "indexed": true,
          "internalType": "bytes32",
          "name": "arg1",
          "type": "bytes32"
        },
        {
          "indexed": true,
          "internalType": "bytes32",
          "name": "arg2",
          "type": "bytes32"
        },
        {
          "indexed": false,
          "internalType": "bytes",
          "name": "data",
          "type": "bytes"
        }
      ],
      "name": "LogNote",
      "type": "event"
    },
    {
      "anonymous": false,
      "inputs": [
        {
          "indexed": true,
          "internalType": "address",
          "name": "src",
          "type": "address"
        },
        {
          "indexed": true,
          "internalType": "address",
          "name": "dst",
          "type": "address"
        },
        {
          "indexed": false,
          "internalType": "uint256",
          "name": "wad",
          "type": "uint256"
        }
      ],
      "name": "Transfer",
      "type": "event"
    },
    {
      "inputs": [],
      "name": "DOMAIN_SEPARATOR",
      "outputs": [
        {
          "internalType": "bytes32",
          "name": "",
          "type": "bytes32"
        }
      ],
      "stateMutability": "view",
      "type": "function"
    },
    {
      "inputs": [],
      "name": "PERMIT_TYPEHASH",
      "outputs": [
        {
          "internalType": "bytes32",
          "name": "",
          "type": "bytes32"
        }
      ],
      "stateMutability": "view",
      "type": "function"
    },
    {
      "inputs": [
        {
          "internalType": "address",
          "name": "usr",
          "type": "address"
        }
      ],
      "name": "addAuth",
      "outputs": [],
      "stateMutability": "nonpayable",
      "type": "function"
    },
    {
      "inputs": [
        {
          "internalType": "uint256",
          "name": "_limit",
          "type": "uint256"
        }
      ],
      "name": "adjustDailyFraxLimit",
      "outputs": [],
      "stateMutability": "nonpayable",
      "type": "function"
    },
    {
      "inputs": [
        {
          "internalType": "address",
          "name": "account_",
          "type": "address"
        },
        {
          "internalType": "address",
          "name": "sender_",
          "type": "address"
        }
      ],
      "name": "allowance",
      "outputs": [
        {
          "internalType": "uint256",
          "name": "",
          "type": "uint256"
        }
      ],
      "stateMutability": "view",
      "type": "function"
    },
    {
      "inputs": [
        {
          "internalType": "address",
          "name": "usr_",
          "type": "address"
        },
        {
          "internalType": "uint256",
          "name": "wad_",
          "type": "uint256"
        }
      ],
      "name": "approve",
      "outputs": [
        {
          "internalType": "bool",
          "name": "",
          "type": "bool"
        }
      ],
      "stateMutability": "nonpayable",
      "type": "function"
    },
    {
      "inputs": [
        {
          "internalType": "address",
          "name": "",
          "type": "address"
        }
      ],
      "name": "balanceOf",
      "outputs": [
        {
          "internalType": "uint256",
          "name": "",
          "type": "uint256"
        }
      ],
      "stateMutability": "view",
      "type": "function"
    },
    {
      "inputs": [
        {
          "internalType": "address",
          "name": "usr",
          "type": "address"
        },
        {
          "internalType": "uint256",
          "name": "wad",
          "type": "uint256"
        }
      ],
      "name": "burn",
      "outputs": [],
      "stateMutability": "nonpayable",
      "type": "function"
    },
    {
      "inputs": [],
      "name": "dailyFraxLimit",
      "outputs": [
        {
          "internalType": "uint256",
          "name": "",
          "type": "uint256"
        }
      ],
      "stateMutability": "view",
      "type": "function"
    },
    {
      "inputs": [],
      "name": "decimals",
      "outputs": [
        {
          "internalType": "uint8",
          "name": "",
          "type": "uint8"
        }
      ],
      "stateMutability": "view",
      "type": "function"
    },
    {
      "inputs": [
        {
          "internalType": "address",
          "name": "guy",
          "type": "address"
        }
      ],
      "name": "deny",
      "outputs": [],
      "stateMutability": "nonpayable",
      "type": "function"
    },
    {
      "inputs": [
        {
          "internalType": "address",
          "name": "",
          "type": "address"
        }
      ],
      "name": "fraxMintedToday",
      "outputs": [
        {
          "internalType": "uint256",
          "name": "",
          "type": "uint256"
        }
      ],
      "stateMutability": "view",
      "type": "function"
    },
    {
      "inputs": [
        {
          "internalType": "address",
          "name": "",
          "type": "address"
        }
      ],
      "name": "lastMintRestart",
      "outputs": [
        {
          "internalType": "uint256",
          "name": "",
          "type": "uint256"
        }
      ],
      "stateMutability": "view",
      "type": "function"
    },
    {
      "inputs": [
        {
          "internalType": "address",
          "name": "usr",
          "type": "address"
        },
        {
          "internalType": "uint256",
          "name": "wad",
          "type": "uint256"
        }
      ],
      "name": "mint",
      "outputs": [],
      "stateMutability": "nonpayable",
      "type": "function"
    },
    {
      "inputs": [
        {
          "internalType": "address",
          "name": "src",
          "type": "address"
        },
        {
          "internalType": "address",
          "name": "dst",
          "type": "address"
        },
        {
          "internalType": "uint256",
          "name": "wad",
          "type": "uint256"
        }
      ],
      "name": "move",
      "outputs": [],
      "stateMutability": "nonpayable",
      "type": "function"
    },
    {
      "inputs": [],
      "name": "name",
      "outputs": [
        {
          "internalType": "string",
          "name": "",
          "type": "string"
        }
      ],
      "stateMutability": "view",
      "type": "function"
    },
    {
      "inputs": [
        {
          "internalType": "address",
          "name": "",
          "type": "address"
        }
      ],
      "name": "nonces",
      "outputs": [
        {
          "internalType": "uint256",
          "name": "",
          "type": "uint256"
        }
      ],
      "stateMutability": "view",
      "type": "function"
    },
    {
      "inputs": [
        {
          "internalType": "address",
          "name": "holder",
          "type": "address"
        },
        {
          "internalType": "address",
          "name": "spender",
          "type": "address"
        },
        {
          "internalType": "uint256",
          "name": "nonce",
          "type": "uint256"
        },
        {
          "internalType": "uint256",
          "name": "expiry",
          "type": "uint256"
        },
        {
          "internalType": "bool",
          "name": "allowed",
          "type": "bool"
        },
        {
          "internalType": "uint8",
          "name": "v",
          "type": "uint8"
        },
        {
          "internalType": "bytes32",
          "name": "r",
          "type": "bytes32"
        },
        {
          "internalType": "bytes32",
          "name": "s",
          "type": "bytes32"
        }
      ],
      "name": "permit",
      "outputs": [],
      "stateMutability": "nonpayable",
      "type": "function"
    },
    {
      "inputs": [
        {
          "internalType": "address",
          "name": "usr",
          "type": "address"
        },
        {
          "internalType": "uint256",
          "name": "wad",
          "type": "uint256"
        }
      ],
      "name": "pull",
      "outputs": [],
      "stateMutability": "nonpayable",
      "type": "function"
    },
    {
      "inputs": [
        {
          "internalType": "address",
          "name": "usr",
          "type": "address"
        },
        {
          "internalType": "uint256",
          "name": "wad",
          "type": "uint256"
        }
      ],
      "name": "push",
      "outputs": [],
      "stateMutability": "nonpayable",
      "type": "function"
    },
    {
      "inputs": [
        {
          "internalType": "address",
          "name": "guy",
          "type": "address"
        }
      ],
      "name": "rely",
      "outputs": [],
      "stateMutability": "nonpayable",
      "type": "function"
    },
    {
      "inputs": [],
      "name": "symbol",
      "outputs": [
        {
          "internalType": "string",
          "name": "",
          "type": "string"
        }
      ],
      "stateMutability": "view",
      "type": "function"
    },
    {
      "inputs": [],
      "name": "totalSupply",
      "outputs": [
        {
          "internalType": "uint256",
          "name": "",
          "type": "uint256"
        }
      ],
      "stateMutability": "view",
      "type": "function"
    },
    {
      "inputs": [
        {
          "internalType": "address",
          "name": "dst",
          "type": "address"
        },
        {
          "internalType": "uint256",
          "name": "wad",
          "type": "uint256"
        }
      ],
      "name": "transfer",
      "outputs": [
        {
          "internalType": "bool",
          "name": "",
          "type": "bool"
        }
      ],
      "stateMutability": "nonpayable",
      "type": "function"
    },
    {
      "inputs": [
        {
          "internalType": "address",
          "name": "src",
          "type": "address"
        },
        {
          "internalType": "address",
          "name": "dst",
          "type": "address"
        },
        {
          "internalType": "uint256",
          "name": "wad",
          "type": "uint256"
        }
      ],
      "name": "transferFrom",
      "outputs": [
        {
          "internalType": "bool",
          "name": "",
          "type": "bool"
        }
      ],
      "stateMutability": "nonpayable",
      "type": "function"
    },
    {
      "inputs": [],
      "name": "version",
      "outputs": [
        {
          "internalType": "string",
          "name": "",
          "type": "string"
        }
      ],
      "stateMutability": "view",
      "type": "function"
    },
    {
      "inputs": [
        {
          "internalType": "address",
          "name": "",
          "type": "address"
        }
      ],
      "name": "wards",
      "outputs": [
        {
          "internalType": "uint256",
          "name": "",
          "type": "uint256"
        }
      ],
      "stateMutability": "view",
      "type": "function"
    }
  ],
  "bytecode": "0x608060405234801561001057600080fd5b506040516115d33803806115d38339818101604052602081101561003357600080fd5b5051336000908152602081815260409182902060019081905582518084018452600a815269232920ac102a27a5a2a760b11b9083015282518084018452908152603160f81b9082015281517f8b73c3c69bb8fe3d512ecc4cf759cc79239f7b179b0ffacaa9a75d522b39400f818301527f0b5e63856806857c7af67a3841d8148fce118228c7167c9e8705ab68578b5d9f818401527fc89efdaa54c0f20c7adf612882df0950f5a951637e0307cdcb4c672f298b8bc6606082015260808101939093523060a0808501919091528251808503909101815260c0909301909152815191012060085569021e19e0c9bab240000060025561149c806101376000396000f3fe608060405234801561001057600080fd5b50600436106101b95760003560e01c80637ecebe00116100f9578063b753a98c11610097578063d3fd35ec11610071578063d3fd35ec14610618578063d7f1bf1214610635578063dd62ed3e1461063d578063f2d5d56b14610678576101b9565b8063b753a98c14610569578063bb35783b146105a2578063bf353dbb146105e5576101b9565b80639c52a7f1116100d35780639c52a7f1146104915780639dc29fac146104c45780639e16de34146104fd578063a9059cbb14610530576101b9565b80637ecebe00146103ef5780638fcbaf0c1461042257806395d89b4114610489576101b9565b80633644e5151161016657806354fd4d501161014057806354fd4d501461038157806365fae35e1461034e57806370a0823114610389578063798247ae146103bc576101b9565b80633644e5151461030b57806340c10f19146103135780635422224e1461034e576101b9565b806323b872dd1161019757806323b872dd146102a257806330adf81f146102e5578063313ce567146102ed576101b9565b806306fdde03146101be578063095ea7b31461023b57806318160ddd14610288575b600080fd5b6101c66106b1565b6040805160208082528351818301528351919283929083019185019080838360005b838110156102005781810151838201526020016101e8565b50505050905090810190601f16801561022d5780820380516001836020036101000a031916815260200191505b509250505060405180910390f35b6102746004803603604081101561025157600080fd5b5073ffffffffffffffffffffffffffffffffffffffff81351690602001356106ea565b604080519115158252519081900360200190f35b6102906106ff565b60408051918252519081900360200190f35b610274600480360360608110156102b857600080fd5b5073ffffffffffffffffffffffffffffffffffffffff813581169160208101359091169060400135610705565b610290610950565b6102f5610974565b6040805160ff9092168252519081900360200190f35b610290610979565b61034c6004803603604081101561032957600080fd5b5073ffffffffffffffffffffffffffffffffffffffff813516906020013561097f565b005b61034c6004803603602081101561036457600080fd5b503573ffffffffffffffffffffffffffffffffffffffff16610b64565b6101c6610bf2565b6102906004803603602081101561039f57600080fd5b503573ffffffffffffffffffffffffffffffffffffffff16610c2b565b610290600480360360208110156103d257600080fd5b503573ffffffffffffffffffffffffffffffffffffffff16610c3d565b6102906004803603602081101561040557600080fd5b503573ffffffffffffffffffffffffffffffffffffffff16610c4f565b61034c600480360361010081101561043957600080fd5b5073ffffffffffffffffffffffffffffffffffffffff8135811691602081013590911690604081013590606081013590608081013515159060ff60a0820135169060c08101359060e00135610c61565b6101c6610fff565b61034c600480360360208110156104a757600080fd5b503573ffffffffffffffffffffffffffffffffffffffff16611038565b61034c600480360360408110156104da57600080fd5b5073ffffffffffffffffffffffffffffffffffffffff81351690602001356110c3565b6102906004803603602081101561051357600080fd5b503573ffffffffffffffffffffffffffffffffffffffff166112ec565b6102746004803603604081101561054657600080fd5b5073ffffffffffffffffffffffffffffffffffffffff81351690602001356112fe565b61034c6004803603604081101561057f57600080fd5b5073ffffffffffffffffffffffffffffffffffffffff813516906020013561130b565b61034c600480360360608110156105b857600080fd5b5073ffffffffffffffffffffffffffffffffffffffff81358116916020810135909116906040013561131b565b610290600480360360208110156105fb57600080fd5b503573ffffffffffffffffffffffffffffffffffffffff1661132c565b61034c6004803603602081101561062e57600080fd5b503561133e565b6102906113a7565b6102906004803603604081101561065357600080fd5b5073ffffffffffffffffffffffffffffffffffffffff813581169160200135166113ad565b61034c6004803603604081101561068e57600080fd5b5073ffffffffffffffffffffffffffffffffffffffff81351690602001356113b9565b6040518060400160405280600a81526020017f4652415820544f4b454e0000000000000000000000000000000000000000000081525081565b60006106f683836113c4565b90505b92915050565b60015481565b73ffffffffffffffffffffffffffffffffffffffff831660009081526003602052604081205482111561077f576040805162461bcd60e51b815260206004820152601960248201527f467261782f696e73756666696369656e742d62616c616e636500000000000000604482015290519081900360640190fd5b73ffffffffffffffffffffffffffffffffffffffff841633148015906107ce57507fffffffffffffffffffffffffffffffffffffffffffffffffffffffffffffffff6107cb8533611437565b14155b1561087657816107de8533611437565b1015610831576040805162461bcd60e51b815260206004820152601b60248201527f467261782f696e73756666696369656e742d616c6c6f77616e63650000000000604482015290519081900360640190fd5b61084461083e8533611437565b8361146f565b73ffffffffffffffffffffffffffffffffffffffff851660009081526004602090815260408083203384529091529020555b73ffffffffffffffffffffffffffffffffffffffff84166000908152600360205260409020546108a6908361146f565b73ffffffffffffffffffffffffffffffffffffffff80861660009081526003602052604080822093909355908516815220546108e2908361147f565b73ffffffffffffffffffffffffffffffffffffffff80851660008181526003602090815260409182902094909455805186815290519193928816927fddf252ad1be2c89b69c2b068fc378daa952ba7f163c4a11628f55a4df523b3ef92918290030190a35060019392505050565b7fea2aa0a1be11a07ed86d755c93467f4f82362b452371d1ba94d1715123511acb81565b601281565b60085481565b33600090815260208190526040902054610aac57600254336000908152600760205260409020546109b190839061147f565b1115806109e8575033600090815260066020526040902054611964906109d890439061146f565b101580156109e857506002548111155b610a39576040805162461bcd60e51b815260206004820152601560248201527f4f766572206461696c792046726178204c696d69740000000000000000000000604482015290519081900360640190fd5b3360009081526006602052604090205461196490610a5890439061146f565b10610a815733600090815260076020908152604080832084905560069091529020439055610aac565b33600090815260076020526040902054610a9b908261147f565b336000908152600760205260409020555b73ffffffffffffffffffffffffffffffffffffffff8216600090815260036020526040902054610adc908261147f565b73ffffffffffffffffffffffffffffffffffffffff8316600090815260036020526040902055600154610b0f908261147f565b60015560408051828152905173ffffffffffffffffffffffffffffffffffffffff8416916000917fddf252ad1be2c89b69c2b068fc378daa952ba7f163c4a11628f55a4df523b3ef9181900360200190a35050565b33600090815260208190526040902054600114610bc8576040805162461bcd60e51b815260206004820152601360248201527f467261782f6e6f742d617574686f72697a656400000000000000000000000000604482015290519081900360640190fd5b73ffffffffffffffffffffffffffffffffffffffff16600090815260208190526040902060019055565b6040518060400160405280600181526020017f310000000000000000000000000000000000000000000000000000000000000081525081565b60036020526000908152604090205481565b60066020526000908152604090205481565b60056020526000908152604090205481565b600854604080517fea2aa0a1be11a07ed86d755c93467f4f82362b452371d1ba94d1715123511acb60208083019190915273ffffffffffffffffffffffffffffffffffffffff808d16838501819052908c166060840152608083018b905260a083018a905288151560c0808501919091528451808503909101815260e0840185528051908301207f190100000000000000000000000000000000000000000000000000000000000061010085015261010284019590955261012280840195909552835180840390950185526101429092019092528251929091019190912090610d91576040805162461bcd60e51b815260206004820152601660248201527f467261782f696e76616c69642d616464726573732d3000000000000000000000604482015290519081900360640190fd5b60018185858560405160008152602001604052604051808581526020018460ff1681526020018381526020018281526020019450505050506020604051602081039080840390855afa158015610deb573d6000803e3d6000fd5b5050506020604051035173ffffffffffffffffffffffffffffffffffffffff168973ffffffffffffffffffffffffffffffffffffffff1614610e74576040805162461bcd60e51b815260206004820152601360248201527f467261782f696e76616c69642d7065726d697400000000000000000000000000604482015290519081900360640190fd5b851580610e815750854211155b610ed2576040805162461bcd60e51b815260206004820152601360248201527f467261782f7065726d69742d6578706972656400000000000000000000000000604482015290519081900360640190fd5b73ffffffffffffffffffffffffffffffffffffffff891660009081526005602052604090208054600181019091558714610f53576040805162461bcd60e51b815260206004820152601260248201527f467261782f696e76616c69642d6e6f6e63650000000000000000000000000000604482015290519081900360640190fd5b600085610f61576000610f83565b7fffffffffffffffffffffffffffffffffffffffffffffffffffffffffffffffff5b73ffffffffffffffffffffffffffffffffffffffff808c166000818152600460209081526040808320948f168084529482529182902085905581518581529151949550929391927f8c5be1e5ebec7d5bd14f71427d1e84f3dd0314c0f7b2291e5b200ac8c7c3b92592918290030190a350505050505050505050565b6040518060400160405280600481526020017f465241580000000000000000000000000000000000000000000000000000000081525081565b3360009081526020819052604090205460011461109c576040805162461bcd60e51b815260206004820152601360248201527f467261782f6e6f742d617574686f72697a656400000000000000000000000000604482015290519081900360640190fd5b73ffffffffffffffffffffffffffffffffffffffff16600090815260208190526040812055565b73ffffffffffffffffffffffffffffffffffffffff821660009081526003602052604090205481111561113d576040805162461bcd60e51b815260206004820152601960248201527f467261782f696e73756666696369656e742d62616c616e636500000000000000604482015290519081900360640190fd5b73ffffffffffffffffffffffffffffffffffffffff8216331480159061118c57507fffffffffffffffffffffffffffffffffffffffffffffffffffffffffffffffff6111898333611437565b14155b15611234578061119c8333611437565b10156111ef576040805162461bcd60e51b815260206004820152601b60248201527f467261782f696e73756666696369656e742d616c6c6f77616e63650000000000604482015290519081900360640190fd5b6112026111fc8333611437565b8261146f565b73ffffffffffffffffffffffffffffffffffffffff831660009081526004602090815260408083203384529091529020555b73ffffffffffffffffffffffffffffffffffffffff8216600090815260036020526040902054611264908261146f565b73ffffffffffffffffffffffffffffffffffffffff8316600090815260036020526040902055600154611297908261146f565b60015560408051828152905160009173ffffffffffffffffffffffffffffffffffffffff8516917fddf252ad1be2c89b69c2b068fc378daa952ba7f163c4a11628f55a4df523b3ef9181900360200190a35050565b60076020526000908152604090205481565b60006106f6338484610705565b611316338383610705565b505050565b611326838383610705565b50505050565b60006020819052908152604090205481565b336000908152602081905260409020546001146113a2576040805162461bcd60e51b815260206004820152601360248201527f467261782f6e6f742d617574686f72697a656400000000000000000000000000604482015290519081900360640190fd5b600255565b60025481565b60006106f68383611437565b611316823383610705565b33600081815260046020908152604080832073ffffffffffffffffffffffffffffffffffffffff8716808552908352818420869055815186815291519394909390927f8c5be1e5ebec7d5bd14f71427d1e84f3dd0314c0f7b2291e5b200ac8c7c3b925928290030190a350600192915050565b73ffffffffffffffffffffffffffffffffffffffff918216600090815260046020908152604080832093909416825291909152205490565b808203828111156106f957600080fd5b808201828110156106f957600080fdfea164736f6c6343000705000a",
  "linkReferences": {},
  "deployedLinkReferences": {}
}