{
  "_format": "hh-sol-artifact-1",
  "contractName": "OlympusStaking",
  "sourceName": "contracts/Staking.sol",
  "abi": [
    {
      "inputs": [
        {
          "internalType": "address",
          "name": "_OHM",
          "type": "address"
        },
        {
          "internalType": "address",
          "name": "_sOHM",
          "type": "address"
        },
        {
          "internalType": "uint256",
          "name": "_epochLength",
          "type": "uint256"
        },
        {
          "internalType": "uint256",
          "name": "_firstEpochNumber",
          "type": "uint256"
        },
        {
          "internalType": "uint256",
          "name": "_firstEpochBlock",
          "type": "uint256"
        }
      ],
      "stateMutability": "nonpayable",
      "type": "constructor"
    },
    {
      "anonymous": false,
      "inputs": [
        {
          "indexed": true,
          "internalType": "address",
          "name": "previousOwner",
          "type": "address"
        },
        {
          "indexed": true,
          "internalType": "address",
          "name": "newOwner",
          "type": "address"
        }
      ],
      "name": "OwnershipPulled",
      "type": "event"
    },
    {
      "anonymous": false,
      "inputs": [
        {
          "indexed": true,
          "internalType": "address",
          "name": "previousOwner",
          "type": "address"
        },
        {
          "indexed": true,
          "internalType": "address",
          "name": "newOwner",
          "type": "address"
        }
      ],
      "name": "OwnershipPushed",
      "type": "event"
    },
    {
      "inputs": [],
      "name": "OHM",
      "outputs": [
        {
          "internalType": "address",
          "name": "",
          "type": "address"
        }
      ],
      "stateMutability": "view",
      "type": "function"
    },
    {
      "inputs": [
        {
          "internalType": "address",
          "name": "_recipient",
          "type": "address"
        }
      ],
      "name": "claim",
      "outputs": [],
      "stateMutability": "nonpayable",
      "type": "function"
    },
    {
      "inputs": [],
      "name": "contractBalance",
      "outputs": [
        {
          "internalType": "uint256",
          "name": "",
          "type": "uint256"
        }
      ],
      "stateMutability": "view",
      "type": "function"
    },
    {
      "inputs": [],
      "name": "distributor",
      "outputs": [
        {
          "internalType": "address",
          "name": "",
          "type": "address"
        }
      ],
      "stateMutability": "view",
      "type": "function"
    },
    {
      "inputs": [],
      "name": "epoch",
      "outputs": [
        {
          "internalType": "uint256",
          "name": "length",
          "type": "uint256"
        },
        {
          "internalType": "uint256",
          "name": "number",
          "type": "uint256"
        },
        {
          "internalType": "uint256",
          "name": "endBlock",
          "type": "uint256"
        },
        {
          "internalType": "uint256",
          "name": "distribute",
          "type": "uint256"
        }
      ],
      "stateMutability": "view",
      "type": "function"
    },
    {
      "inputs": [],
      "name": "forfeit",
      "outputs": [],
      "stateMutability": "nonpayable",
      "type": "function"
    },
    {
      "inputs": [
        {
          "internalType": "uint256",
          "name": "_amount",
          "type": "uint256"
        }
      ],
      "name": "giveLockBonus",
      "outputs": [],
      "stateMutability": "nonpayable",
      "type": "function"
    },
    {
      "inputs": [],
      "name": "index",
      "outputs": [
        {
          "internalType": "uint256",
          "name": "",
          "type": "uint256"
        }
      ],
      "stateMutability": "view",
      "type": "function"
    },
    {
      "inputs": [],
      "name": "locker",
      "outputs": [
        {
          "internalType": "address",
          "name": "",
          "type": "address"
        }
      ],
      "stateMutability": "view",
      "type": "function"
    },
    {
      "inputs": [],
      "name": "manager",
      "outputs": [
        {
          "internalType": "address",
          "name": "",
          "type": "address"
        }
      ],
      "stateMutability": "view",
      "type": "function"
    },
    {
      "inputs": [],
      "name": "pullManagement",
      "outputs": [],
      "stateMutability": "nonpayable",
      "type": "function"
    },
    {
      "inputs": [
        {
          "internalType": "address",
          "name": "newOwner_",
          "type": "address"
        }
      ],
      "name": "pushManagement",
      "outputs": [],
      "stateMutability": "nonpayable",
      "type": "function"
    },
    {
      "inputs": [],
      "name": "rebase",
      "outputs": [],
      "stateMutability": "nonpayable",
      "type": "function"
    },
    {
      "inputs": [],
      "name": "renounceManagement",
      "outputs": [],
      "stateMutability": "nonpayable",
      "type": "function"
    },
    {
      "inputs": [
        {
          "internalType": "uint256",
          "name": "_amount",
          "type": "uint256"
        }
      ],
      "name": "returnLockBonus",
      "outputs": [],
      "stateMutability": "nonpayable",
      "type": "function"
    },
    {
      "inputs": [],
      "name": "sOHM",
      "outputs": [
        {
          "internalType": "address",
          "name": "",
          "type": "address"
        }
      ],
      "stateMutability": "view",
      "type": "function"
    },
    {
      "inputs": [
        {
          "internalType": "enum OlympusStaking.CONTRACTS",
          "name": "_contract",
          "type": "uint8"
        },
        {
          "internalType": "address",
          "name": "_address",
          "type": "address"
        }
      ],
      "name": "setContract",
      "outputs": [],
      "stateMutability": "nonpayable",
      "type": "function"
    },
    {
      "inputs": [
        {
          "internalType": "uint256",
          "name": "_warmupPeriod",
          "type": "uint256"
        }
      ],
      "name": "setWarmup",
      "outputs": [],
      "stateMutability": "nonpayable",
      "type": "function"
    },
    {
      "inputs": [
        {
          "internalType": "uint256",
          "name": "_amount",
          "type": "uint256"
        },
        {
          "internalType": "address",
          "name": "_recipient",
          "type": "address"
        }
      ],
      "name": "stake",
      "outputs": [
        {
          "internalType": "bool",
          "name": "",
          "type": "bool"
        }
      ],
      "stateMutability": "nonpayable",
      "type": "function"
    },
    {
      "inputs": [],
      "name": "toggleDepositLock",
      "outputs": [],
      "stateMutability": "nonpayable",
      "type": "function"
    },
    {
      "inputs": [],
      "name": "totalBonus",
      "outputs": [
        {
          "internalType": "uint256",
          "name": "",
          "type": "uint256"
        }
      ],
      "stateMutability": "view",
      "type": "function"
    },
    {
      "inputs": [
        {
          "internalType": "uint256",
          "name": "_amount",
          "type": "uint256"
        },
        {
          "internalType": "bool",
          "name": "_trigger",
          "type": "bool"
        }
      ],
      "name": "unstake",
      "outputs": [],
      "stateMutability": "nonpayable",
      "type": "function"
    },
    {
      "inputs": [],
      "name": "warmupContract",
      "outputs": [
        {
          "internalType": "address",
          "name": "",
          "type": "address"
        }
      ],
      "stateMutability": "view",
      "type": "function"
    },
    {
      "inputs": [
        {
          "internalType": "address",
          "name": "",
          "type": "address"
        }
      ],
      "name": "warmupInfo",
      "outputs": [
        {
          "internalType": "uint256",
          "name": "deposit",
          "type": "uint256"
        },
        {
          "internalType": "uint256",
          "name": "gons",
          "type": "uint256"
        },
        {
          "internalType": "uint256",
          "name": "expiry",
          "type": "uint256"
        },
        {
          "internalType": "bool",
          "name": "lock",
          "type": "bool"
        }
      ],
      "stateMutability": "view",
      "type": "function"
    },
    {
      "inputs": [],
      "name": "warmupPeriod",
      "outputs": [
        {
          "internalType": "uint256",
          "name": "",
          "type": "uint256"
        }
      ],
      "stateMutability": "view",
      "type": "function"
    }
  ],
  "bytecode": "0x60c060405234801561001057600080fd5b50604051611be4380380611be4833981810160405260a081101561003357600080fd5b50805160208201516040808401516060850151608090950151600080546001600160a01b031916331780825593519596949592949391926001600160a01b0392909216917fea8258f2d9ddb679928cf34b78cf645b7feda9acc828e4dd82d014eaae270eba908290a36001600160a01b0385166100af57600080fd5b6001600160601b0319606086901b166080526001600160a01b0384166100d457600080fd5b6001600160601b0319606094851b1660a0526040805160808101825284815260208101849052908101829052600094018490526002929092556003556004556005555060805160601c60a05160601c611a5e6101866000398061043b528061052a528061065a52806107535280610afa5280610c245280610f435280610fd4528061112f528061133f528061149f525080610a045280610e355280610f785280610fa1528061143e5250611a5e6000f3fe608060405234801561001057600080fd5b50600436106101a35760003560e01c80638f077b83116100ee578063bfe1092811610097578063deac361a11610071578063deac361a146103ce578063ed4acaa8146103d6578063f3d86e4a146103de578063f62ae76a146103e6576101a3565b8063bfe10928146103a1578063c9f464ff146103a9578063d7b96d4e146103c6576101a3565b8063a6c41fec116100c8578063a6c41fec14610389578063a8dd07dc14610391578063af14052c14610399576101a3565b80638f077b831461032e578063900cf0cf146103365780639ebea88c14610364576101a3565b8063481c6a75116101505780637acb77571161012a5780637acb7757146102b7578063865e6fd3146102f75780638b7afe2e14610326576101a3565b8063481c6a75146102595780635a96ac0a146102615780636746f4c214610269576101a3565b80631e83409a116101815780631e83409a146101f35780632986c0e51461021957806346f68ee914610233576101a3565b806303c23670146101a8578063089208d8146101c757806315079925146101cf575b600080fd5b6101c5600480360360208110156101be57600080fd5b5035610403565b005b6101c5610467565b6101d7610528565b604080516001600160a01b039092168252519081900360200190f35b6101c56004803603602081101561020957600080fd5b50356001600160a01b031661054c565b61022161074f565b60408051918252519081900360200190f35b6101c56004803603602081101561024957600080fd5b50356001600160a01b03166107db565b6101d76108f2565b6101c5610901565b61028f6004803603602081101561027f57600080fd5b50356001600160a01b03166109c3565b6040805194855260208501939093528383019190915215156060830152519081900360800190f35b6102e3600480360360408110156102cd57600080fd5b50803590602001356001600160a01b03166109ed565b604080519115158252519081900360200190f35b6101c56004803603604081101561030d57600080fd5b50803560ff1690602001356001600160a01b0316610c57565b610221610e2b565b6101c5610ed7565b61033e610f19565b604080519485526020850193909352838301919091526060830152519081900360800190f35b6101c56004803603604081101561037a57600080fd5b50803590602001351515610f28565b6101d7610f9f565b610221610fc3565b6101c5610fc9565b6101d76111d7565b6101c5600480360360208110156103bf57600080fd5b50356111e6565b6101d761124a565b610221611259565b6101d761125f565b6101c561126e565b6101c5600480360360208110156103fc57600080fd5b5035611467565b6007546001600160a01b0316331461041a57600080fd5b60085461042790826114c9565b600855600754610464906001600160a01b037f0000000000000000000000000000000000000000000000000000000000000000811691168361152a565b50565b6000546001600160a01b031633146104c6576040805162461bcd60e51b815260206004820181905260248201527f4f776e61626c653a2063616c6c6572206973206e6f7420746865206f776e6572604482015290519081900360640190fd5b600080546040516001600160a01b03909116907fea8258f2d9ddb679928cf34b78cf645b7feda9acc828e4dd82d014eaae270eba908390a3600080547fffffffffffffffffffffffff0000000000000000000000000000000000000000169055565b7f000000000000000000000000000000000000000000000000000000000000000081565b61055461196f565b506001600160a01b0381166000908152600b6020908152604091829020825160808101845281548152600182015492810192909252600281015492820183905260039081015460ff1615156060830152549091118015906105b85750604081015115155b1561074b576001600160a01b038083166000908152600b60209081526040808320838155600181018490556002810193909355600390920180547fffffffffffffffffffffffffffffffffffffffffffffffffffffffffffffff001690556009548482015183517f7965d56d000000000000000000000000000000000000000000000000000000008152600481019190915292519084169363c3a2a6659387937f000000000000000000000000000000000000000000000000000000000000000090921692637965d56d92602480840193919291829003018186803b1580156106a057600080fd5b505afa1580156106b4573d6000803e3d6000fd5b505050506040513d60208110156106ca57600080fd5b5051604080517fffffffff0000000000000000000000000000000000000000000000000000000060e086901b1681526001600160a01b039093166004840152602483019190915251604480830192600092919082900301818387803b15801561073257600080fd5b505af1158015610746573d6000803e3d6000fd5b505050505b5050565b60007f00000000000000000000000000000000000000000000000000000000000000006001600160a01b0316632986c0e56040518163ffffffff1660e01b815260040160206040518083038186803b1580156107aa57600080fd5b505afa1580156107be573d6000803e3d6000fd5b505050506040513d60208110156107d457600080fd5b5051905090565b6000546001600160a01b0316331461083a576040805162461bcd60e51b815260206004820181905260248201527f4f776e61626c653a2063616c6c6572206973206e6f7420746865206f776e6572604482015290519081900360640190fd5b6001600160a01b03811661087f5760405162461bcd60e51b81526004018080602001828103825260268152602001806119bd6026913960400191505060405180910390fd5b600080546040516001600160a01b03808516939216917fea8258f2d9ddb679928cf34b78cf645b7feda9acc828e4dd82d014eaae270eba91a3600180547fffffffffffffffffffffffff0000000000000000000000000000000000000000166001600160a01b0392909216919091179055565b6000546001600160a01b031690565b6001546001600160a01b0316331461094a5760405162461bcd60e51b8152600401808060200182810382526022815260200180611a066022913960400191505060405180910390fd5b600154600080546040516001600160a01b0393841693909116917faa151555690c956fc3ea32f106bb9f119b5237a061eaa8557cff3e51e3792c8d91a3600154600080547fffffffffffffffffffffffff0000000000000000000000000000000000000000166001600160a01b03909216919091179055565b600b6020526000908152604090208054600182015460028301546003909301549192909160ff1684565b60006109f7610fc9565b610a2c6001600160a01b037f0000000000000000000000000000000000000000000000000000000000000000163330866115af565b610a3461196f565b506001600160a01b0382166000908152600b602090815260409182902082516080810184528154815260018201549281019290925260028101549282019290925260039091015460ff161580156060830152610ad7576040805162461bcd60e51b815260206004820152601f60248201527f4465706f7369747320666f72206163636f756e7420617265206c6f636b656400604482015290519081900360640190fd5b604080516080810190915281518190610af090876114c9565b8152602001610b937f00000000000000000000000000000000000000000000000000000000000000006001600160a01b0316631bd39674886040518263ffffffff1660e01b81526004018082815260200191505060206040518083038186803b158015610b5c57600080fd5b505afa158015610b70573d6000803e3d6000fd5b505050506040513d6020811015610b8657600080fd5b50516020850151906114c9565b8152600a54600354602090920191610baa916114c9565b8152600060209182018190526001600160a01b038681168252600b835260409182902084518155928401516001840155908301516002830155606090920151600390910180547fffffffffffffffffffffffffffffffffffffffffffffffffffffffffffffff0016911515919091179055600954610c4d917f0000000000000000000000000000000000000000000000000000000000000000811691168661152a565b5060019392505050565b6000546001600160a01b03163314610cb6576040805162461bcd60e51b815260206004820181905260248201527f4f776e61626c653a2063616c6c6572206973206e6f7420746865206f776e6572604482015290519081900360640190fd5b6000826002811115610cc457fe5b1415610d0257600680547fffffffffffffffffffffffff0000000000000000000000000000000000000000166001600160a01b03831617905561074b565b6001826002811115610d1057fe5b1415610d96576009546001600160a01b031615610d5e5760405162461bcd60e51b81526004018080602001828103825260238152602001806119e36023913960400191505060405180910390fd5b600980547fffffffffffffffffffffffff0000000000000000000000000000000000000000166001600160a01b03831617905561074b565b6002826002811115610da457fe5b141561074b576007546001600160a01b031615610df25760405162461bcd60e51b815260040180806020018281038252602381526020018061199a6023913960400191505060405180910390fd5b600780546001600160a01b0383167fffffffffffffffffffffffff00000000000000000000000000000000000000009091161790555050565b6000610ed26008547f00000000000000000000000000000000000000000000000000000000000000006001600160a01b03166370a08231306040518263ffffffff1660e01b815260040180826001600160a01b0316815260200191505060206040518083038186803b158015610ea057600080fd5b505afa158015610eb4573d6000803e3d6000fd5b505050506040513d6020811015610eca57600080fd5b5051906114c9565b905090565b336000908152600b6020526040902060030180547fffffffffffffffffffffffffffffffffffffffffffffffffffffffffffffff00811660ff90911615179055565b60025460035460045460055484565b8015610f3657610f36610fc9565b610f6b6001600160a01b037f0000000000000000000000000000000000000000000000000000000000000000163330856115af565b61074b6001600160a01b037f000000000000000000000000000000000000000000000000000000000000000016338461152a565b7f000000000000000000000000000000000000000000000000000000000000000081565b60085481565b60045443106111d5577f00000000000000000000000000000000000000000000000000000000000000006001600160a01b031663058ecdb46002600301546002600101546040518363ffffffff1660e01b81526004018083815260200182815260200192505050602060405180830381600087803b15801561104a57600080fd5b505af115801561105e573d6000803e3d6000fd5b505050506040513d602081101561107457600080fd5b5050600254600454611085916114c9565b6004556003805460010190556006546001600160a01b03161561111f57600660009054906101000a90046001600160a01b03166001600160a01b031663e4fc6b6d6040518163ffffffff1660e01b8152600401602060405180830381600087803b1580156110f257600080fd5b505af1158015611106573d6000803e3d6000fd5b505050506040513d602081101561111c57600080fd5b50505b6000611129610e2b565b905060007f00000000000000000000000000000000000000000000000000000000000000006001600160a01b0316639358928b6040518163ffffffff1660e01b815260040160206040518083038186803b15801561118657600080fd5b505afa15801561119a573d6000803e3d6000fd5b505050506040513d60208110156111b057600080fd5b505190508082116111c557600060055561074b565b6111cf828261163d565b60055550505b565b6006546001600160a01b031681565b6000546001600160a01b03163314611245576040805162461bcd60e51b815260206004820181905260248201527f4f776e61626c653a2063616c6c6572206973206e6f7420746865206f776e6572604482015290519081900360640190fd5b600a55565b6007546001600160a01b031681565b600a5481565b6009546001600160a01b031681565b61127661196f565b50336000818152600b602081815260408084208151608081018352815481526001820180548286019081526002840180548487015260038501805460ff8116151560608701529a8a529787529388905590879055959091557fffffffffffffffffffffffffffffffffffffffffffffffffffffffffffffff00909516909255600954925182517f7965d56d000000000000000000000000000000000000000000000000000000008152600481019190915291516001600160a01b039384169363c3a2a6659330937f000000000000000000000000000000000000000000000000000000000000000090921692637965d56d92602480840193919291829003018186803b15801561138557600080fd5b505afa158015611399573d6000803e3d6000fd5b505050506040513d60208110156113af57600080fd5b5051604080517fffffffff0000000000000000000000000000000000000000000000000000000060e086901b1681526001600160a01b039093166004840152602483019190915251604480830192600092919082900301818387803b15801561141757600080fd5b505af115801561142b573d6000803e3d6000fd5b5050825161046492506001600160a01b037f0000000000000000000000000000000000000000000000000000000000000000169150339061152a565b6007546001600160a01b0316331461147e57600080fd5b60085461148b908261163d565b600855600754610464906001600160a01b037f00000000000000000000000000000000000000000000000000000000000000008116911630846115af565b600082820183811015611523576040805162461bcd60e51b815260206004820152601b60248201527f536166654d6174683a206164646974696f6e206f766572666c6f770000000000604482015290519081900360640190fd5b9392505050565b604080516001600160a01b038416602482015260448082018490528251808303909101815260649091019091526020810180517bffffffffffffffffffffffffffffffffffffffffffffffffffffffff167fa9059cbb000000000000000000000000000000000000000000000000000000001790526115aa90849061167f565b505050565b604080516001600160a01b0380861660248301528416604482015260648082018490528251808303909101815260849091019091526020810180517bffffffffffffffffffffffffffffffffffffffffffffffffffffffff167f23b872dd0000000000000000000000000000000000000000000000000000000017905261163790859061167f565b50505050565b600061152383836040518060400160405280601e81526020017f536166654d6174683a207375627472616374696f6e206f766572666c6f770000815250611730565b60606116d4826040518060400160405280602081526020017f5361666545524332303a206c6f772d6c6576656c2063616c6c206661696c6564815250856001600160a01b03166117c79092919063ffffffff16565b8051909150156115aa578080602001905160208110156116f357600080fd5b50516115aa5760405162461bcd60e51b815260040180806020018281038252602a815260200180611a28602a913960400191505060405180910390fd5b600081848411156117bf5760405162461bcd60e51b81526004018080602001828103825283818151815260200191508051906020019080838360005b8381101561178457818101518382015260200161176c565b50505050905090810190601f1680156117b15780820380516001836020036101000a031916815260200191505b509250505060405180910390fd5b505050900390565b60606117d684846000856117de565b949350505050565b60606117e985611969565b61183a576040805162461bcd60e51b815260206004820152601d60248201527f416464726573733a2063616c6c20746f206e6f6e2d636f6e7472616374000000604482015290519081900360640190fd5b60006060866001600160a01b031685876040518082805190602001908083835b6020831061189757805182527fffffffffffffffffffffffffffffffffffffffffffffffffffffffffffffffe0909201916020918201910161185a565b6001836020036101000a03801982511681845116808217855250505050505090500191505060006040518083038185875af1925050503d80600081146118f9576040519150601f19603f3d011682016040523d82523d6000602084013e6118fe565b606091505b509150915081156119125791506117d69050565b8051156119225780518082602001fd5b60405162461bcd60e51b815260206004820181815286516024840152865187939192839260440191908501908083836000831561178457818101518382015260200161176c565b3b151590565b6040518060800160405280600081526020016000815260200160008152602001600015158152509056fe4c6f636b65722063616e6e6f7420626520736574206d6f7265207468616e206f6e63654f776e61626c653a206e6577206f776e657220697320746865207a65726f20616464726573735761726d75702063616e6e6f7420626520736574206d6f7265207468616e206f6e63654f776e61626c653a206d757374206265206e6577206f776e657220746f2070756c6c5361666545524332303a204552433230206f7065726174696f6e20646964206e6f742073756363656564a164736f6c6343000705000a",
  "linkReferences": {},
  "deployedLinkReferences": {}
}