{
  "_format": "hh-sol-artifact-1",
  "contractName": "OlympusBondingCalculator",
  "sourceName": "contracts/StandardBondingCalculator.sol",
  "abi": [
    {
      "inputs": [
        {
          "internalType": "address",
          "name": "_OHM",
          "type": "address"
        }
      ],
      "stateMutability": "nonpayable",
      "type": "constructor"
    },
    {
      "inputs": [],
      "name": "OHM",
      "outputs": [
        {
          "internalType": "address",
          "name": "",
          "type": "address"
        }
      ],
      "stateMutability": "view",
      "type": "function"
    },
    {
      "inputs": [
        {
          "internalType": "address",
          "name": "_pair",
          "type": "address"
        }
      ],
      "name": "getKValue",
      "outputs": [
        {
          "internalType": "uint256",
          "name": "k_",
          "type": "uint256"
        }
      ],
      "stateMutability": "view",
      "type": "function"
    },
    {
      "inputs": [
        {
          "internalType": "address",
          "name": "_pair",
          "type": "address"
        }
      ],
      "name": "getTotalValue",
      "outputs": [
        {
          "internalType": "uint256",
          "name": "_value",
          "type": "uint256"
        }
      ],
      "stateMutability": "view",
      "type": "function"
    },
    {
      "inputs": [
        {
          "internalType": "address",
          "name": "_pair",
          "type": "address"
        }
      ],
      "name": "markdown",
      "outputs": [
        {
          "internalType": "uint256",
          "name": "",
          "type": "uint256"
        }
      ],
      "stateMutability": "view",
      "type": "function"
    },
    {
      "inputs": [
        {
          "internalType": "address",
          "name": "_pair",
          "type": "address"
        },
        {
          "internalType": "uint256",
          "name": "amount_",
          "type": "uint256"
        }
      ],
      "name": "valuation",
      "outputs": [
        {
          "internalType": "uint256",
          "name": "_value",
          "type": "uint256"
        }
      ],
      "stateMutability": "view",
      "type": "function"
    }
  ],
  "bytecode": "0x60a060405234801561001057600080fd5b50604051610ff0380380610ff08339818101604052602081101561003357600080fd5b50516001600160a01b03811661004857600080fd5b606081901b6001600160601b0319166080526001600160a01b0316610f6c6100846000398061025c528061030752806108325250610f6c6000f3fe608060405234801561001057600080fd5b50600436106100675760003560e01c8063490084ef11610050578063490084ef146100ea578063686375491461011d578063a6c41fec1461015057610067565b806332da80a31461006c5780634249719f146100b1575b600080fd5b61009f6004803603602081101561008257600080fd5b503573ffffffffffffffffffffffffffffffffffffffff16610181565b60408051918252519081900360200190f35b61009f600480360360408110156100c757600080fd5b5073ffffffffffffffffffffffffffffffffffffffff81351690602001356103b8565b61009f6004803603602081101561010057600080fd5b503573ffffffffffffffffffffffffffffffffffffffff1661046d565b61009f6004803603602081101561013357600080fd5b503573ffffffffffffffffffffffffffffffffffffffff1661080c565b610158610830565b6040805173ffffffffffffffffffffffffffffffffffffffff9092168252519081900360200190f35b60008060008373ffffffffffffffffffffffffffffffffffffffff16630902f1ac6040518163ffffffff1660e01b815260040160606040518083038186803b1580156101cc57600080fd5b505afa1580156101e0573d6000803e3d6000fd5b505050506040513d60608110156101f657600080fd5b508051602091820151604080517f0dfe168100000000000000000000000000000000000000000000000000000000815290516dffffffffffffffffffffffffffff938416965092909116935060009273ffffffffffffffffffffffffffffffffffffffff7f000000000000000000000000000000000000000000000000000000000000000081169390891692630dfe1681926004808301939192829003018186803b1580156102a457600080fd5b505afa1580156102b8573d6000803e3d6000fd5b505050506040513d60208110156102ce57600080fd5b505173ffffffffffffffffffffffffffffffffffffffff1614156102f35750806102f6565b50815b6103ad6103028661080c565b6103a77f000000000000000000000000000000000000000000000000000000000000000073ffffffffffffffffffffffffffffffffffffffff1663313ce5676040518163ffffffff1660e01b815260040160206040518083038186803b15801561036b57600080fd5b505afa15801561037f573d6000803e3d6000fd5b505050506040513d602081101561039557600080fd5b5051849060ff16600a0a600202610854565b906108ce565b93505050505b919050565b6000806103c48461080c565b905060008473ffffffffffffffffffffffffffffffffffffffff166318160ddd6040518163ffffffff1660e01b815260040160206040518083038186803b15801561040e57600080fd5b505afa158015610422573d6000803e3d6000fd5b505050506040513d602081101561043857600080fd5b50519050610464670de0b6b3a76400006103a761045d6104588886610910565b610b1f565b8590610854565b95945050505050565b6000808273ffffffffffffffffffffffffffffffffffffffff16630dfe16816040518163ffffffff1660e01b815260040160206040518083038186803b1580156104b657600080fd5b505afa1580156104ca573d6000803e3d6000fd5b505050506040513d60208110156104e057600080fd5b5051604080517f313ce567000000000000000000000000000000000000000000000000000000008152905173ffffffffffffffffffffffffffffffffffffffff9092169163313ce56791600480820192602092909190829003018186803b15801561054a57600080fd5b505afa15801561055e573d6000803e3d6000fd5b505050506040513d602081101561057457600080fd5b5051604080517fd21220a7000000000000000000000000000000000000000000000000000000008152905160ff909216925060009173ffffffffffffffffffffffffffffffffffffffff86169163d21220a7916004808301926020929190829003018186803b1580156105e657600080fd5b505afa1580156105fa573d6000803e3d6000fd5b505050506040513d602081101561061057600080fd5b5051604080517f313ce567000000000000000000000000000000000000000000000000000000008152905173ffffffffffffffffffffffffffffffffffffffff9092169163313ce56791600480820192602092909190829003018186803b15801561067a57600080fd5b505afa15801561068e573d6000803e3d6000fd5b505050506040513d60208110156106a457600080fd5b5051604080517f313ce567000000000000000000000000000000000000000000000000000000008152905160ff909216925060009161075a9173ffffffffffffffffffffffffffffffffffffffff88169163313ce56791600480820192602092909190829003018186803b15801561071b57600080fd5b505afa15801561072f573d6000803e3d6000fd5b505050506040513d602081101561074557600080fd5b505160ff166107548585610b4c565b90610bc0565b90506000808673ffffffffffffffffffffffffffffffffffffffff16630902f1ac6040518163ffffffff1660e01b815260040160606040518083038186803b1580156107a557600080fd5b505afa1580156107b9573d6000803e3d6000fd5b505050506040513d60608110156107cf57600080fd5b5080516020909101516dffffffffffffffffffffffffffff9182169350169050610801600a84900a6103a78484610854565b979650505050505050565b600061082a600261082461081f8561046d565b610c02565b90610854565b92915050565b7f000000000000000000000000000000000000000000000000000000000000000081565b6000826108635750600061082a565b8282028284828161087057fe5b04146108c7576040517f08c379a0000000000000000000000000000000000000000000000000000000008152600401808060200182810382526021815260200180610f3f6021913960400191505060405180910390fd5b9392505050565b60006108c783836040518060400160405280601a81526020017f536166654d6174683a206469766973696f6e206279207a65726f000000000000815250610c6c565b610918610f06565b60008211610971576040517f08c379a0000000000000000000000000000000000000000000000000000000008152600401808060200182810382526026815260200180610f196026913960400191505060405180910390fd5b8261098b575060408051602081019091526000815261082a565b71ffffffffffffffffffffffffffffffffffff8311610a7657600082607085901b816109b357fe5b0490507bffffffffffffffffffffffffffffffffffffffffffffffffffffffff811115610a4157604080517f08c379a000000000000000000000000000000000000000000000000000000000815260206004820152601e60248201527f4669786564506f696e743a3a6672616374696f6e3a206f766572666c6f770000604482015290519081900360640190fd5b6040518060200160405280827bffffffffffffffffffffffffffffffffffffffffffffffffffffffff1681525091505061082a565b6000610a92846e01000000000000000000000000000085610d28565b90507bffffffffffffffffffffffffffffffffffffffffffffffffffffffff811115610a4157604080517f08c379a000000000000000000000000000000000000000000000000000000000815260206004820152601e60248201527f4669786564506f696e743a3a6672616374696f6e3a206f766572666c6f770000604482015290519081900360640190fd5b516612725dd1d243ab7bffffffffffffffffffffffffffffffffffffffffffffffffffffffff9091160490565b6000828201838110156108c757604080517f08c379a000000000000000000000000000000000000000000000000000000000815260206004820152601b60248201527f536166654d6174683a206164646974696f6e206f766572666c6f770000000000604482015290519081900360640190fd5b60006108c783836040518060400160405280601e81526020017f536166654d6174683a207375627472616374696f6e206f766572666c6f770000815250610dd7565b60006003821115610c5e5750806000610c26610c1f8360026108ce565b6001610b4c565b90505b81811015610c5857809150610c51610c4a610c4485846108ce565b83610b4c565b60026108ce565b9050610c29565b506103b3565b81156103b357506001919050565b60008183610d12576040517f08c379a00000000000000000000000000000000000000000000000000000000081526004018080602001828103825283818151815260200191508051906020019080838360005b83811015610cd7578181015183820152602001610cbf565b50505050905090810190601f168015610d045780820380516001836020036101000a031916815260200191505b509250505060405180910390fd5b506000838581610d1e57fe5b0495945050505050565b6000806000610d378686610e4b565b9150915060008480610d4557fe5b868809905082811115610d59576001820391505b8083039250848210610dcc57604080517f08c379a000000000000000000000000000000000000000000000000000000000815260206004820152601a60248201527f46756c6c4d6174683a3a6d756c4469763a206f766572666c6f77000000000000604482015290519081900360640190fd5b610801838387610e96565b60008184841115610e43576040517f08c379a0000000000000000000000000000000000000000000000000000000008152602060048201818152835160248401528351909283926044909101919085019080838360008315610cd7578181015183820152602001610cbf565b505050900390565b600080807fffffffffffffffffffffffffffffffffffffffffffffffffffffffffffffffff84860990508385029250828103915082811015610e8e576001820391505b509250929050565b60008181038216808381610ea657fe5b049250808581610eb257fe5b049450808160000381610ec157fe5b60028581038087028203028087028203028087028203028087028203028087028203028087028203029586029003909402930460010193909302939093010292915050565b6040805160208101909152600081529056fe4669786564506f696e743a3a6672616374696f6e3a206469766973696f6e206279207a65726f536166654d6174683a206d756c7469706c69636174696f6e206f766572666c6f77a164736f6c6343000705000a",
  "linkReferences": {},
  "deployedLinkReferences": {}
}